:020000040800F2
:10000000A81D0020550200081D1A0008F11800085C
:10001000191A00088D040008351C000800000000B3
:10002000000000000000000000000000251A000889
:100030009104000800000000211A0008291A000895
:100040006F0200086F0200086F0200086F020008CC
:100050006F0200086F0200086F0200086F020008BC
:100060006F0200086F0200086F0200086F020008AC
:100070006F0200086F0200086F0200086F0200089C
:100080006F0200086F0200086F0200086F0200088C
:100090006F0200086F0200086F0200086F0200087C
:1000A0006F0200086F0200086F0200086F0200086C
:1000B0006F0200086F0200086F0200086F0200085C
:1000C0006F0200086F0200086F0200086F0200084C
:1000D0006F0200086F0200086F0200086F0200083C
:1000E0006F0200086F0200086F0200086F0200082C
:1000F000ED1A00086F0200086F0200086F02000886
:100100006F0200086F0200086F0200086F0200080B
:100110006F0200086F0200086F0200086F020008FB
:100120006F0200086F0200086F0200086F020008EB
:100130006F02000800000000000000006F020008CD
:100140006F0200086F0200086F0200086F020008CB
:100150006F0200086F0200086F0200086F020008BB
:100160006F0200086F0200086F0200086F020008AB
:100170006F0200086F02000800000000000000008D
:100180006F0200086F02000800F002F800F052F859
:1001900014A696E8000CB244B344DA4501D100F04D
:1001A00049F8BAE80F000FA696E83000A5EB040561
:1001B00004EB0607AAEB0704A7F101074FEA1515A0
:1001C0004FEA3414A4F10104AC4201D300F032F838
:1001D00013F0010F18BFFB1A43F0010300F001F800
:1001E000DBE71847081B0000281B0000103A24BF5B
:1001F00078C878C1FAD8520724BF30C830C144BF8C
:1002000004680C6070470000704700000023002461
:1002100000250026103A28BF78C1FBD8520728BF16
:1002200030C148BF0B6070471FB501F030FD1FBDE6
:1002300010B510BD00F0D0F81146FFF7F5FF01F042
:10024000FBFC00F0EEF803B4FFF7F2FF03BC00F094
:10025000F5F800000948804709480047FEE7FEE737
:10026000FEE7FEE7FEE7FEE7FEE7FEE7FEE7FEE766
:1002700004480549054A064B70470000D91A000892
:1002800089010008A8110020A81D0020A815002041
:10029000A815002053EA020C00F069802DE9F04B0C
:1002A0004FF00006002B1FBFB3FA83F503FA05F4E5
:1002B00024FA05F65E4012BF1643B2FA82F502FA3E
:1002C00005F4C5F120051EBF22FA05FC44EA0C0422
:1002D000203556EA044C4FEA144418BF641C4FF012
:1002E00000084FF00009904271EB030C39D300294C
:1002F00019BFB1FA81F701FA07F6B0FA80F700FAF0
:1003000007F6C7F120071EBF20FA07FC46EA0C06D5
:100310002037B6FBF4FCA7EB0507103F07F01F0BD7
:10032000CBF120062CFA06F60CFA0BFB44BFB346C1
:100330000026202FA4BF5E464FF0000B5BEA060CA0
:1003400008BF4FF0010B19EB0B0948EB0608ABFB9C
:10035000027C06FB02CC0BFB03CCC01B71EB0C0137
:10036000C1E70B46024641464846BDE8F08B13B54F
:10037000084318BF4FF0FF300146AFF30080BDE8DF
:100380001C4070474FF0000200B513469446964655
:10039000203922BFA0E80C50A0E80C50B1F1200198
:1003A000BFF4F7AF090728BFA0E80C5048BF0CC046
:1003B0005DF804EB890028BF40F8042B08BF7047A4
:1003C00048BF20F8022B11F0804F18BF00F8012B16
:1003D0007047704770477047754600F02BF8AE467F
:1003E00005006946534620F00700854618B020B541
:1003F000FFF73EFFBDE820404FF000064FF000073A
:100400004FF000084FF0000BAC46ACE8C009ACE878
:10041000C009ACE8C009ACE8C00921F007018D466D
:10042000704710B50446AFF300802046BDE8104089
:10043000FFF709BF0048704740000020014918201D
:10044000ABBEFEE726000200704700000128B8BFDF
:100450007047B0B50024C4F20204451C20464FF496
:100460008071012200F018FD322000F031FC20469E
:100470004FF48071002200F00FFD322000F028FCC4
:10048000013D012DEAD8BDE8B0407047FEE700000D
:10049000704700002DE9F04141F28017C2F20007D9
:1004A00090463A78002A4FD00D4641F20011064698
:1004B000C0F3C620C2F20001085CC6F30221C840A6
:1004C000C00741D0BC6904E0BFF32F8F002204466F
:1004D00052BB00F0F7FB0146A04215D2EFF31082A9
:1004E00072B6B869A04203D052B1A0420CD11BE051
:1004F0003B69B96101333B61BFF35F8F002AF4D1DF
:1005000062B6A04210D000BF57E8060FA042DBD170
:10051000BFF35F8F47E80612002AD7D1BFF35F8F82
:100520000122002A0446D4D03246C0F20802EFF37A
:100530000580002808BFB2B202F140702A46434647
:10054000BDE8F04100F004B80120BDE8F0810000F2
:100550002DE9F0434FF0805707EAD1074FF00056DE
:1005600006EA92064FF08045384305EA53053043CA
:1005700041F2801E40EA0509C2F2000E5EE8014F1A
:10058000601C4EE80107002FF8D140F20018E0B2DD
:10059000C2F2000808EB001C60464FF4700650F8E9
:1005A0000C5F06EA04376C0170D405F000443E1974
:1005B00050E8004F46EA0906AC4246F0406607D1D3
:1005C00040E8006535B9BFF35F8F012535B14FE3D2
:1005D000BFF32F8F0025002D40F04A83650155D4CD
:1005E00004F000457E1950E8005F46EA0906A5427E
:1005F00046F0406608D140E800643CB9BFF35F8F25
:1006000001243CB134E300BFBFF32F8F0024002C42
:1006100040F02E836C0139D405F000443E1950E8B7
:10062000004F46EA0906AC4246F0406608D140E871
:1006300000653DB9BFF35F8F01253DB118E300BFF1
:10064000BFF32F8F0025002D40F0128365011DD4CC
:1006500004F000457E1950E8005F46EA0906A5420D
:1006600046F040660AD140E800644CB9BFF35F8FA2
:100670000124002C3FF497AFFAE200BFBFF32F8FA5
:100680000024002C3FF48FAFF2E200BF5EE8014F80
:10069000601C4EE80107002FF8D1E0B208EB001C07
:1006A00060464FF4700650F80C5F06EA04376C01A0
:1006B0006AD405F000443E1950E8004F46EA0906A6
:1006C000AC4246F0406607D140E8006535B9BFF35B
:1006D0005F8F012503E000BFBFF32F8F0025002DA2
:1006E00040F0C68265014FD404F000457E1950E801
:1006F000005F46EA0906A54246F0406606D140E89A
:1007000000642CB9BFF35F8F012402E0BFF32F8F89
:100710000024002C40F0AC826C0135D405F000447C
:100720003E1950E8004F46EA0906AC4246F04066E2
:1007300006D140E800652DB9BFF35F8F012502E0C7
:10074000BFF32F8F0025002D40F0928265011BD44E
:1007500004F000457E1950E8005F46EA0906A5420C
:1007600046F0406608D140E800643CB9BFF35F8FB3
:100770000124002C9BD07BE2BFF32F8F0024002CA0
:100780003FF495AF74E200BF5EE8014F601C4EE895
:100790000107002FF8D1E0B208EB001C60464FF4CF
:1007A000700650F80C5F06EA04376C016AD405F055
:1007B00000443E1950E8004F46EA0906AC4246F0B4
:1007C000406607D140E8006535B9BFF35F8F01256A
:1007D00003E000BFBFF32F8F0025002D40F04882BB
:1007E00065014FD404F000457E1950E8005F46EAE9
:1007F0000906A54246F0406606D140E800642CB9DF
:10080000BFF35F8F012402E0BFF32F8F0024002C81
:1008100040F02E826C0135D405F000443E1950E8BA
:10082000004F46EA0906AC4246F0406606D140E871
:1008300000652DB9BFF35F8F012502E0BFF32F8F55
:100840000025002D40F0148265011BD404F0004502
:100850007E1950E8005F46EA0906A54246F0406668
:1008600008D140E800643CB9BFF35F8F0124002C3D
:100870009BD0FDE1BFF32F8F0024002C3FF495AFF8
:10088000F6E100BF5EE8014F601C4EE80107002F53
:10089000F8D1E0B208EB001C60464FF4700650F847
:1008A0000C5F06EA04376C016AD405F000443E1977
:1008B00050E8004F46EA0906AC4246F0406607D1D0
:1008C00040E8006535B9BFF35F8F012503E000BF45
:1008D000BFF32F8F0025002D40F0CA8165014FD452
:1008E00004F000457E1950E8005F46EA0906A5427B
:1008F00046F0406606D140E800642CB9BFF35F8F34
:10090000012402E0BFF32F8F0024002C40F0B081BF
:100910006C0135D405F000443E1950E8004F46EA1A
:100920000906AC4246F0406606D140E800652DB9A4
:10093000BFF35F8F012502E0BFF32F8F0025002D4D
:1009400040F0968165011BD404F000457E1950E803
:10095000005F46EA0906A54246F0406608D140E835
:1009600000643CB9BFF35F8F0124002C9BD07FE172
:10097000BFF32F8F0024002C3FF495AF78E100BF28
:100980005EE8014F601C4EE80107002FF8D1E0B28D
:1009900008EB001C60464FF4700650F80C5F06EA46
:1009A00004376C016AD405F000443E1950E8004F4A
:1009B00046EA0906AC4246F0406607D140E80065C9
:1009C00035B9BFF35F8F012503E000BFBFF32F8F61
:1009D0000025002D40F04C8165014FD404F0004506
:1009E0007E1950E8005F46EA0906A54246F04066D7
:1009F00006D140E800642CB9BFF35F8F012402E008
:100A0000BFF32F8F0024002C40F032816C0135D4CD
:100A100005F000443E1950E8004F46EA0906AC4292
:100A200046F0406606D140E800652DB9BFF35F8F00
:100A3000012502E0BFF32F8F0025002D40F0188123
:100A400065011BD404F000457E1950E8005F46EABA
:100A50000906A54246F0406608D140E800643CB96A
:100A6000BFF35F8F0124002C9BD001E1BFF32F8FD8
:100A70000024002C3FF495AFFAE000BF5EE8014F80
:100A8000601C4EE80107002FF8D1E0B208EB001C13
:100A900060464FF4700650F80C5F06EA04376C01AC
:100AA0006AD405F000443E1950E8004F46EA0906B2
:100AB000AC4246F0406607D140E8006535B9BFF367
:100AC0005F8F012503E000BFBFF32F8F0025002DAE
:100AD00040F0CE8065014FD404F000457E1950E807
:100AE000005F46EA0906A54246F0406606D140E8A6
:100AF00000642CB9BFF35F8F012402E0BFF32F8F96
:100B00000024002C40F0B4806C0135D405F0004482
:100B10003E1950E8004F46EA0906AC4246F04066EE
:100B200006D140E800652DB9BFF35F8F012502E0D3
:100B3000BFF32F8F0025002D40F09A8065011BD454
:100B400004F000457E1950E8005F46EA0906A54218
:100B500046F0406608D140E800643CB9BFF35F8FBF
:100B60000124002C9BD083E0BFF32F8F0024002CA6
:100B70003FF495AF7CE000BF5EE8010F471C4EE8F4
:100B80000176002EF8D1C7B208EB071C4FF47004B1
:100B900004EA0038604650F80C7F0EF10C057C0129
:100BA00000F18E8007F0004408EB040650E8004F87
:100BB00046EA0906BC4246F0406607D140E80067B5
:100BC00037B9BFF35F8F012703E000BFBFF32F8F5B
:100BD0000027002F4CD1660172D404F00046464431
:100BE00050E8007F46EA0906A74246F0406607D172
:100BF00040E8006434B9BFF35F8F012403E000BF15
:100C0000BFF32F8F00249CBB7C0159D407F0004414
:100C100008EB040650E8004F46EA0906BC4246F0DD
:100C2000406607D140E8006737B9BFF35F8F0127FF
:100C300003E000BFBFF32F8F0027CFB966013FD479
:100C400004F00046464450E8007F46EA0906A74201
:100C500046F0406606D140E800642CB9BFF35F8FD0
:100C6000012402E0BFF32F8F0024002C3FF497AF44
:100C700086F0004404F0004521F00041294422F0B0
:100C8000004223F000432A442B448CE80E0024F059
:100C900080610EF10805BFF35F8F00BF50E8002FA1
:100CA00040E80012002AF9D1012000BF55E8001FDA
:100CB000013145E80012002AF8D1BDE8F08300BFF9
:100CC0000020F3E741F20400CEF200000068704714
:100CD000B0B5044600F0E6F8054640F20000C2F266
:100CE00000000078611C18BF044400BF00F0DAF86F
:100CF000401BA042FAD3B0BD2DE9F04F83B000F104
:100D0000200200F13E4741F60045009207F1FF77CF
:100D1000C4F2020508224FEAB726A84208BF0722FC
:100D200000254FF000084FF00009072E38BF4FEAAA
:100D3000B72201920AE000BF09F1010908F1020897
:100D4000B9F1100F05F1040500F0A2800F6801222F
:100D500002FA09FE17EA0E0AEED0D1F804C0032207
:100D60000CF003077E1E02FA08F4012E6FEA040B52
:100D700012D88468CE6804EA0B0406FA08F63443F5
:100D80008460446824EA0E06CCF3001404FA09F4E3
:100D90002643466004E000BF032F01D103271EE075
:100DA000C6688C6806EA0B0604FA08F42643022F8C
:100DB000C66014D16FF00302009E02EA590756F88C
:100DC00007C005F01C040F220B69A2402CEA0202A6
:100DD000A3401A43F251D1F804C00CF00307026893
:100DE00007FA08F302EA0B021A431CF4403F0260C0
:100DF000A2D0002243F644030292C4F202031A680E
:100E000043F6004442F480421A601A68C4F20104B6
:100E100002F480420292029A29F003024FF6084C33
:100E20002244CFF6FF7C52F80C3005F00C070F2659
:100E3000BE40B343019E06FA07F73B4342F80C302D
:100E4000A2684B6842EA0A0743F60C4CDE0258BF20
:100E500022EA0A07A760C4F2010CDCF800209E0217
:100E600042EA0A0758BF22EA0A07CCF80070626813
:100E70009E0342EA0A0758BF22EA0A07676022680F
:100E8000DB0342EA0A0758BF22EA0A07276053E752
:100E900003B0BDE8F08F0000002A08BF090481619B
:100EA0007047000041F2A410C2F2000000687047D1
:100EB00040F2000041F2A411C2F20000C2F20001AF
:100EC00000780A68104408607047000080B543F657
:100ED0000040C4F20200016841F400710160016841
:100EE00041F480610160016841F480710160032078
:100EF00000F0B8F80F2000F005F800F059F80020D5
:100F000080BD0000B0B586B0002543F644010195D0
:100F1000C4F202010A68044642F002020A6009684B
:100F200001A801F0020101910199694600F05CF904
:100F300000F07AF94DF683614000C4F21B31A0FB4A
:100F400001014FF0FF3000EB914140F2A00040F270
:100F50000042C2F20000C4F2010240F2E733C0E9ED
:100F60000021C0E902530561856100F081FB08B1F1
:100F700006B0B0BD40F2A000C2F2000000F0A8FB35
:100F80000028F5D12C2000F02FF80F2C0CD82C20A5
:100F90002146002200F03AF840F204010020C2F29B
:100FA00000010C6006B0B0BD012006B0B0BD00006D
:100FB00082B0002043F640010190C4F202014A6869
:100FC00042F480424A604A6802F480420192019AE7
:100FD0000090086840F080500860086800F0805079
:100FE0000090009802B07047002848BF704700F09A
:100FF0001F01012202FA01F11C2202EAD0004EF286
:101000000012CEF2000281507047000010B54EF67B
:101010000C5CCEF2000CDCF80030C3F3022E8EF034
:101020000704042C28BF0424BEF103034FF0FF3E45
:101030000EFA04F438BF0023A14399400EFA03F3DB
:101040009A43114300F00F0200F160430901043A92
:1010500003F564436244002848BF02F10C03197091
:1010600010BD00004EF60C51CEF200010A684FF69A
:10107000FF031A4060F30A2242F0806040F0FD70E6
:1010800008607047002804BF012070472DE9F04137
:1010900043F60808C4F202080446D8F8F8030D46DF
:1010A00000F00700884207D288F8F853D8F8F80310
:1010B00000F00700A84277D12068810717D54107C3
:1010C00005D5D8F8001041F4E051C8F80010010728
:1010D00005D5D8F8001041F46041C8F80010D8F8E0
:1010E0000010A26821F0F0011143C8F80010C007F9
:1010F00040D1D8F8F80300F00700A84207D988F8D3
:10110000F853D8F8F80300F00700A8424CD1206843
:10111000410707D5D8F80010E26821F4E0511143E7
:10112000C8F80010000708D5D8F80000216920F49D
:10113000604040EAC100C8F8000000F089F8D8F823
:10114000001041F6A842C1F30311C0F60002515C41
:1011500040F2080220FA01F140F20400C2F200005D
:101160000068C2F200021160FFF7CCFE0020BDE86B
:10117000F08100BF6068811E022907D258F8081C60
:1011800089015CBF0120BDE8F08111E0012807D191
:1011900058F8081C89035CBF0120BDE8F08107E016
:1011A00058F8081C890703D40120BDE8F08100BF6E
:1011B000D8F8001021F003010843C8F80000FFF739
:1011C00071FE064641F28837D8F80000616800F0E9
:1011D0000C00B0EB810F8CD0FFF764FE801BB8428F
:1011E000F2D90320BDE8F0810F22026043F6080225
:1011F000C4F20202136803F003034360136803F0B0
:10120000F0038360136803F4E053C360D2F800C0B6
:101210004FF4E05303EADC030361D2F8F80300F073
:10122000070008607047000040F2080043F608011C
:10123000C2F20000C4F202010068096841F6B84237
:10124000C1F34231C0F60002515CC8407047000053
:1012500010B543F60404C4F20204606800F00C0008
:1012600008280BD0042819BF42F20040C0F2F40055
:1012700047F64000C0F27D1010BD00BF2068216815
:101280002368490247F64001C0F27D1100F03F0299
:10129000C3F388105CBF42F20041C0F2F401A1FB2D
:1012A00000010023FEF7F6FF21680222C1F301418D
:1012B00002EB4101B0FBF1F010BD0000002804BFBB
:1012C000012070472DE9F04182B00446007843F6D2
:1012D0000006C007C4F202060CD0B06800F00C0093
:1012E000042840F081803068800303D560680028BE
:1012F00000F06881207880071BD5B06810F00C0FD3
:1013000009D0B06800F00C00082840F087807068B1
:10131000400200F183803068800703D5E06801282F
:1013200040F050813068216920F0F80040EAC100A7
:1013300030602078000713D4207840072AD4A569AC
:10134000002D00F03A81B06800F00C00082840F051
:10135000A580012D40F00E81012002B0BDE8F08192
:101360006069002800F082800020C4F2472001213B
:10137000C0F8801EFFF796FD054600BF706F80071E
:10138000DAD4FFF78FFD401B0228F7D9032002B003
:10139000BDE8F081306C5FEAC0080AD400200190FB
:1013A000306C40F080503064306C00F08050019020
:1013B000019847F20007C4F200073868C00547D417
:1013C000386840F480703860FFF76CFD054600BF58
:1013D0003868C0053CD4FFF765FD401B0228F7D9EB
:1013E000032002B0BDE8F081B06800F00C000828CE
:1013F00003D1706840023FF576AF61683068B1F59F
:10140000803F07D0B1F5A02F40F09A8040F48020B3
:101410003060306840F4803030609AE0E068002846
:1014200040F20000C4F247205CD001210160FFF7C8
:1014300039FD0546306880073FF574AFFFF732FD90
:10144000401B0228F6D9032002B0BDE8F08100BF9E
:10145000A168306F012905D0052955D140F004005D
:101460003067306F40F00100306756E00020C4F272
:1014700047200021C0F8801EFFF714FD054600BF7D
:10148000706F80077FF558AFFFF70CFD401B0228F7
:10149000F6D9032002B0BDE8F08100BF0027C4F2F6
:1014A000472700203866FFF7FDFC022D05460DD1C9
:1014B0003068800140F18A80FFF7F4FC401B02286D
:1014C0004FF00300F4D902B0BDE8F081306880012C
:1014D00073D5FFF7E7FC401B02284FF00300F5D956
:1014E000F1E700BF00210160FFF7DCFC054600BF0B
:1014F000306880077FF51DAFFFF7D4FC401B022842
:101500004FF00300F4D9DEE720F001003067306FC0
:10151000002920F0040030677AD0FFF7C3FC0546AD
:1015200041F28837306F800700F18480FFF7BAFC02
:10153000401BB842F6D9032002B0BDE8F08100BFDD
:1015400020F4803030603068002920F48020306042
:101550007AD0FFF7A7FC0546306880033FF5CAAE96
:10156000FFF7A0FC401B6428F6D9032002B0BDE8B9
:10157000F08100BF7068E16900F480028A4221D1E5
:10158000216A00F03F028A421CD147F6C071626AAC
:101590000140B1EB821F15D1A16A4FF6FF73C90359
:1015A000994300F44032A1F580318A420AD1E16AC0
:1015B00000F07060B0EB016F04D1002002B0BDE814
:1015C000F08100BF012002B0BDE8F08104F11C05EC
:1015D0002FCD084340EA8210D9034FF6FF729143A2
:1015E000A1F5803140EA056008437060012038664B
:1015F000FFF758FC044600BF30688001DDD4FFF7D8
:1016000051FC001B02284FF00300F5D95BE700BF37
:10161000FFF748FC054641F2883700BF306F80076E
:1016200008D5FFF73FFC401BB8424FF00300F5D947
:1016300049E700BFB8F1000F3FF581AE306C20F0F4
:10164000805030647BE600BFFFF72CFC054600BFEE
:10165000306880037FF54EAEFFF724FC401B642802
:101660004FF00300F4D92EE77047000070470000E8
:10167000002804BF0120704710B5044690F83D00D3
:1016800028B9002084F83C00204600F01FF8022012
:1016900084F83D002068211D00F02EFA012084F816
:1016A000460084F83E0084F83F0084F8400084F847
:1016B000410084F8420084F8430084F8440084F830
:1016C000450084F83D00002010BD00007047000078
:1016D00090F83D1001291CBF01207047022180F8BD
:1016E0003D10006841F2FF72C168C4F200029042EE
:1016F00041F00101C1600DDC40F2FF71C4F2000154
:10170000884215DCB0F1804F2AD040F20041C4F28B
:10171000000123E040F2FF31C4F20101884213DCF2
:1017200041F60001C4F20001884219D0002113E003
:1017300040F60001C4F20001884211D040F6004199
:10174000C4F200010AE000BF44F20001C4F201014A
:10175000884205D040F20041C4F20101884206D11E
:10176000816801F00701062904BF00207047016865
:1017700041F0010101600020704700007047000047
:1017800070B504460068C5680669B10716D515F03E
:10179000020113D06FF002010161012121778069FC
:1017A000800703D02046FFF7E9FF05E0204600F060
:1017B0008FF8204600F08EF800202077700719D5AA
:1017C00015F0040016D020686FF0040101610221B9
:1017D0002177806910F4407F04D02046FFF7CEFFC8
:1017E00006E000BF204600F073F8204600F072F8D3
:1017F00000202077300717D515F0080014D0206896
:101800006FF00801016104212177C069800703D0CE
:101810002046FFF7B3FF05E0204600F059F82046C8
:1018200000F058F800202077F00619D515F01000C8
:1018300016D020686FF01001016108212177C0697E
:1018400010F4407F04D02046FFF798FF06E000BF69
:10185000204600F03DF8204600F03CF800202077BC
:10186000F00718BF15F0010002D1300609D412E0CC
:1018700020686FF001010161204600F02DF830066C
:1018800009D515F0800006D020686FF08001016155
:101890002046FFF7E9FE700609D515F0400006D096
:1018A00020686FF040010161204600F01FF8B0068B
:1018B00058BF70BD15F0200008D021686FF02002DD
:1018C00020460A61BDE87040FFF7D0BE70BD000041
:1018D000704700007047000000680021C4F2010159
:1018E000884218BF7047FFF7E3BA00007047000056
:1018F000FEE7000010B50024C4F2020420461021C7
:101900000122FFF7C9FAC820FFF7E2F920461021AB
:101910000022FFF7C1FA204620210122FFF7BCFA7E
:10192000C820FFF7D5F9204620210022FFF7B4FA9E
:10193000204640210122FFF7AFFAC820FFF7C8F97F
:10194000204640210022FFF7A7FA204680210122ED
:10195000FFF7A2FAC820FFF7BBF92046802100223A
:10196000FFF79AFA6420BDE81040FFF7B1B9000014
:101970002DE9F04387B0002643F630000696CDE906
:101980000466CDE902660196C4F2020001680024F3
:1019900041F0800101600168C4F2020401F080019D
:1019A0000191019901960168002241F00101016055
:1019B00000684FF4F87100F0010001900198204692
:1019C0004FF4F878FFF768FA04200290022002AD85
:1019D000CDE903064FF00309072720462946CDF835
:1019E00014900697FFF788F908200290122003A9A7
:1019F00081E84102204629460697FFF77DF901203C
:101A0000CDE9030620462946CDF808800596FFF764
:101A100073F907B0BDE8F083FEE70000FEE70000C1
:101A200070470000704700007047000070B592B02A
:101A300006AC20463021FEF7A5FC002543F6400009
:101A40000595CDE90355CDE901550095C4F2020095
:101A50000168022641F080510160006800F080506A
:101A60000090009847F200000095C4F20000016861
:101A700041F480410160006800F4804000900098CB
:101A8000012006904FF4803007904FF480000D90B5
:101A900019200E904FF4A870CDE90F060420119084
:101AA00020460C96FFF70AFC10B172B6FEE700BFA5
:101AB0000F20CDE901064FF4A05004904FF4805060
:101AC000059001A805210395FFF7DCFA10B172B665
:101AD000FEE700BF12B070BD4EF68850CEF2000097
:101AE000016841F4700101607047000040F2A000FD
:101AF000C2F20000FFF744BEB0B540F6FF3E0568F5
:101B0000C4F2000E40F2004C7045C4F2010C25DC1A
:101B1000B0F1804F2FD040F20043C4F2000398424E
:101B200029D040F60003C4F20003984223D041F6C6
:101B3000FF73C4F20003984228DC70453ADCB0F130
:101B4000804F5BD040F20043C4F20003984255D06E
:101B500040F60003C4F200034EE000BF40F600432D
:101B6000C4F20003984206D0604504D00023C4F2BA
:101B700001039842DBD14B6825F0700243EA02056D
:101B800041F6FF73C4F200039842D6DD43F6FF73BB
:101B9000C4F2010398421FDC42F20003C4F20003C6
:101BA00098422BD00023C4F20103984226D060450E
:101BB00024D028E040F60043C4F2000398421DD030
:101BC00041F60003C4F20003984217D041F60043E7
:101BD000C4F2000310E000BF44F20003C4F20103AA
:101BE00098420BD044F60003C4F20103984205D09A
:101BF00044F20043C4F20103984204D1CB6825F4B7
:101C0000407243EA02050A688C684B69C46240F47A
:101C100080648262644504BF09690163026825F03B
:101C2000800142F004021943026001224261016016
:101C3000B0BD0000FEE70000FFF748F9FFF7F6FE31
:101C4000FFF796FE41F6D84440F20C05C0F60004BA
:101C5000C2F200050BE000BFFFF74CFE0120FEF7CB
:101C6000F5FB4EF6207021466B22FEF713FC4FF475
:101C70006F4021466722FEF70DFC28680130EBD04B
:101C80000120FEF7E3FB286801382860E4E7F1EE65
:101C9000100A4FF6FF71C0F2C03120EA010040F097
:101CA0004070E1EE100A70470000000000000000E4
:101CB00001020304060708090000000001020304F2
:101CC00001000101000100000001002000110020BE
:101CD00080110020000000002E2E2F436F72652F10
:101CE0005372632F6D61696E2E630000401D000802
:101CF0000000002040000000EC010008801D0008EA
:101D000040000020681D00000C02000800000000D8
:101D100000000000000000000000000000000000C3
:101D200000000000000000000000000000000000B3
:101D300000000000000000000000000000000000A3
:101D400001000000100000000024F4000200000068
:101D50000000000000000000000000000000000083
:101D60000000000000000000000000000000000073
:101D70000000000000000000000000000000000063
:040000050800018965
:00000001FF
