:020000040800F2
:10000000F81900209D0100086D2F0008852C0008BC
:10001000692F00089D0700089D37000800000000B8
:10002000000000000000000000000000E12F0008B8
:10003000A107000800000000DD2F0008E52F0008E0
:10004000B7010008B7010008B7010008B7010008B0
:10005000B7010008B7010008B7010008B7010008A0
:10006000B7010008B7010008B7010008B701000890
:10007000B7010008B7010008B7010008B701000880
:10008000B7010008B7010008B7010008B701000870
:10009000B7010008B7010008B7010008B701000860
:1000A000B7010008BD300008B7010008B70100081B
:1000B000B7010008CD300008B7010008B7010008FB
:1000C000B7010008B7010008B7010008B701000830
:1000D000B7010008B7010008B7010008B701000820
:1000E000B7010008B7010008B7010008B701000810
:1000F000DD300008B7010008B7010008B7010008AB
:10010000B7010008B7010008B7010008B7010008EF
:10011000B7010008B7010008B7010008B7010008DF
:10012000B7010008B7010008B7010008B7010008CF
:10013000B70100080000000000000000B70100083F
:10014000B7010008B7010008B7010008B7010008AF
:10015000B7010008B7010008B7010008B70100089F
:10016000B7010008B7010008B7010008B70100088F
:10017000B7010008B70100080000000000000000FF
:10018000B7010008B7010008DFF80CD000F05AFAF8
:1001900000480047193A0008F8190020064880472F
:1001A00006480047FEE7FEE7FEE7FEE7FEE7FEE75C
:1001B000FEE7FEE7FEE7FEE7A93000088901000838
:1001C0002DE9F05F0546002092469B46884606468C
:1001D000814640241BE0284641464746224600F01F
:1001E00069F853465A46C01A914110D31146184631
:1001F000224600F050F82D1A67EB01084F462246C0
:100200000120002100F047F817EB00094E41201EA5
:10021000A4F10104DFDC484631462A464346BDE8E6
:10022000F09F40EA01039B0703D009E008C9121FB1
:1002300008C0042AFAD203E011F8013B00F8013BA0
:10024000521EF9D27047D2B201E000F8012B491ECC
:10025000FBD270470022F6E710B513460A46044663
:100260001946FFF7F0FF204610BD30B50B4601469A
:1002700000202022012409E021FA02F59D4205D345
:1002800003FA02F5491B04FA02F52844151EA2F1EF
:100290000102F1DC30BD202A04DB203A00FA02F131
:1002A000002070479140C2F1200320FA03F3194364
:1002B00090407047202A04DB203A21FA02F0002106
:1002C000704721FA02F3D040C2F120029140084366
:1002D000194670472DE9FE4F804681EA0300C00FA2
:1002E0000C46009021F0004123F00045B8EB0200DD
:1002F000A94105D24046214690461C460B4602467F
:1003000023F00040104347D0270DC7F30A00C3F382
:100310000A510290401A019040286BDAC3F313008F
:1003200040F4801B0098924620B10023D2EB030AD0
:1003300063EB0B0B01985946C0F140025046FFF7A2
:10034000AAFF06460D4650465946019A00F092F91A
:1003500010EB08006141002487EA115284EAE77338
:100360001A4340D0009A62B3019A012A4FEA075219
:1003700015DC001B61EB02014FF0004202EA07525C
:10038000CDE90042001C41F5801132462B4600F0B9
:1003900092F903B0BDE8F08F40462146F9E7001B13
:1003A00061EB0201001C41F5801300185B4120182D
:1003B000A2F5001747EB030140EAD570B6196D416D
:1003C00011E06D084FEA360645EAC0754FEA07525C
:1003D000001B61EB0201001C41F5801149084FEA46
:1003E00030000019514132462B4603B0BDE8F04FB2
:1003F00000F052B90098012240000023D0EB020225
:1004000063EBE073009821464FEAE074B8EB00001C
:1004100061EB0401E9E783F000435BE781F0004111
:1004200058E72DE9FE4F81EA030404F0004421F06F
:10043000004100944FF0000B23F0004350EA010408
:100440005ED052EA03045BD0C3F30A54C1F30A55E9
:100450002C44A4F2F3340194A0FB0254C1F3130121
:1004600041F48011C3F3130343F4801301FB0244EE
:1004700000FB034E840A970A44EA815447EA8357F3
:10048000A4FB076802958D0A05FB07854FEA932CAC
:1004900004FB0C542705029D4FEA065847EA16371D
:1004A000B5EB08056EEB070C870E920E47EA811735
:1004B00042EA8312A7FB0201B6EB0B0164EB0004D6
:1004C0002B0D43EA0C335E1844EB1C50DA465146C0
:1004D000E7FB0201C5F313044FEA0B3343EA14535D
:1004E0004FEA0432019C43EA0603A4F10C0402948F
:1004F000009CCDE900B400F0DEF803B0BDE8F08F59
:1005000000200146F9E72DE9F04D81EA030404F0EB
:10051000004B21F0004514464FF0000A23F0004143
:1005200050EA050220D054EA01021DD0C5F30A5753
:100530000246C5F31303C1F31300C1F30A5640F496
:10054000801543F48013A7EB0608101BD64608F26B
:10055000FD3873EB050002D308F1010801E09218A1
:100560005B41B8F1000F03DA00200146BDE8F08DD1
:1005700000204FF48011064684460EE0171B73EBF3
:10058000050705D3121B63EB050306434CEA010C78
:1005900049084FEA300092185B4150EA0107EDD15B
:1005A00052EA030012D082EA040083EA05010843FC
:1005B00005D0101BAB4106D20122002306E0002229
:1005C0004FF0004302E06FF0010253101AEB0600F7
:1005D0004CEB085110EB0A0041EB0B01BDE8F04D6C
:1005E00000F05AB8C1F30A52C1F3130140F2FF33CD
:1005F00041F480119A4202DA00200146704740F22D
:1006000033439A42A2F2334202DC5242FFF752BE17
:10061000FFF741BE30B5041E71F1000404DB4FF05A
:100620000044404264EB0101141E73F1000405DB39
:100630001C464FF00043524263EB0403994208BF4B
:10064000904230BD1CB5094800900948019005460C
:10065000009C06E0E06840F0010394E8070098473A
:100660001034AC42F6D3FFF793FD00008444000839
:10067000A4440008202A06DBCB17203A41FA02F0F6
:1006800043EAE07306E041FA02F3D040C2F12002EF
:10069000914008431946704710B5141E73F10004C9
:1006A00008DA401C41F1000192185B411A4301D164
:1006B00020F0010010BD2DE9F04D92469B4611B18E
:1006C000B1FA81F202E0B0FA80F220329046FFF7F0
:1006D000E2FD04460F4640EA0A0041EA0B01534698
:1006E0005A46084313D0114653EA010019D0C8F105
:1006F00040025046FFF7DEFD05460E46504659467D
:100700004246FFF7C8FD084305D0012004E020461B
:100710003946BDE8F08D0020054346EAE0762C43DB
:1007200037430A986305E40AA0EB08000022FD0A9B
:1007300044EA47540A3002D500200146E9E70105A2
:1007400010196941DDE9084500196941BDE8F04D1E
:10075000A2E7000080B584B00390FFE7039801286A
:100760001ADBFFE70020C4F2020000904FF4807112
:100770000191012200F06CFD3220029000F06AFB32
:1007800000980199002200F063FD029800F062FBDE
:10079000039801380390E1E704B080BDFFE7FEE76E
:1007A0007047000072B6FFE7FEE7000082B00190DC
:1007B00041F2C010C2F20000007818B9FFE7002033
:1007C00000900EE00199C1F3C62241F24010C2F23E
:1007D0000000805CC1F30221C84000F001000090DD
:1007E000FFE7009802B0704780B586B041F2C010B4
:1007F000C2F2000080690390FFE700F0F9FA04906C
:100800000498039988422CD2FFE7EFF310800590FB
:100810000598029072B641F2C010C2F200008069E1
:1008200001900198039988420ED1FFE7049841F2A4
:10083000C011C2F200018861086901300861BFF38C
:100840005F8F0120009002E000200090FFE70298F7
:1008500010B9FFE762B6FFE7009808B9FFE701E0CB
:100860000CE0FFE7049A41F2C010C2F20000183019
:1008700003A902F0F5FF0028BFD0FFE7049806B0F7
:1008800080BD000080B588B0059004910392059862
:10089000FFF78CFF18B9FFE7012006901CE0FFF777
:1008A000A3FF0290BDF814000590EFF305800790B8
:1008B000079A059840F40021002A18BF08460590C1
:1008C000059840F040700299049A039B00F0CCF820
:1008D000019001980690FFE7069808B080BD0000DF
:1008E00080B58CB0099008910792089828B1FFE76D
:1008F0000798B0F5807F03D9FFE700200A90AFE0AA
:100900000998FFF753FF18B9FFE701200A90A7E005
:10091000FFF76AFF0590BDF824000990EFF305800A
:100920000B900B9A099840F40021002A18BF084642
:10093000099008980690079850B9FFE7099805991B
:1009400000231A4600F090F8019001980A9087E081
:10095000079808281BD8FFE700200290039006990B
:10096000079A02A8FFF75DFC079800F007010998B5
:1009700040EA01400990099840F040700599029AB8
:10098000039B00F071F8019001980A9068E000F074
:100990004DFA01464FF4E02000EA01400490069928
:1009A00008684968039102900698083006900798F5
:1009B000083807900499099808430990099840F06D
:1009C00080700599029A039B00F04EF801900198FF
:1009D00018B9FFE700200A9042E004984FF6017131
:1009E00008430990FFE7079809281CD3FFE70699F9
:1009F00008684968039102900698083006900798A5
:100A00000838079009980599029A039B00F02CF882
:100A10000190099801300990019818B9FFE700206A
:100A20000A901DE0DFE70020029003900699079AE4
:100A300002A8FFF7F6FB099820F47F400990079978
:100A4000099840EA01200990099840F00070059942
:100A5000029A039B00F008F8019001980A90FFE7C2
:100A60000A980CB080BD000080B58CB00A90099146
:100A70000892079307200590FFE70598002862D0A9
:100A8000FFE700F0DDF904909DF8101040F24010EF
:100A9000C2F2000000EB0110069004994FF47000C0
:100AA00000EA013001900A9801990843099A4FF031
:100AB000805101EAD2010843089A4FF0005101EA3F
:100AC00092010843079A4FF0804101EA520108431E
:100AD00040F00060039006980C30039902F0E8F8AB
:100AE00003909DF80F004007002827D5FFE70398E3
:100AF00080F000400390039800F0004002900998B5
:100B000020F000400299084306990860089820F0F8
:100B100000400299084306994860079820F0004079
:100B2000029908430699886006980C30039902F0F0
:100B300009FE02F0B3F801200B9009E0FFE70598E9
:100B40000138059099E702F09FF800200B90FFE72D
:100B50000B980CB080BD000087B005900491039203
:100B60000498FE2804D8FFE70398FF2803D3FFE783
:100B70000020069036E0002002900190FFE70198E7
:100B800003282CD8FFE705980199C840C007F0B1A9
:100B9000FFE704980090FFE700980399884215D872
:100BA000FFE7009901F00702012000FA02F3029822
:100BB00000EBD10241F24011C2F20001885C1843FF
:100BC0008854FFE7009801300090E5E7FFE70298BE
:100BD00020300290FFE7019801300190CFE701201B
:100BE0000690FFE7069807B07047000080B58AB00E
:100BF0000990089141F2C011C2F200010191002058
:100C0000087041F24010C2F200008021FFF722FB81
:100C100044F24C40C0F60000182102F0A3FE014649
:100C20000198ADF81A10006A42F26B71CEF2A5116C
:100C300088420FD0FFE741F2C011C2F2000142F238
:100C40006B70CEF2A5100862BDF81A004880012032
:100C5000C8611CE041F2C010C2F200004088BDF83B
:100C60001A1088420AD0FFE7BDF81A0041F2C011FD
:100C7000C2F2000148800120C86107E041F2C011C2
:100C8000C2F20001C8690130C861FFE7FFE741F225
:100C9000C010C2F20000C069012812D1FFE741F282
:100CA000C011C2F200010020487048608860C8602E
:100CB00040F24010C2F200004FF48051FFF7CAFA30
:100CC00020E000200290FFE70298FF2819D8FFE7F4
:100CD000029940F24010C2F2000000EB01100790B0
:100CE0000798C07B4007002806D5FFE70799C8682A
:100CF00020F04060C860FFE7FFE7029801300290F3
:100D0000E2E7FFE741F2C010C2F20000C06901282B
:100D100017D1FFE700F078F80490049820B1FFE7BE
:100D200000F06CF8059002E000200590FFE70598C0
:100D300041F2C011C2F200014861002088610861DF
:100D400003E000F061F80490FFE7049838B3FFE790
:100D500009980021FE220092FFF7FEFE0F20EF22ED
:100D60001146FFF7F9FE009A04201146FFF7F4FE42
:100D7000FFF73AFD0390039941F2C010C2F2000060
:100D80004369C2694FF60070C0F20030FFF76CFE95
:100D9000089818B1FFE700F005F8FFE7FFE70498AF
:100DA0000AB080BD80B584B041F2C010C2F200002C
:100DB000007818B1FFE70120039015E041F2C0115F
:100DC000C2F20001012001900870FFF70DFD0290B2
:100DD00002994FF60170C0F2003000231A46FFF767
:100DE00043FE01980390FFE7039804B080BD000024
:100DF00041F20400CEF200000068704740F20400A7
:100E0000C2F20000006870474EF6FC51CEF20001BD
:100E1000086840F08070086041F20001CEF20001E5
:100E2000086840F0010008600120704780B541F279
:100E3000C010C2F20000013002F068FD80BD000069
:100E400080B541F2C010C2F20000043002F038FD5B
:100E500080BD000080B584B0039000F011FA0290CC
:100E6000039801900198013048B1FFE740F20C006F
:100E7000C2F200000178019808440190FFE7FFE703
:100E800000F0FEF90299401A0199884201D2FFE769
:100E9000F6E704B080BD00008EB00D900C910020EC
:100EA0000A90099008900B90FFE70B980F2800F22A
:100EB000CC81FFE70B99012088400A900C980068CC
:100EC0000A990840099009980A99884240F0B88127
:100ED000FFE70C98406800F00300012807D0FFE707
:100EE0000C98406800F0030002282FD1FFE70D980E
:100EF000806808900B984100032000FA01F10898DF
:100F0000884308900C98C0680B99490000FA01F1D9
:100F100008980843089008980D9988600D984068D3
:100F200008900B99012000FA01F108988843089075
:100F30000C984068C0F300100B9900FA01F1089872
:100F40000843089008980D994860FFE70C9840689E
:100F500000F00300032818D0FFE70D98C068089040
:100F60000B984100032000FA01F10898884308908B
:100F70000C9880680B99490000FA01F10898084321
:100F8000089008980D99C860FFE70C98406800F039
:100F90000300022826D1FFE70D980B996FF003029A
:100FA00002EA51010844006A08900B9800F007001B
:100FB00081000F2000FA01F10898884308900C98EE
:100FC00000690B9901F00701890000FA01F1089806
:100FD0000843089008980D990B9B02EA53021144AC
:100FE0000862FFE70D98006808900B984100032005
:100FF00000FA01F10898884308900C98406800F0C6
:1010000003000B99490000FA01F108980843089081
:1010100008980D9908600C9880798007002800F0E6
:101020000E81FFE7FFE70020079043F64400C4F27B
:101030000200016841F480410160006800F48040D2
:1010400007900798FFE70B9820F0030043F608018C
:10105000C4F20101405808900B9800F00300810091
:101060000F2000FA01F10898884308900D9800219C
:10107000C4F20201884203D1FFE7002006905EE03F
:101080000D9840F20041C4F20201884203D1FFE70B
:101090000120059050E00D9840F60001C4F20201D5
:1010A000884203D1FFE70220049042E00D9840F609
:1010B0000041C4F20201884203D1FFE703200390FC
:1010C00034E00D9841F20001C4F20201884203D1DC
:1010D000FFE70420029026E00D9841F20041C4F29F
:1010E0000201884203D1FFE70520019018E00D9826
:1010F00041F60001C4F20201884203D1FFE7062055
:1011000000900AE00D9941F60042C4F20202082064
:10111000914208BF07200090FFE700980190FFE789
:1011200001980290FFE702980390FFE7039804906C
:10113000FFE704980590FFE705980690FFE70698FB
:10114000C0B20B9901F00301890000FA01F108987F
:101150000843089008980B9921F0030143F6080210
:10116000C4F20102885043F60840C4F2010000684E
:10117000089009990898884308900C988079C006CF
:10118000002805D5FFE70999089808430890FFE76C
:10119000089843F60841C4F20101086043F60C4088
:1011A000C4F20100006808900999089888430890E3
:1011B0000C9880798006002805D5FFE709990898E2
:1011C00008430890FFE7089843F60C41C4F2010178
:1011D000086043F60440C4F20100006808900999D1
:1011E0000898884308900C9880798007002805D5D6
:1011F000FFE70999089808430890FFE7089843F625
:101200000441C4F20101086043F60040C4F2010049
:101210000068089009990898884308900C9880798C
:10122000C00728B1FFE70999089808430890FFE72D
:10123000089843F60041C4F201010860FFE7FFE7A8
:10124000FFE70B9801300B902FE60EB070470000BF
:1012500082B00190ADF802108DF801209DF80100D8
:1012600028B1FFE7BDF802000199886105E0BDF8EB
:101270000200000401998861FFE702B07047000096
:1012800041F2F010C2F200000068704740F20C001A
:10129000C2F20000027841F2F011C2F200010868C7
:1012A000104408607047000080B543F60041C4F266
:1012B0000201086840F400700860086840F480602B
:1012C0000860086840F480700860032000F0C0F8EF
:1012D0000F2000F005F800F071F8002080BD00003C
:1012E00080B58CB00B90002005900490FFE70020A3
:1012F000019043F64400C4F20200016841F002018B
:101300000160006800F0020001900198FFE706A864
:1013100003A900F0D7F900F005FA40000590059800
:101320004DF68361C4F21B31A0FB01014FF0FF3089
:1013300000EB9140049040F2D400C2F2000040F271
:101340000041C4F20101016040F2E731C16004993B
:101350004160002101618160816100F063FE8DF8D0
:101360000B009DF80B0028BBFFE740F2D400C2F24F
:10137000000000F0F3FE8DF80B009DF80B00C0B9E3
:10138000FFE72C2000F040F80B980F280CD8FFE75F
:101390000B992C20002200F041F80B9840F210012C
:1013A000C2F20001086003E001208DF80B00FFE7A6
:1013B000FFE7FFE79DF80B000CB080BD82B0FFE7B0
:1013C0000020019043F64400C4F20200016841F499
:1013D00080410160006800F4804001900198FFE7BF
:1013E000FFE70020009043F64000C4F202000168CD
:1013F00041F080510160006800F08050009000983A
:10140000FFE702B07047000080B582B08DF807009A
:101410009DF9070002F0C4F902B080BD80B586B026
:101420008DF81700049103920020029002F0D0F989
:1014300002909DF91700019002980499039A01F017
:1014400097FD0146019802F0CBF906B080BD00007F
:1014500080B582B00190019802F0E4F902B080BD3D
:1014600080B584B002900191029820B9FFE7012075
:101470008DF80F0021E1019843F60041C4F202010A
:10148000096801F00701884212D9FFE7019943F684
:101490000040C4F202000170006800F007000199EA
:1014A000884204D0FFE701208DF80F0005E1FFE737
:1014B00002980078800700282AD5FFE70298007874
:1014C0004007002809D5FFE743F60801C4F20201EE
:1014D000086840F4E0500860FFE7029800780007D1
:1014E000002809D5FFE743F60801C4F202010868A5
:1014F00040F460400860FFE743F60801C4F20201CF
:10150000086820F0F000029A926810430860FFE734
:1015100002980078C00700286ED0FFE70298406864
:10152000012811D1FFE743F60000C4F20200006871
:1015300000F400310020B0EB514F04D1FFE701204F
:101540008DF80F00B9E02CE002984068022805D021
:10155000FFE702984068032811D1FFE743F6000037
:10156000C4F20200006800F000710020B0EB516F7F
:1015700004D1FFE701208DF80F009EE010E043F654
:101580000000C4F20200006800F002010020B0EB8D
:10159000510F04D1FFE701208DF80F008DE0FFE728
:1015A000FFE743F60801C4F20201086820F00300D7
:1015B000029A526810430860FFF762FE0090FFE74E
:1015C00043F60800C4F20200006800F00C00029923
:1015D0004968B0EB810F0ED0FFE7FFF751FE00998D
:1015E000401A41F28931884204D3FFE703208DF885
:1015F0000F0062E0E4E7FFE7019843F60041C4F220
:101600000201096801F00701884212D2FFE701993F
:1016100043F60040C4F202000170006800F00700C9
:101620000199884204D0FFE701208DF80F0044E0C3
:10163000FFE702980078400700280CD5FFE743F643
:101640000801C4F20201086820F4E050029AD2684E
:1016500010430860FFE702980078000700280DD5C6
:10166000FFE743F60801C4F20201086820F4604075
:10167000029A126940EAC2000860FFE700F064F8CD
:1016800043F60801C4F202010968C9B20A0944F22A
:101690003241C0F60001895CC84040F20401C2F248
:1016A0000001086040F21000C2F200000068FFF77D
:1016B00017FE00208DF80F00FFE79DF80F0004B023
:1016C00080BD000082B00190009101990F20086058
:1016D00043F60800C4F20200016801F00301019A18
:1016E0005160016801F0F001019A9160016801F414
:1016F000E051019AD160006800F46040C00801998F
:10170000086143F60040C4F20200006800F00700E0
:101710000099086002B0704740F20400C2F2000075
:101720000068704780B5FFF7F7FF43F60801C4F281
:101730000201096889B24A0B44F24241C0F6000135
:10174000895CC84080BD000080B586B0002005904F
:1017500004900390029043F60800C4F2020000686F
:1017600000F00C000146019140B1FFE70198042808
:101770000AD0FFE7019808280CD04FE042F2004061
:10178000C0F2F40002904FE047F64000C0F27D1036
:10179000029049E043F60400C4F20200016801F03F
:1017A0003F01059100684002002813D5FFE743F68A
:1017B0000400C4F202000068C0F3881047F640013C
:1017C000C0F27D11A0FB0101059A0023FEF7F8FC91
:1017D000049012E043F60400C4F202000068C0F373
:1017E000881042F20041C0F2F401A0FB0101059A09
:1017F0000023FEF7E5FC0490FFE743F60400C4F283
:101800000200006800F44031022000EBD130039068
:1018100004980399B0FBF1F0029005E042F2004019
:10182000C0F2F4000290FFE7029806B080BD00000D
:1018300080B586B00490049820B9FFE701208DF8A8
:10184000170050E304980078C007002800F0A58036
:10185000FFE743F60800C4F20200006800F00C0045
:10186000042813D0FFE743F60800C4F20200006822
:1018700000F00C0008281ED1FFE743F60400C4F274
:10188000020000684002002815D5FFE743F600007B
:10189000C4F20200006800F400310020B0EB514FA8
:1018A00008D0FFE70498406820B9FFE701208DF8D1
:1018B000170018E370E0FFE704984068B0F5803F38
:1018C00009D1FFE743F60001C4F20201086840F4C1
:1018D0008030086020E004984068B0F5A02F0DD15A
:1018E000FFE743F60001C4F20201086840F48020DB
:1018F0000860086840F4803008600CE043F600019E
:10190000C4F20201086820F480300860086820F4FE
:1019100080200860FFE7FFE7FFE704984068E8B130
:10192000FFE7FFF7ADFC0390FFE743F60000C4F2CA
:101930000200006800F400310020B0EB514F0CD1E0
:10194000FFE7FFF79DFC0399401A652804D3FFE7E2
:1019500003208DF81700C6E2E7E71CE0FFF790FCD4
:101960000390FFE743F60000C4F20200006800F4B1
:1019700000310020B0EB514F0CD0FFE7FFF780FCA7
:101980000399401A652804D3FFE703208DF8170058
:10199000A9E2E7E7FFE7FFE7FFE7049800788007A1
:1019A000002840F19680FFE743F60800C4F20200E9
:1019B000006810F00C0F13D0FFE743F60800C4F2E4
:1019C0000200006800F00C0008282CD1FFE743F665
:1019D0000400C4F2020000684002002823D4FFE79C
:1019E00043F60000C4F20200006800F0020100208B
:1019F000B0EB510F09D0FFE70498C068012804D06C
:101A0000FFE701208DF817006DE243F60001C4F2F4
:101A10000201086820F0F800049A126940EAC20046
:101A20000860FFE754E00498C06870B3FFE7002146
:101A3000C4F2472101200860FFF722FC0390FFE772
:101A400043F60000C4F20200006800F0020100202A
:101A5000B0EB510F0CD1FFE7FFF712FC0399401ACE
:101A6000032804D3FFE703208DF817003BE2E7E7E4
:101A700043F60001C4F20201086820F0F800049A5D
:101A8000126940EAC200086021E00021C4F2472147
:101A900000200860FFF7F4FB0390FFE743F6000027
:101AA000C4F20200006800F002010020B0EB510F08
:101AB0000CD0FFE7FFF7E4FB0399401A032804D397
:101AC000FFE703208DF817000DE2E7E7FFE7FFE7E8
:101AD000FFE704980078000700284BD5FFE704983B
:101AE000406918B3FFE740F68061C4F24721012046
:101AF0000860FFF7C5FB0390FFE743F67400C4F2EC
:101B00000200006800F002010020B0EB510F0CD180
:101B1000FFE7FFF7B5FB0399401A032804D3FFE75B
:101B200003208DF81700DEE1E7E722E040F6806150
:101B3000C4F2472100200860FFF7A2FB0390FFE7F3
:101B400043F67400C4F20200006800F002010020B5
:101B5000B0EB510F0CD0FFE7FFF792FB0399401A4F
:101B6000032804D3FFE703208DF81700BBE1E7E764
:101B7000FFE7FFE7049800784007002840F1CE8097
:101B8000FFE700208DF8070043F64000C4F2020092
:101B90000068C000002815D4FFE7FFE70020009090
:101BA00043F64000C4F20200016841F08051016038
:101BB000006800F0805000900098FFE701208DF849
:101BC0000700FFE747F20000C4F200000068C0050C
:101BD000002822D4FFE747F20001C4F200010868A0
:101BE00040F480700860FFF74BFB0390FFE747F27B
:101BF0000000C4F200000068C00500280CD4FFE714
:101C0000FFF73EFB0399401A032804D3FFE70320A4
:101C10008DF8170067E1EAE7FFE7FFE704988068BF
:101C2000012809D1FFE743F67001C4F202010868F8
:101C300040F0010008601FE00498806805280DD17D
:101C4000FFE743F67001C4F20201086840F00400A7
:101C50000860086840F0010008600CE043F670017D
:101C6000C4F20201086820F001000860086820F052
:101C700004000860FFE7FFE7FFE704988068F8B119
:101C8000FFE7FFF7FDFA0390FFE743F67000C4F2A9
:101C90000200006800F002010020B0EB510F0ED1ED
:101CA000FFE7FFF7EDFA0399401A41F289318842C4
:101CB00004D3FFE703208DF8170014E1E5E71EE0E9
:101CC000FFF7DEFA0390FFE743F67000C4F202006C
:101CD000006800F002010020B0EB510F0ED0FFE7CA
:101CE000FFF7CEFA0399401A41F28931884204D3B2
:101CF000FFE703208DF81700F5E0E5E7FFE79DF823
:101D00000700012809D1FFE743F64001C4F20201B0
:101D1000086820F080500860FFE7FFE704988069BA
:101D2000002800F0DC80FFE743F60800C4F2020060
:101D3000006800F00C00082800F08580FFE7049898
:101D4000806902285CD1FFE76021C4F247210020AE
:101D50000860FFF795FA0390FFE743F60000C4F22E
:101D60000200006800F000710020B0EB516F0CD051
:101D7000FFE7FFF785FA0399401A032804D3FFE72A
:101D800003208DF81700AEE0E7E70499C869D1F8A1
:101D900020C04B6A8A6A40EA0C0040EA8310D203F2
:101DA0004FF6FF739A43A2F580321043C96A40EAA6
:101DB000016043F60401C4F2020108606021C4F22C
:101DC000472101200860FFF75BFA0390FFE743F625
:101DD0000000C4F20200006800F000710020B0EBC7
:101DE000516F0CD1FFE7FFF74BFA0399401A032814
:101DF00004D3FFE703208DF8170074E0E7E721E044
:101E00006021C4F2472100200860FFF739FA0390EF
:101E1000FFE743F60000C4F20200006800F0007122
:101E20000020B0EB516F0CD0FFE7FFF729FA0399C0
:101E3000401A032804D3FFE703208DF8170052E06F
:101E4000E7E7FFE74AE004988069012804D1FFE74B
:101E500001208DF8170046E043F60400C4F20200AA
:101E60000068029004988069012831D0FFE7029849
:101E700000F480000499C969884229D1FFE70298DB
:101E800000F03F000499096A884221D1FFE70298D7
:101E900047F6C07108400499496AB0EB811F17D119
:101EA000FFE7029800F440300499896AC9034FF6AD
:101EB000FF729143A1F58031884209D1FFE7029872
:101EC00000F070600499C96AB0EB016F04D0FFE7BD
:101ED00001208DF8170006E0FFE7FFE7FFE700208D
:101EE0008DF81700FFE79DF8170006B080BD0000D1
:101EF00081B0009001B0704781B0009001B0704790
:101F000085B003900291FFE7039890F83C00012808
:101F100004D1FFE702208DF813007EE00399012031
:101F200081F83C00FFE7FFE70399022081F83D00BC
:101F300003980068406801900398006880680090EA
:101F4000019820F070000190029801680198084300
:101F5000019001980399096848600398006800217E
:101F6000C4F2010188423CD0FFE703980068B0F159
:101F7000804F36D0FFE70398006840F20041C4F27A
:101F8000000188422DD0FFE70398006840F6000169
:101F9000C4F20001884224D0FFE70398006840F6AD
:101FA0000041C4F2000188421BD0FFE7039800689B
:101FB00040F20041C4F20101884212D0FFE70398C9
:101FC000006844F20001C4F20101884209D0FFE731
:101FD0000398006841F60001C4F2000188420ED166
:101FE000FFE7009820F08000009002984168009878
:101FF000084300900098039909688860FFE70399F7
:10200000012081F83D00FFE70399002081F83C00A2
:10201000FFE700208DF81300FFE79DF8130005B0DF
:102020007047000080B582B00090009820B9FFE7AB
:1020300001208DF807003FE0009890F83D0040B97E
:10204000FFE70099002081F83C00009800F038F884
:10205000FFE70099022081F83D00009951F8040B38
:1020600001F044F80099012081F84600FFE700994B
:10207000012081F83E00009981F83F00009981F825
:102080004000009981F84100FFE7FFE70099012037
:1020900081F84200009981F84300009981F84400DA
:1020A000009981F84500FFE70099012081F83D0083
:1020B00000208DF80700FFE79DF8070002B080BD03
:1020C00080B586B00590059800680021C4F2010132
:1020D00088421BD1FFE7FFE70020049043F644004D
:1020E000C4F20200016841F001010160006800F0E3
:1020F000010004900498FFE7192002900022114685
:10210000FFF78CF90298FFF77FF924E00598006843
:1021100040F20041C4F2000188421BD1FFE7FFE713
:102120000020039043F64000C4F20200016841F031
:1021300002010160006800F0020003900398FFE7CD
:102140001D20019000221146FFF768F90198FFF762
:102150005BF9FFE7FFE706B080BD000083B00190A8
:10216000019890F83D00012804D0FFE701208DF888
:102170000B006AE00199022081F83D000198016896
:10218000C86840F00100C860019800680021C4F2EE
:10219000010188423CD0FFE701980068B0F1804F10
:1021A00036D0FFE70198006840F20041C4F2000118
:1021B00088422DD0FFE70198006840F60001C4F284
:1021C0000001884224D0FFE70198006840F60041F2
:1021D000C4F2000188421BD0FFE70198006840F27A
:1021E0000041C4F20101884212D0FFE70198006863
:1021F00044F20001C4F20101884209D0FFE70198CE
:10220000006841F60001C4F20001884212D1FFE7E4
:1022100001980068806800F0070000900098062888
:1022200007D0FFE701980168086840F001000860E6
:10223000FFE706E001980168086840F001000860C7
:10224000FFE700208DF80B00FFE79DF80B0003B0BF
:102250007047000080B586B00490039100208DF88F
:102260000B00FFE7049890F83C00012804D1FFE739
:1022700002208DF81700ABE00499012081F83C00A2
:10228000FFE7FFE70499022081F83D000498006809
:1022900080680190019820F077000190019820F467
:1022A0007F4001900198049909688860039800684C
:1022B0000090002872D0FFE7009810286ED0FFE74A
:1022C000009820286AD0FFE70098302866D0FFE702
:1022D0000098402855D0FFE70098502837D0FFE7F6
:1022E0000098602840D0FFE7009870280BD0FFE7E7
:1022F0000098B0F5805F05D0FFE70098B0F5005F6B
:1023000016D052E055E004980068039B5A6899681B
:10231000DB6800F0D9FF049800688068019001989C
:1023200040F077000190019804990968886040E0C6
:1023300004980068039B5A689968DB6800F0C4FF42
:1023400004980168886840F48040886031E004980F
:102350000068039A5168D26801F0A2F904980068F5
:10236000502100F0CBFF24E004980068039A5168E4
:10237000D26801F0BDF904980068602100F0BEFF4A
:1023800017E004980068039A5168D26801F088F950
:1023900004980068402100F0B1FF0AE0049800684A
:1023A0000399096800F0AAFF03E001208DF80B00F3
:1023B000FFE70499012081F83D00FFE70499002020
:1023C00081F83C00FFE79DF80B008DF81700FFE750
:1023D0009DF8170006B080BD81B0009001B0704735
:1023E00080B584B0039003980068C0680290039899
:1023F0000068006901909DF804008007002824D53A
:10240000FFE79DF80800800700281DD5FFE7039827
:1024100001686FF0020008610399012008770398B2
:1024200000688069800720B1FFE70398FFF7D4FFB9
:1024300006E0039800F016F9039800F00BFAFFE7A6
:10244000039900200877FFE7FFE79DF804004007A5
:10245000002825D5FFE79DF80800400700281ED575
:10246000FFE7039801686FF00400086103990220F8
:10247000087703980068806910F4407F04D0FFE774
:102480000398FFF7A9FF06E0039800F0EBF8039824
:1024900000F0E0F9FFE7039900200877FFE7FFE786
:1024A0009DF804000007002824D5FFE79DF80800E8
:1024B000000700281DD5FFE7039801686FF00800AA
:1024C000086103990420087703980068C0698007B1
:1024D00020B1FFE70398FFF77FFF06E0039800F0C5
:1024E000C1F8039800F0B6F9FFE7039900200877D8
:1024F000FFE7FFE79DF80400C006002825D5FFE7A9
:102500009DF80800C00600281ED5FFE70398016863
:102510006FF010000861039908200877039800689D
:10252000C06910F4407F04D0FFE70398FFF754FF21
:1025300006E0039800F096F8039800F08BF9FFE7A7
:10254000039900200877FFE7FFE79DF80400C00724
:1025500078B1FFE79DF80800C00748B1FFE703988E
:1025600001686FF001000861039800F05DFAFFE771
:10257000FFE79DF804000006002810D5FFE79DF84E
:1025800008000006002809D5FFE7039801686FF0EE
:10259000800008610398FFF7ABFCFFE7FFE79DF8B9
:1025A00004004006002810D5FFE79DF8080040060B
:1025B000002809D5FFE7039801686FF04000086123
:1025C000039800F05BFBFFE7FFE79DF8040080063F
:1025D000002810D5FFE79DF808008006002809D5DF
:1025E000FFE7039801686FF0200008610398FFF788
:1025F00083FCFFE7FFE704B080BD000080B588B032
:102600000790002006900590049003900290079890
:10261000006840F20041C4F20001884220D1FFE787
:10262000FFE70020019043F63000C4F20200016889
:1026300041F001010160006800F001000190019883
:10264000FFE7C02002900220039000210491059131
:1026500006900020C4F2020002A9FEF71DFCFFE76D
:1026600008B080BD81B0009001B0704780B586B0E1
:1026700004900391029200208DF80700FFE7049870
:1026800090F83C00012804D1FFE702208DF81700E4
:1026900089E00499012081F83C00FFE7FFE70298F8
:1026A00000900C2800F270800099DFE801F0076DBF
:1026B0006D6D206D6D6D3A6D6D6D53000498006801
:1026C000039900F031FE04980168886940F0080021
:1026D000886104980168886920F004008861039883
:1026E00002690498016888691043886150E0049881
:1026F0000068039900F08EFE04980168886940F430
:102700000060886104980168886920F480608861AD
:102710000398026904980168886940EA0220886188
:1027200036E004980068039900F0EEFE0498016812
:10273000C86940F00800C86104980168C86920F0C1
:102740000400C8610398026904980168C8691043CD
:10275000C8611DE004980068039900F04FFF0498D9
:102760000168C86940F40060C86104980168C869DC
:1027700020F48060C8610398026904980168C86900
:1027800040EA0220C86103E001208DF80700FFE75E
:10279000FFE70499002081F83C00FFE79DF807005F
:1027A0008DF81700FFE79DF8170006B080BD000008
:1027B00080B582B00090009820B9FFE701208DF825
:1027C00007003FE0009890F83D0040B9FFE700990E
:1027D000002081F83C00009800F038F8FFE70099ED
:1027E000022081F83D00009951F8040B00F07EFCB6
:1027F0000099012081F84600FFE70099012081F847
:102800003E00009981F83F00009981F8400000994E
:1028100081F84100FFE7FFE70099012081F84200BD
:10282000009981F84300009981F84400009981F8EB
:102830004500FFE70099012081F83D0000208DF858
:102840000700FFE79DF8070002B080BD81B000904F
:1028500001B0704781B0009001B0704780B58CB076
:102860000A900991099828B9FFE70A9890F83E0064
:1028700007901CE00998042805D1FFE70A9890F812
:102880003F00069010E00998082805D1FFE70A9854
:1028900090F84000059004E00A9890F841000590F7
:1028A000FFE705980690FFE706980790FFE707986F
:1028B000012804D0FFE701208DF82F00AFE0099830
:1028C00028B9FFE70A99022081F83E001EE0099826
:1028D000042806D1FFE70A99022081F83F000490FE
:1028E00012E00998082806D1FFE70A99022081F82A
:1028F0004000039005E00A99022081F8410003900E
:10290000FFE703980490FFE70498FFE70A98006840
:1029100009990122019200F0BBFC01980A9909680B
:102920000022C4F20102914202900CD0FFE70A9803
:1029300000684FF60041CBF6FE710844B0FA80F013
:1029400040090290FFE70298C00738B1FFE70A98F4
:102950000168486C40F400404864FFE70A9800684A
:102960000021C4F2010188423CD0FFE70A980068C8
:10297000B0F1804F36D0FFE70A98006840F200417E
:10298000C4F2000188422DD0FFE70A98006840F6A3
:102990000001C4F20001884224D0FFE70A980068D1
:1029A00040F60041C4F2000188421BD0FFE70A98BC
:1029B000006840F20041C4F20101884212D0FFE7F2
:1029C0000A98006844F20001C4F20101884209D06B
:1029D000FFE70A98006841F60001C4F2000188424E
:1029E00012D1FFE70A980068806800F0070008909D
:1029F0000898062807D0FFE70A980168086840F0A1
:102A000001000860FFE706E00A980168086840F0E6
:102A100001000860FFE700208DF82F00FFE79DF818
:102A20002F000CB080BD000080B58AB009900998D5
:102A3000006840F20041C4F20101884203D1FFE77F
:102A4000FEF724FCFFE7099800680021C4F20101A9
:102A5000884240F01181FFE740F24000C2F20000DE
:102A60000068002840F08480FFE740F20800C2F2CE
:102A7000000001680A310160006842F2D842C0F2E9
:102A8000061247F6D501C2F2E96100FB01204FEAC8
:102A9000F00048F63611C0F2410188421ED8FFE727
:102AA00044F27041C0F6000107914EF62070C92231
:102AB0000892FDF7E7FE44F26440C0F6000001F022
:102AC0003FF80799089A4FF46F40FDF7DBFE40F29C
:102AD0004001C2F2000101200860FFE740F2080057
:102AE000C2F20000026848F21F50C5F2EB1052FB20
:102AF00000F1881100EBD170C82100FB112064287F
:102B00000ED1FFE70020C4F202000690102101223E
:102B1000FEF79EFB069820210022FEF799FB26E097
:102B200040F20800C2F2000000684BF65002C0F20A
:102B30001E5245F62941CCF28F2100FB01204FEABD
:102B4000F0004AF61461C0F2471188420ED8FFE740
:102B50000020C4F20200059010210022FEF778FB4D
:102B6000059820210122FEF773FBFFE7FFE782E0D3
:102B700040F20800C2F2000001680A3901600068F2
:102B800042F2D842C0F2061247F6D501C2F2E9611C
:102B900000FB01204FEAF00048F63611C0F2410177
:102BA00088421ED8FFE744F27041C0F6000103914D
:102BB0004EF62070D1220492FDF764FE44F2644088
:102BC000C0F6000000F0BCFF0399049A4FF46F4078
:102BD000FDF758FE40F24001C2F2000100200860FB
:102BE000FFE740F20800C2F20000026848F21F50FE
:102BF000C5F2EB1052FB00F1881100EBD170C82137
:102C000000FB112064280ED1FFE70020C4F202006F
:102C1000029010210122FEF71BFB029820210022C6
:102C2000FEF716FB26E040F20800C2F20000006842
:102C30004BF65002C0F21E5245F62941CCF28F21CC
:102C400000FB01204FEAF0004AF61461C0F2471180
:102C500088420ED8FFE70020C4F202000190102144
:102C60000022FEF7F5FA019820210122FEF7F0FA82
:102C7000FFE7FFE7FFE7FFE70AB080BD81B0009004
:102C800001B07047FFE7FEE780B541F2C010C2F225
:102C900000000C3000F014FE80BD000080B541F251
:102CA000C010C2F20000083000F00AFE80BD000033
:102CB00089B007900691079800680590FFE79DF896
:102CC00017004007002803D5FFE70020089032E0F6
:102CD0000698059901F00041084340F08060049097
:102CE000FFE7079B049803900599DDF80CC053E8B3
:102CF000000F084503D143E800C2002AF7D1009035
:102D0000401AB0FA80F04009BFF35F8F014601918D
:102D100018B9FFE700980590FFE7019800F001005F
:102D20008DF80B009DF80B00C0070028C7D0FFE707
:102D300004980890FFE7089809B0704780B58AB0FA
:102D4000002009900890079006900590FFE700206A
:102D5000049043F63000C4F20200016841F08001A3
:102D60000160006800F0800004900498FFE7FFE72E
:102D70000020039043F63000C4F20200016841F0E5
:102D800001010160006800F0010003900398FFE773
:102D90000020C4F2020002904FF4987100910022CA
:102DA0000192FEF755FA009A0199029805920122C4
:102DB00006920791089105A9FEF76EF80AB080BD4A
:102DC00080B588B00021009107910691059104918A
:102DD0000391029140F24400C2F2000001900022EF
:102DE000C4F201020260A7224260816042F20F72C7
:102DF000C260016141618161FFF714F918B1FFE719
:102E0000FDF7D0FCFFE74FF48050049040F24400FF
:102E1000C2F2000004A9FFF71DFA18B1FFE7FDF7A1
:102E2000C1FCFFE700200290039040F24400C2F290
:102E3000000002A9FFF764F818B1FFE7FDF7B2FC44
:102E4000FFE740F24400C2F20000FFF7EDFD08B0DA
:102E500080BD000080B590B0002002900F900E90D1
:102E60000D900C900B900A90099008900790069096
:102E700005900490039040F24400C2F20000FFF776
:102E80006DF9029940F28C00C2F2000040F200425B
:102E9000C4F20002026053224260816040F2E732D5
:102EA000C260016180218161FFF7BCF818B1FFE7C2
:102EB000FDF778FCFFE74FF480500C9040F28C0057
:102EC000C2F200000CA9FFF7C5F918B1FFE7FDF742
:102ED00069FCFFE740F28C00C2F20000FFF768FCDB
:102EE00018B1FFE7FDF75EFCFFE700200A900B90AA
:102EF00040F28C00C2F200000AA9FFF701F818B1F5
:102F0000FFE7FDF74FFCFFE76020039000220492EB
:102F10000592079240F28C00C2F2000003A9FFF76D
:102F2000A5FB18B1FFE7FDF73DFCFFE740F28C0081
:102F3000C2F2000003A90422FFF798FB18B1FFE7D3
:102F4000FDF730FCFFE740F28C00C2F20000019078
:102F50000021FFF783FC01980421FFF77FFC019813
:102F6000FFF74CFB10B080BDFFE7FEE7FFE7FEE791
:102F700088B0079006910592079800F0070004902A
:102F80000498C0F10700052803D3FFE7042001904F
:102F900004E00498C0F107000190FFE70198039056
:102FA00004980430062803D8FFE70020009003E0CF
:102FB000049803380090FFE7009802900698039960
:102FC000012202FA01F101390840029B984005995B
:102FD0009A40013A1140084308B07047704700001A
:102FE000704700007047000080B594B008A83021F9
:102FF000FDF730F9002007900690059004900390AB
:10300000FFE70020029043F64000C4F2020001688E
:1030100041F080510160006800F0805002900298F9
:10302000FFE7FFE70020019047F20000C4F2000034
:10303000016841F480410160006800F48040019023
:103040000198FFE7012008904FF48030099002209A
:103050000E904FF480010F91192110914FF4A87137
:10306000119112900420139008A8FEF7E1FB18B10B
:10307000FFE7FDF797FBFFE70F2003900220049086
:10308000002005904FF4A05006904FF48050079018
:1030900003A80521FEF7E4F918B1FFE7FDF782FB6D
:1030A000FFE714B080BD00004EF68851CEF200015B
:1030B000086840F4700008607047000080B540F276
:1030C0004400C2F20000FFF78BF980BD80B540F2EA
:1030D0008C00C2F20000FFF783F980BD80B540F29A
:1030E000D400C2F20000FFF77BF980BD83B00290EC
:1030F000019102980068009002980021C4F2010139
:10310000884225D0FFE70298B0F1804F20D0FFE73A
:10311000029840F20041C4F20001884218D0FFE753
:10312000029840F60001C4F20001884210D0FFE787
:10313000029840F60041C4F20001884208D0FFE73F
:10314000029840F20041C4F2010188420AD1FFE72F
:10315000009820F0700000900198416800980843A2
:103160000090FFE702980021C4F20101884255D087
:10317000FFE70298B0F1804F50D0FFE7029840F28D
:103180000041C4F20001884248D0FFE7029840F6AF
:103190000001C4F20001884240D0FFE7029840F6E7
:1031A0000041C4F20001884238D0FFE7029840F2A3
:1031B0000041C4F20101884230D0FFE7029844F296
:1031C0000001C4F20101884228D0FFE7029844F2CE
:1031D0000041C4F20101884220D0FFE7029844F682
:1031E0000001C4F20101884218D0FFE7029841F6BD
:1031F0000001C4F20001884210D0FFE7029841F6B6
:103200000041C4F20001884208D0FFE7029842F270
:103210000001C4F2000188420AD1FFE7009820F4BF
:10322000407000900198C168009808430090FFE743
:10323000009820F0800001994969084300900198A6
:1032400080680299C86201980068029988620298B1
:103250000021C4F20101884208D0FFE7029840F241
:103260000041C4F20101884205D1FFE701980069DD
:1032700002990863FFE70299086840F004000860BB
:1032800002990120486100980299086003B07047D4
:1032900084B0039002910192029800F01F01012076
:1032A00088400090009A0399086A90430862019848
:1032B000029901F01F0100FA01F20399086A104314
:1032C000086204B07047000085B004900391029238
:1032D0000193049880680090009820F47F4000904B
:1032E00003980299019A41EA022101430098084398
:1032F000009000980499886005B0704783B00290F0
:103300000191029880680090009820F07000009071
:1033100001980099084340F0070000900098029936
:10332000886003B07047000085B004900391049852
:10333000006A01900499086A20F00100086204986C
:1033400040680090049880690290029820F0700014
:103350000290029820F003000290039801680298FE
:1033600008430290019820F00200019003988168C0
:1033700001980843019004980021C4F20101884299
:1033800008D0FFE7049840F20041C4F201018842EE
:103390000ED1FFE7019820F0080001900398C16862
:1033A000019808430190019820F004000190FFE784
:1033B00004980021C4F20101884208D0FFE7049874
:1033C00040F20041C4F20101884213D1FFE70098A6
:1033D00020F480700090009820F400700090039812
:1033E0004169009808430090039881690098084358
:1033F0000090FFE70098049948600298049988615A
:10340000039840680499486301980499086205B0DC
:103410007047000085B0049003910498006A019001
:103420000499086A20F0100008620498406800902F
:10343000049880690290029820F4E040029002987B
:1034400020F44070029003980168029840EA01203D
:103450000290019820F02000019003988168019863
:1034600040EA0110019004980021C4F20101884251
:1034700008D0FFE7049840F20041C4F201018842FD
:103480000FD1FFE7019820F0800001900398C168F8
:10349000019840EA01100190019820F0400001904D
:1034A000FFE704980021C4F20101884208D0FFE739
:1034B000049840F20041C4F20101884215D1FFE7AF
:1034C000009820F480600090009820F40060009044
:1034D00003984169009840EA81000090039881694F
:1034E000009840EA81000090FFE700980499486046
:1034F0000298049988610398406804998863019848
:103500000499086205B0704785B00490039104984F
:10351000006A01900499086A20F480700862049897
:10352000406800900498C0690290029820F07000F2
:103530000290029820F0030002900398016802981C
:1035400008430290019820F400700190039881686C
:10355000019840EA0120019004980021C4F2010181
:10356000884208D0FFE7049840F20041C4F201010C
:1035700088420FD1FFE7019820F400600190039882
:10358000C168019840EA01200190019820F4806010
:103590000190FFE704980021C4F20101884208D09D
:1035A000FFE7049840F20041C4F20101884215D1BE
:1035B000FFE7009820F480500090009820F400501D
:1035C000009003984169009840EA01100090039828
:1035D0008169009840EA01100090FFE70098049983
:1035E000486002980499C861039840680499C863C8
:1035F00001980499086205B07047000085B00490F6
:1036000003910498006A01900499086A20F480509C
:1036100008620498406800900498C069029002987B
:1036200020F4E0400290029820F440700290039849
:103630000168029840EA01200290019820F40050AD
:10364000019003988168019840EA01300190049844
:103650000021C4F20101884208D0FFE7049840F23B
:103660000041C4F2010188420BD1FFE7009820F429
:103670008040009003984169009840EA81100090D2
:10368000FFE700980499486002980499C86103987C
:1036900040680499086401980499086205B070476D
:1036A00085B00490039102920498006A00900499F6
:1036B000086A20F00100086204988069019001986E
:1036C00020F0F00001900299019840EA0110019069
:1036D000009820F00A000090039900980843009099
:1036E00001980499886100980499086205B07047B0
:1036F00085B00490039102920498006A00900499A6
:10370000086A20F01000086204988069019001980E
:1037100020F4704001900299019840EA0130019034
:10372000009820F0A00000900399009840EA011052
:10373000009001980499886100980499086205B086
:103740007047000089B008900791079820F08060CA
:103750000690089801900699059105990291BFF38A
:103760005F8F00680390FFE70399019BDDF808C0B5
:1037700053E8000F084503D143E800C2002AF7D1FF
:103780000090411AB1FA81F1490901290390EBD166
:10379000FFE70098049009B070470000FFE7FEE7DC
:1037A00081B08DF803009DF9030000280ED4FFE7D7
:1037B0009DF9031001F01F02012090404A094EF2CA
:1037C0000011CEF2000141F82200FFE701B070477E
:1037D0004EF60C50CEF200000068C0F30220704795
:1037E00082B08DF8070000919DF9070000280AD4E7
:1037F000FFE7009800019DF907104EF20042CEF25B
:10380000000288540BE0009800019DF8071001F0B9
:103810000F014EF61452CEF200028854FFE702B0B8
:103820007047000083B00290029800F007000090FB
:103830004EF60C51CEF200010868019001984FF647
:10384000FF02104001900198009A40EA02200022F5
:10385000C0F2FA52104301900198086003B070471B
:1038600088B0079006910592079B069800900599ED
:1038700004910168DDF810C0BFF35F8F53E8000FBB
:10388000084503D143E800C2002AF7D10190401A4D
:10389000B0FA80F04009BFF35F8F0146029120B972
:1038A000FFE7019800990860FFE7029800F0010027
:1038B0008DF80F009DF80F0000F0010008B0704770
:1038C00087B0069006980190012105910599029113
:1038D00000680390FFE70399019B029801EB000C3D
:1038E00053E8000F084503D143E800C2002AF7D18E
:1038F0000090411AB1FA81F1490901290390EAD1F6
:10390000FFE700980490049807B0704786B00590D0
:103910000598019001218DF813109DF81310029164
:1039200000780390FFE70399019B029801EB000CDC
:10393000C9B2D3E84F0F084503D1C3E842CF002AEC
:10394000F7D10090C9B2411AB1FA81F149090129B0
:103950000390E8D1FFE700988DF812009DF812005F
:1039600006B0704784B0039002914FF6FF70ADF837
:103970000600FFE7029890B3FFE70398411C03910C
:103980000178BDF8060080EA0120ADF806000820A5
:103990000090FFE70098F0B1FFE7BDF806000004D3
:1039A00000280DD5FFE7BDF806004000ADF8060081
:1039B000BDF8060041F221014840ADF8060005E0DF
:1039C000BDF806004000ADF80600FFE7FFE70098ED
:1039D00001380090DEE7029801380290CAE7BDF88E
:1039E000060004B07047000080B584B002900191D9
:1039F000019840F20001C2F20001884205D1FFE7C0
:103A0000029800F05FF8039003E04FF0FF3003905E
:103A1000FFE7039804B080BD80B584B00020029019
:103A200003900F2001210191FDF7E0F8FDF7BAF9AD
:103A3000FDF73AFCFFF7D8FAFFF780F9FFF7C0F976
:103A4000FFF708FA0520FCF785FE029A0020C4F271
:103A5000020000901021FDF7FBFB0098019A202145
:103A6000FDF7F6FB029840F28C01C2F200010A68F1
:103A7000506309688863FFE740F20800C2F2000063
:103A8000026848F21F50C5F2EB1052FB00F108111A
:103A900000EBD170322100FB1120192811DCFFE767
:103AA00040F20800C2F200000168C1F57A7240F2EB
:103AB0008C01C2F200010B689A63006809684863D0
:103AC000FFE7D9E780B584B0029041F2EC10C2F272
:103AD00000000068082804D3FFE74FF0FF30039090
:103AE0002BE0029941F2EC10C2F2000003685A1C6C
:103AF000026041F2E412C2F20002D15400680828C8
:103B000004D0FFE702980A2814D1FFE741F2EC1035
:103B1000C2F200000190026841F2E411C2F2000119
:103B20004FF60060C0F20200FCF7DAFE01990020B7
:103B30000860FFE702980390FFE7039804B080BD98
:103B40000FB4054B10B503A9044A029800F0DAF847
:103B500010BC5DF814FB0000E939000800000020EB
:103B600002E008C8121F08C1002AFAD17047704746
:103B7000002001E001C1121F002AFBD170470000A4
:103B80002DE9FF5F82B00021DDE90430020DDDF890
:103B900040B0034318D044F61050A2F2FF32424323
:103BA0001514119801281FD0A5EB0B00401C5FEAEB
:103BB000000A4FF000064E4FDFF83891B0465046ED
:103BC00015D5CAF1000413E0119801244AA3012875
:103BD00001D16FEA0B010298119AC0E90031C0E9E6
:103BE000024206B0BDE8F09FCBF10000DFE70446DB
:103BF0000021404A491842EB0450CDE9001012E080
:103C0000E00707D032463B4640464946FCF709FCF0
:103C10008046894632463B4610461946FCF701FC71
:103C200006460F466410002CEAD1DDE90401DDE907
:103C30000023BAF1000F06DAFCF7F3FB42464B46CD
:103C4000FCF7EFFB05E0FCF75EFC42464B46FCF759
:103C50005AFC04460E460022284BFCF7DBFC03D836
:103C60004FF0FF30014607E00022254B2046314649
:103C7000FCF730FBFCF7B6FC102409E0002C0ADB53
:103C80000A220023FCF79CFA039B30321A55641E6B
:103C900050EA0102F2D1641C039AC4F111031444E6
:103CA000119A012A03D0012208430DD10AE00843EA
:103CB00004D000204FF0110B119072E7A3EB0B051D
:103CC0006D1E0DE05B4504DD4FF0000205F10105BE
:103CD00004E003DA4FF00002A5F10105002AECD060
:103CE00002981199C0E90231C0E9004579E7000066
:103CF000000014400000F03F300000000000F043DE
:103D00000000E03F2DE9FF4F95B09B4689460646EF
:103D100000250FE2252877D100242746F84A012103
:103D2000059400E0044316F8013F203B01FA03F03C
:103D30001042F7D130782A2811D06FF02F03307855
:103D4000A0F13002092A16D8059A44F0020402EBC9
:103D5000820203EB42021044761C0590EFE759F80B
:103D6000042B0592002A03DA504244F400540590D3
:103D700044F00204761C30782E2816D116F8010F74
:103D800044F004042A280DD06FF02F023078A0F1FF
:103D90003003092B09D807EB870302EB4303C7184D
:103DA000761CF3E759F8047B761C30786C280FD02A
:103DB00006DC4C2817D068280DD06A2814D104E0FE
:103DC000742810D07A280FD10DE044F400140AE0D2
:103DD00044F4801401E044F440147278824202D129
:103DE00004F58014761C761C307866280BD013DC22
:103DF000582877D009DC002875D04528F6D0462809
:103E0000F4D047281AD19DE118E0632835D0642802
:103E100079D0652812D195E1702873D008DC672825
:103E2000F1D069286FD06E280DD06F2806D1B5E08B
:103E300073282CD0752875D0782874D05A461799D5
:103E400090476D1C75E1C4F30250022809D0032885
:103E50000DD0D9F8001004280DD00D6009F1040927
:103E600067E1D9F80010EA17C1E90052F6E7D9F87E
:103E700000100D80F2E70D70F0E719F8041B8DF8C3
:103E8000001000208DF80100EA46012003E059F8F7
:103E900004AB4FF0FF3061074FF0000102D40DE09A
:103EA00008F101018846B9420FDA8045F8DB1AF8BB
:103EB00008100029F4D108E008F101018846814288
:103EC000FADB1AF808100029F6D105985B46A0EB3A
:103ED000080721463846179A00F094FA284400EB68
:103EE000080507E04DE029E10DE01AF8010B5A46FC
:103EF00017999047B8F10108F7D25B46214638463A
:103F0000179A13E142E00A220092C4F302524FF0E2
:103F1000000A022A08D059F804CB032A4FEAEC71B0
:103F20000AD00DE029E02AE009F1070121F007029B
:103F3000F2E802C1914609E00FFA8CFC4FEAEC71FD
:103F4000042A03D14FFA8CFC4FEAEC71002907DAFE
:103F50000A460021DCF1000C61EB02012D2202E097
:103F6000220504D52B228DF80420012203E0E2076C
:103F700001D02022F7E7904659E00A2102E0102202
:103F80000DE010214FF0000A00910BE010224FF0DD
:103F9000000A44F004040827009203E008224FF0CE
:103FA000000A0092C4F30252022A05D059F804CB49
:103FB0000021032A08D009E009F1070121F00702D6
:103FC000F2E802C1914605E01FFA8CFC042A01D1F7
:103FD0000CF0FF0C4FF00008220728D5702806D0FF
:103FE000009B83F0100353EA0A0305D00EE0402241
:103FF0008DF80420012208E05CEA010206D030229C
:104000008DF804208DF8050002229046009B83F075
:10401000080353EA0A030AD15CEA010201D16207EC
:1040200005D530228DF804204FF001087F1E582856
:1040300004D034A003900EA802900DE036A0F9E75A
:1040400053466046009AFCF7BBF884460398825CAE
:104050000298401E029002705CEA0100F0D10298C2
:1040600006A9081A00F1200A600702D524F480345A
:1040700000E00127574502DDA7EB0A0000E0002021
:1040800000EB0A01009005984144401A0590E003B6
:1040900006D45B462146179A059800F0B3F905440B
:1040A000002706E001A85A46C05D179990476D1C8D
:1040B0007F1C4745F6DBE0030CD55B462146179A8B
:1040C000059800F09FF9054404E030205A461799FE
:1040D00090476D1C0099481E00900029F5DC08E00F
:1040E000029802995A460078491C02911799904704
:1040F0006D1CBAF10001AAF1010AF1DC65E10000D2
:1041000009280100303132333435363738396162AD
:104110006364656600000000303132333435363771
:1041200038394142434445460000000000F058F948
:104130000544761C307800287FF4ECAD19B0284691
:10414000BDE8F08F620700D4062709F1070222F0CC
:10415000070CFCE80223E14603F000485FEA080C84
:1041600002D00FF2702C0DE05FEA045C02D50FF272
:10417000682C07E05FEAC47C02D00FF2602C01E0FB
:10418000AFF2700C4FF0FF3823F00043CDF850C071
:1041900065280CD006DC452809D046281DD04728C4
:1041A0003DD13DE0662818D067287ED138E0002157
:1041B000112F01DB112000E0781CCDE9000106A9D8
:1041C0000EA8FFF7DDFCDDE90F010E9A0391002137
:1041D000009207F1010A04914DE04FF00040009772
:1041E000CDE9011006A90EA8FFF7CAFCDDE90F0210
:1041F00003920E9B11990022DDF80CA0009304920B
:1042000011B9791C00EB010AB7EB0A0004D4C0F124
:10421000FF3007F1010A0490AAEB0700019044E087
:10422000012F00DA01270021112F01DD112000E00C
:104230003846CDE9000106A90EA8FFF7A1FCDDE98B
:104240000F010E9A0391002104910092BA462107B2
:104250000CD40399514500DA8A46BAF1010F05DD05
:10426000009AAAF10101515C302908D0B84202DA63
:1042700010F1040F06DA0121CDE9011015E0AAF1D1
:104280000101E9E7002805DC049901440491AAEB47
:10429000000102E0411C514500DD8A460499401AA4
:1042A000401C01904FF000400290200704D4019878
:1042B000504501DBCDF8048000208DF84F000298B6
:1042C0000DF14F07B0F1004F25D02B200E90029832
:1042D0004FF0020800280CDA404202902D200E9088
:1042E00007E00A210298FBF7C0FF3031029007F87F
:1042F000011DB8F10001A8F10108F2DC02980028C4
:10430000EFD1791E0E980870307800F0200040F050
:10431000450007F8020D12A8C01B00F10708149809
:10432000007800B1012000EB0A01019801EBE07177
:1043300005984144401A401E0590E00306D45B46B0
:104340002146179A059800F05DF805441498007806
:1043500018B15A46179990476D1CE00324D55B4667
:104360002146179A059800F04DF805441CE0049882
:10437000002807DBDDE90301884203DD0098405C8B
:10438000179901E0179930205A469047049805F193
:104390000105401C04900198401E019004D12E207C
:1043A0005A46179990476D1CBAF10001AAF1010A0B
:1043B000DDDC05E017F8010B5A46179990476D1C94
:1043C000B8F10001A8F10108F4DC5B462146179A18
:1043D0000598ABE62D0000002B0000002000000037
:1043E0002DE9F041044600251E461746880404D4F2
:1043F00005E039462020B0476D1C641EF9D52846DB
:10440000BDE8F0812DE9F041044600251E469046A6
:10441000C80301D5302700E02027880404D505E033
:1044200041463846B0476D1C641EF9D52846BDE8A4
:10443000F0810000000000000000010203040607F4
:10444000080900000000010203040000010001014E
:10445000000100004001002040110020C011002098
:104460000000000054494D315F427265616B0A00E3
:104470002E2E2F436F72652F5372632F6D61696EFD
:104480002E630000C044000800000020400000002F
:10449000603B00080045000840000020B8190000FB
:1044A000703B000800000000000000000000000059
:1044B00000000000000000000000000000000000FC
:1044C000000000000024F4002800000001000000AB
:1044D00010000000000000000000000000000000CC
:1044E00000000000000000000000000000000000CC
:1044F00000000000000000000000000000000000BC
:040000050800018965
:00000001FF
