:020000040800F2
:10000000681900209D0100089D250008AD24000806
:100010009925000845030008B527000800000000E6
:10002000000000000000000000000000A5250008FE
:100030004903000800000000A1250008A9250008C8
:10004000B7010008B7010008B7010008B7010008B0
:10005000B7010008B7010008B7010008B7010008A0
:10006000B7010008B7010008B7010008B701000890
:10007000B7010008B7010008B7010008B701000880
:10008000B7010008B7010008B7010008B701000870
:10009000B7010008B7010008B7010008B701000860
:1000A000B7010008B7010008B7010008B701000850
:1000B000B7010008B7010008B7010008B701000840
:1000C000B7010008B7010008B7010008B701000830
:1000D000B7010008B7010008B7010008B701000820
:1000E000B7010008B7010008B7010008B701000810
:1000F0006D260008B7010008B7010008B701000825
:10010000B7010008B7010008B7010008B7010008EF
:10011000B7010008B7010008B7010008B7010008DF
:10012000B7010008B7010008B7010008B7010008CF
:10013000B70100080000000000000000B70100083F
:10014000B7010008B7010008B7010008B7010008AF
:10015000B7010008B7010008B7010008B70100089F
:10016000B7010008B7010008B7010008B70100088F
:10017000B7010008B70100080000000000000000FF
:10018000B7010008B7010008DFF80CD000F0A2F8B2
:1001900000480047D127000868190020064880471A
:1001A00006480047FEE7FEE7FEE7FEE7FEE7FEE75C
:1001B000FEE7FEE7FEE7FEE7592600088901000892
:1001C0002DE9F05F0546002092469B46884606468C
:1001D000814640241BE0284641464746224600F01F
:1001E00069F853465A46C01A914110D31146184631
:1001F000224600F050F82D1A67EB01084F462246C0
:100200000120002100F047F817EB00094E41201EA5
:10021000A4F10104DFDC484631462A464346BDE8E6
:10022000F09F40EA01039B0703D009E008C9121FB1
:1002300008C0042AFAD203E011F8013B00F8013BA0
:10024000521EF9D27047D2B201E000F8012B491ECC
:10025000FBD270470022F6E710B513460A46044663
:100260001946FFF7F0FF204610BD30B50B4601469A
:1002700000202022012409E021FA02F59D4205D345
:1002800003FA02F5491B04FA02F52844151EA2F1EF
:100290000102F1DC30BD202A04DB203A00FA02F131
:1002A000002070479140C2F1200320FA03F3194364
:1002B00090407047202A04DB203A21FA02F0002106
:1002C000704721FA02F3D040C2F120029140084366
:1002D000194670471CB50948009009480190054629
:1002E000009C06E0E06840F0010394E807009847AE
:1002F0001034AC42F6D3FFF74BFF0000982A0008F9
:10030000B82A00080128B8BF7047B0B50024C4F26D
:100310000204451C20464FF48071012201F09AFB33
:10032000322001F0B3FA20464FF48071002201F030
:1003300091FB322001F0AAFA013D012DEAD8BDE877
:10034000B0407047FEE70000704700002DE9F04123
:1003500041F24017C2F2000790463A78002A4FD087
:100360000D4641F2C0010646C0F3C620C2F20001AC
:10037000085CC6F30221C840C00741D0BC6904E054
:10038000BFF32F8F0022044652BB01F061FA0146F1
:10039000A04215D2EFF3108272B6B869A04203D022
:1003A00052B1A0420CD11BE03B69B96101333B6102
:1003B000BFF35F8F002AF4D162B6A04210D000BF15
:1003C00057E8060FA042DBD1BFF35F8F47E8061264
:1003D000002AD7D1BFF35F8F0122002A0446D4D070
:1003E0003246C0F20802EFF30580002808BFB2B21F
:1003F00002F140702A464346BDE8F04100F0DCB807
:100400000120BDE8F08100002DE9F04782B00646EA
:1004100000294FF0000000F0CC801546B2F5807F37
:1004200000F2C78041F24014C2F200042078002894
:1004300062D08A4641F2C001C6F3C620C2F2000172
:10044000085CC6F30221C840C00755D0A76904E084
:10045000BFF32F8F00220F4652BB01F0F9F9B842CB
:1004600016D2EFF3108272B6A169B94204D05AB124
:10047000B9420DD11CE000BF2369A06101332361A3
:10048000BFF35F8F002AF3D162B6B94210D000BF2C
:1004900054E8061FB942DBD1BFF35F8F44E8060280
:1004A000002AD7D1BFF35F8F0122002A0F46D4D094
:1004B0003746EFF30581C0F20807002908BFB7B23D
:1004C000F5B1092D26D20021CDE900116946064675
:1004D000084651462A46FFF7A4FE05F0070047EA02
:1004E0000040DDE9002300F14070314602B0BDE874
:1004F000F04700F061B800BF012002B0BDE8F0870E
:10050000014638460022002302B0BDE8F04700F063
:1005100053B800BF8046601CD0E84F1F4A1CC0E89B
:10052000432F002BF8D14FF4E02000EA0144DAF821
:100530000020DAF8043047EA040000F180704146F8
:1005400000F03AF8A0B34FF60170083D44EA000904
:10055000092D0AF108040FD326686768484641460A
:1005600032463B4600F028F800B3083D09F1010986
:10057000092D04F10804EFD20020CDE900006846FF
:1005800021462A46FFF74DFEFF20C7F6FF5000EA3E
:10059000090040EA0520DDE9002340F000704146F3
:1005A00002B0BDE8F04700F007B800BFCDE9006732
:1005B000002002B0BDE8F0872DE9F0434FF08057EE
:1005C00007EAD1074FF0005606EA92064FF0804541
:1005D000384305EA5305304341F2401E40EA05091D
:1005E000C2F2000E5EE8014F601C4EE80107002FCA
:1005F000F8D140F2C008E0B2C2F2000808EB001CDB
:1006000060464FF4700650F80C5F06EA04376C0140
:1006100070D405F000443E1950E8004F46EA090640
:10062000AC4246F0406607D140E8006535B9BFF3FB
:100630005F8F012535B14FE3BFF32F8F0025002DCC
:1006400040F04A83650155D404F000457E1950E816
:10065000005F46EA0906A54246F0406608D140E838
:1006600000643CB9BFF35F8F01243CB134E300BFA9
:10067000BFF32F8F0024002C40F02E836C0139D45F
:1006800005F000443E1950E8004F46EA0906AC4226
:1006900046F0406608D140E800653DB9BFF35F8F82
:1006A00001253DB118E300BFBFF32F8F0025002DBA
:1006B00040F0128365011DD404F000457E1950E816
:1006C000005F46EA0906A54246F040660AD140E8C6
:1006D00000644CB9BFF35F8F0124002C3FF497AF47
:1006E000FAE200BFBFF32F8F0024002C3FF48FAF3E
:1006F000F2E200BF5EE8014F601C4EE80107002FE8
:10070000F8D1E0B208EB001C60464FF4700650F8D8
:100710000C5F06EA04376C016AD405F000443E1908
:1007200050E8004F46EA0906AC4246F0406607D161
:1007300040E8006535B9BFF35F8F012503E000BFD6
:10074000BFF32F8F0025002D40F0C68265014FD4E6
:1007500004F000457E1950E8005F46EA0906A5420C
:1007600046F0406606D140E800642CB9BFF35F8FC5
:10077000012402E0BFF32F8F0024002C40F0AC8254
:100780006C0135D405F000443E1950E8004F46EAAC
:100790000906AC4246F0406606D140E800652DB936
:1007A000BFF35F8F012502E0BFF32F8F0025002DDF
:1007B00040F0928265011BD404F000457E1950E898
:1007C000005F46EA0906A54246F0406608D140E8C7
:1007D00000643CB9BFF35F8F0124002C9BD07BE207
:1007E000BFF32F8F0024002C3FF495AF74E200BFBD
:1007F0005EE8014F601C4EE80107002FF8D1E0B21F
:1008000008EB001C60464FF4700650F80C5F06EAD7
:1008100004376C016AD405F000443E1950E8004FDB
:1008200046EA0906AC4246F0406607D140E800655A
:1008300035B9BFF35F8F012503E000BFBFF32F8FF2
:100840000025002D40F0488265014FD404F000459A
:100850007E1950E8005F46EA0906A54246F0406668
:1008600006D140E800642CB9BFF35F8F012402E099
:10087000BFF32F8F0024002C40F02E826C0135D462
:1008800005F000443E1950E8004F46EA0906AC4224
:1008900046F0406606D140E800652DB9BFF35F8F92
:1008A000012502E0BFF32F8F0025002D40F01482B8
:1008B00065011BD404F000457E1950E8005F46EA4C
:1008C0000906A54246F0406608D140E800643CB9FC
:1008D000BFF35F8F0124002C9BD0FDE1BFF32F8F6E
:1008E0000024002C3FF495AFF6E100BF5EE8014F15
:1008F000601C4EE80107002FF8D1E0B208EB001CA5
:1009000060464FF4700650F80C5F06EA04376C013D
:100910006AD405F000443E1950E8004F46EA090643
:10092000AC4246F0406607D140E8006535B9BFF3F8
:100930005F8F012503E000BFBFF32F8F0025002D3F
:1009400040F0CA8165014FD404F000457E1950E89B
:10095000005F46EA0906A54246F0406606D140E837
:1009600000642CB9BFF35F8F012402E0BFF32F8F27
:100970000024002C40F0B0816C0135D405F0004417
:100980003E1950E8004F46EA0906AC4246F0406680
:1009900006D140E800652DB9BFF35F8F012502E065
:1009A000BFF32F8F0025002D40F0968165011BD4E9
:1009B00004F000457E1950E8005F46EA0906A542AA
:1009C00046F0406608D140E800643CB9BFF35F8F51
:1009D0000124002C9BD07FE1BFF32F8F0024002C3B
:1009E0003FF495AF78E100BF5EE8014F601C4EE830
:1009F0000107002FF8D1E0B208EB001C60464FF46D
:100A0000700650F80C5F06EA04376C016AD405F0F2
:100A100000443E1950E8004F46EA0906AC4246F051
:100A2000406607D140E8006535B9BFF35F8F012507
:100A300003E000BFBFF32F8F0025002D40F04C8155
:100A400065014FD404F000457E1950E8005F46EA86
:100A50000906A54246F0406606D140E800642CB97C
:100A6000BFF35F8F012402E0BFF32F8F0024002C1F
:100A700040F032816C0135D405F000443E1950E855
:100A8000004F46EA0906AC4246F0406606D140E80F
:100A900000652DB9BFF35F8F012502E0BFF32F8FF3
:100AA0000025002D40F0188165011BD404F000459D
:100AB0007E1950E8005F46EA0906A54246F0406606
:100AC00008D140E800643CB9BFF35F8F0124002CDB
:100AD0009BD001E1BFF32F8F0024002C3FF495AF92
:100AE000FAE000BF5EE8014F601C4EE80107002FEE
:100AF000F8D1E0B208EB001C60464FF4700650F8E5
:100B00000C5F06EA04376C016AD405F000443E1914
:100B100050E8004F46EA0906AC4246F0406607D16D
:100B200040E8006535B9BFF35F8F012503E000BFE2
:100B3000BFF32F8F0025002D40F0CE8065014FD4EC
:100B400004F000457E1950E8005F46EA0906A54218
:100B500046F0406606D140E800642CB9BFF35F8FD1
:100B6000012402E0BFF32F8F0024002C40F0B4805A
:100B70006C0135D405F000443E1950E8004F46EAB8
:100B80000906AC4246F0406606D140E800652DB942
:100B9000BFF35F8F012502E0BFF32F8F0025002DEB
:100BA00040F09A8065011BD404F000457E1950E89E
:100BB000005F46EA0906A54246F0406608D140E8D3
:100BC00000643CB9BFF35F8F0124002C9BD083E00D
:100BD000BFF32F8F0024002C3FF495AF7CE000BFC3
:100BE0005EE8010F471C4EE80176002EF8D1C7B22F
:100BF00008EB071C4FF4700404EA0038604650F814
:100C00000C7F0EF10C057C0100F18E8007F0004492
:100C100008EB040650E8004F46EA0906BC4246F0DD
:100C2000406607D140E8006737B9BFF35F8F0127FF
:100C300003E000BFBFF32F8F0027002F4CD16601C8
:100C400072D404F00046464450E8007F46EA0906A4
:100C5000A74246F0406607D140E8006434B9BFF3CC
:100C60005F8F012403E000BFBFF32F8F00249CBBE4
:100C70007C0159D407F0004408EB040650E8004F0B
:100C800046EA0906BC4246F0406607D140E80067E4
:100C900037B9BFF35F8F012703E000BFBFF32F8F8A
:100CA0000027CFB966013FD404F00046464450E81F
:100CB000007F46EA0906A74246F0406606D140E8B2
:100CC00000642CB9BFF35F8F012402E0BFF32F8FC4
:100CD0000024002C3FF497AF86F0004404F0004558
:100CE00021F00041294422F0004223F000432A442D
:100CF0002B448CE80E0024F080610EF10805BFF350
:100D00005F8F00BF50E8002F40E80012002AF9D1A1
:100D1000012000BF55E8001F013145E80012002AFC
:100D2000F8D1BDE8F08300BF0020F3E72DE9F047DC
:100D300041F2401A41F2C0058146C2F2000A002089
:100D4000C2F2000588468AF8000028468021FFF795
:100D500081FA42F66C20C0F60000033818214FF6E5
:100D6000FF7341F2210200BF10F8037F83EA0723DB
:100D70001FB25E00002F48BF82EA430633B27700FD
:100D8000002B48BF82EA46073BB27E00002B48BFDB
:100D900082EA470633B27700002B48BF82EA460753
:100DA0003BB27E00002B48BF82EA470633B2770091
:100DB000002B48BF82EA46073BB27E00002B48BFAB
:100DC00082EA470633B27700002B48BF82EA460723
:100DD0004678837887EA06273EB27C00002E48BF1B
:100DE00082EA470427B26600002F48BF82EA440621
:100DF00037B27400002F48BF82EA460427B266006B
:100E0000002F48BF82EA440637B27400002F48BF63
:100E100082EA460427B26600002F48BF82EA4406F1
:100E200037B27400002F48BF82EA460427B266003A
:100E3000002F48BF82EA440686EA03231FB25E0001
:100E4000002F48BF82EA430633B27700002B48BF29
:100E500082EA46073BB27E00002B48BF82EA470683
:100E600033B27700002B48BF82EA46073BB27E00D0
:100E7000002B48BF82EA470633B27700002B48BFF9
:100E800082EA46073BB27E00002B48BF82EA470653
:100E900037B27300002F48BF82EA460303397FF45C
:100EA00063AFDAF8201042F26B70CEF2A5108142E7
:100EB00040F09280BAF8020099B2884240F08E80E9
:100EC000DAF81C00411C0028CAF81C1000F08B80C6
:100ED00040F2C000C2F20000002100BF4218D368F7
:100EE00001F580715F0144BF23F04063D360D36993
:100EF0005F0144BF23F04063D361D36A5F0144BF05
:100F000023F04063D362D36B5F0144BF23F040639F
:100F1000D363D36C5F0144BF23F04063D364D36DCC
:100F20005F0144BF23F04063D365D36E5F0144BFCC
:100F300023F04063D366D36F5F0144BF23F0406367
:100F4000D367D2F88C305F0144BF23F04063C2F80E
:100F50008C30D2F89C305F0144BF23F04063C2F86C
:100F60009C30D2F8AC305F0144BF23F04063C2F83C
:100F7000AC30D2F8BC305F0144BF23F04063C2F80C
:100F8000BC30D2F8CC305F0144BF23F04063C2F8DC
:100F9000CC30D2F8DC305F0144BF23F04063C2F8AC
:100FA000DC30D2F8EC305F0144BF23F04063C2F87C
:100FB000EC30D2F8FC305F0144BF23F04063C2F84C
:100FC000FC30B1F5805F89D100F04EFC07463FBB95
:100FD0003846BDE8F08700BFCAF820000120AAF813
:100FE0000230CAF81C0040F2C0000026C2F2000025
:100FF0004FF480518AF80160CAE90166CAF80C60B2
:10100000FFF728F900F030FC002807460CBF00204D
:1010100000F024FCCAE90460CAF81860002FD7D099
:101020005FEAC97000F09F8000200121C30800F032
:101030000702EE5C01FA02F21643EE54431C03F081
:101040000706DB08EC5C01FA06F62643EE54831C27
:1010500003F00706DB08EC5C01FA06F62643EE54C3
:10106000C31C03F00706DB08EC5C01FA06F6264316
:10107000EE54031D03F00706DB08EC5C01FA06F6EC
:101080002643EE54431D03F00706DB08EC5C01FA2F
:1010900006F62643EE54831D03F00706DB08EC5CDE
:1010A00001FA06F62643EE54C31D03F00706DB08DB
:1010B000EC5C01FA06F62643EE5400F10803DB0867
:1010C000EE5C1643EE5400F1090303F00706DB085B
:1010D000EC5C01FA06F62643EE5400F10A0303F035
:1010E0000706DB08EC5C01FA06F62643EE5400F135
:1010F0000B0303F00706DB08EC5C01FA06F6264357
:10110000EE5400F10C0303F00706DB08EC5C01FA77
:1011100006F62643EE5400F10D0303F00706DB0844
:10112000EC5C01FA06F62643EE5400F10E0303F0E0
:101130000706DB08EC5C01FA06F62643EE5400F1E4
:101140000F0303F00706DB08EC5C01FA06F6264302
:10115000EE5400F11003DB08EE5C11303243FF283F
:10116000EA547FF463AF5FEA897040F1D3800020D6
:10117000012100BF05EBD00300F0070293F82060C7
:1011800001FA02F2164383F82060431C03F00706BD
:1011900005EBD30393F8204001FA06F6264383F8C3
:1011A0002060831C03F0070605EBD30393F820406F
:1011B00001FA06F6264383F82060C31C03F00706F5
:1011C00005EBD30393F8204001FA06F6264383F893
:1011D0002060031D03F0070605EBD30393F82040BE
:1011E00001FA06F6264383F82060431D03F0070644
:1011F00005EBD30393F8204001FA06F6264383F863
:101200002060831D03F0070605EBD30393F820400D
:1012100001FA06F6264383F82060C31D03F0070693
:1012200005EBD30393F8204001FA06F6264383F832
:10123000206000F1080305EBD30393F82060164308
:1012400083F8206000F1090303F0070605EBD303E0
:1012500093F8204001FA06F6264383F8206000F157
:101260000A0303F0070605EBD30393F8204001FAC5
:1012700006F6264383F8206000F10B0303F007060F
:1012800005EBD30393F8204001FA06F6264383F8D2
:10129000206000F10C0303F0070605EBD30393F87D
:1012A000204001FA06F6264383F8206000F10D0382
:1012B00003F0070605EBD30393F8204001FA06F686
:1012C000264383F8206000F10E0303F0070605EBC8
:1012D000D30393F8204001FA06F6264383F82060F2
:1012E00000F10F0303F0070605EBD30393F820404A
:1012F00001FA06F6264383F8206000F1100305EB9F
:10130000D30393F8206011303243FF2883F8202064
:101310007FF430AF5FEA497040F1D28000200121B4
:1013200005EBD00300F0070293F8406001FA02F2E7
:10133000164383F84060431C03F0070605EBD30314
:1013400093F8404001FA06F6264383F84060831C78
:1013500003F0070605EBD30393F8404001FA06F6C5
:10136000264383F84060C31C03F0070605EBD30354
:1013700093F8404001FA06F6264383F84060031DC7
:1013800003F0070605EBD30393F8404001FA06F695
:10139000264383F84060431D03F0070605EBD303A3
:1013A00093F8404001FA06F6264383F84060831D17
:1013B00003F0070605EBD30393F8404001FA06F665
:1013C000264383F84060C31D03F0070605EBD303F3
:1013D00093F8404001FA06F6264383F8406000F196
:1013E000080305EBD30393F84060164383F840608D
:1013F00000F1090303F0070605EBD30393F840401F
:1014000001FA06F6264383F8406000F10A0303F070
:10141000070605EBD30393F8404001FA06F626438E
:1014200083F8406000F10B0303F0070605EBD303DC
:1014300093F8404001FA06F6264383F8406000F135
:101440000C0303F0070605EBD30393F8404001FAC1
:1014500006F6264383F8406000F10D0303F007060B
:1014600005EBD30393F8404001FA06F6264383F8D0
:10147000406000F10E0303F0070605EBD30393F879
:10148000404001FA06F6264383F8406000F10F035E
:1014900003F0070605EBD30393F8404001FA06F684
:1014A000264383F8406000F1100305EBD30393F863
:1014B000406011303243FF2883F840207FF430AF82
:1014C0005FEA097040F1D2800020012105EBD003D2
:1014D00000F0070293F8606001FA02F2164383F805
:1014E0006060431C03F0070605EBD30393F86040EC
:1014F00001FA06F6264383F86060831C03F00706B2
:1015000005EBD30393F8604001FA06F6264383F80F
:101510006060C31C03F0070605EBD30393F860403B
:1015200001FA06F6264383F86060031D03F0070600
:1015300005EBD30393F8604001FA06F6264383F8DF
:101540006060431D03F0070605EBD30393F860408A
:1015500001FA06F6264383F86060831D03F0070650
:1015600005EBD30393F8604001FA06F6264383F8AF
:101570006060C31D03F0070605EBD30393F86040DA
:1015800001FA06F6264383F8606000F1080305EBD4
:10159000D30393F86060164383F8606000F1090399
:1015A00003F0070605EBD30393F8604001FA06F653
:1015B000264383F8606000F10A0303F0070605EB99
:1015C000D30393F8604001FA06F6264383F860607F
:1015D00000F10B0303F0070605EBD30393F860401B
:1015E00001FA06F6264383F8606000F10C0303F06D
:1015F000070605EBD30393F8604001FA06F626438D
:1016000083F8606000F10D0303F0070605EBD303D8
:1016100093F8604001FA06F6264383F8606000F113
:101620000E0303F0070605EBD30393F8604001FABD
:1016300006F6264383F8606000F10F0303F0070607
:1016400005EBD30393F8604001FA06F6264383F8CE
:10165000606000F1100305EBD30393F86060113074
:101660003243FF2883F860207FF430AF687F95F81D
:101670003D1095F85D2040F08000687741F08000D3
:1016800095F87D1095F85F3085F83D0042F08000B8
:1016900085F85D0041F0800085F87D0043F0400052
:1016A00085F85F00DAF8185005E000BFBFF32F8F10
:1016B0000022054672BB00F0CBF80146A84219D2C1
:1016C000EFF3108272B6DAF81800A84204D072B1B3
:1016D000A8420FD11EE000BFDAF81030CAF8181087
:1016E0000133CAF81030BFF35F8F002AF0D162B621
:1016F000A8420FD05AE8060FA842D7D1BFF35F8F98
:101700004AE80612002AD3D1BFF35F8F0122002AD4
:101710000546D0D04FF60075DAF81430DAF81C2000
:10172000C0F200352846FEF747FFB8F1000F3FF43E
:101730004FAC9AF8000000287FF44AAC01208AF8E8
:101740000000DAF8186004E0BFF32F8F002206468D
:1017500072BB00F07DF80146B04219D2EFF310825F
:1017600072B6DAF81800B04204D072B1B0420FD1AC
:101770001EE000BFDAF81030CAF818100133CAF8BA
:101780001030BFF35F8F002AF0D162B6B0420FD0A5
:101790005AE8060FB042D7D1BFF35F8F4AE806126E
:1017A000002AD3D1BFF35F8F0122002A0646D0D092
:1017B000681C00220023FEF7FFFE3846BDE8F087D4
:1017C000B0B541F24014C2F20004207810B10120FB
:1017D000B0BD00BF01202070A56904E0BFF32F8FCA
:1017E0000022054652BB00F033F80146A84215D24C
:1017F000EFF3108272B6A069A84203D052B1A8429A
:101800000CD11BE02369A16101332361BFF35F8F1A
:10181000002AF4D162B6A84210D000BF54E8060FE7
:10182000A842DBD1BFF35F8F44E80612002AD7D16C
:10183000BFF35F8F0122002A0546D4D04FF6017016
:10184000C0F2003000220023FEF7B6FE0120B0BD3A
:1018500041F20400CEF200000068704740F20C0034
:10186000C2F20000006870474EF6FC50CEF2000055
:10187000016841F08071016041F20001CEF2000187
:10188000086840F0010201200A607047B0B50446C4
:1018900000F0E6F8054640F20400C2F200000078CD
:1018A000611C18BF044400BF00F0DAF8401BA042DE
:1018B000FAD3B0BD2DE9F04F83B000F1200200F162
:1018C0003E4741F60045009207F1FF77C4F202055A
:1018D00008224FEAB726A84208BF072200254FF08A
:1018E00000084FF00009072E38BF4FEAB7220192D7
:1018F0000AE000BF09F1010908F10208B9F1100F6F
:1019000005F1040500F0A2800F68012202FA09FE29
:1019100017EA0E0AEED0D1F804C003220CF0030738
:101920007E1E02FA08F4012E6FEA040B12D88468B6
:10193000CE6804EA0B0406FA08F63443846044686F
:1019400024EA0E06CCF3001404FA09F42643466098
:1019500004E000BF032F01D103271EE0C6688C6896
:1019600006EA0B0604FA08F42643022FC66014D1D7
:101970006FF00302009E02EA590756F807C005F00F
:101980001C040F220B69A2402CEA0202A3401A4356
:10199000F251D1F804C00CF00307026807FA08F30B
:1019A00002EA0B021A431CF4403F0260A2D000225C
:1019B00043F644030292C4F202031A6843F6004459
:1019C00042F480421A601A68C4F2010402F48042B0
:1019D0000292029A29F003024FF6084C2244CFF6F5
:1019E000FF7C52F80C3005F00C070F26BE40B343C5
:1019F000019E06FA07F73B4342F80C30A2684B6899
:101A000042EA0A0743F60C4CDE0258BF22EA0A07F4
:101A1000A760C4F2010CDCF800209E0242EA0A072B
:101A200058BF22EA0A07CCF8007062689E0342EAB7
:101A30000A0758BF22EA0A0767602268DB0342EA06
:101A40000A0758BF22EA0A07276053E703B0BDE838
:101A5000F08F0000002A08BF090481617047000070
:101A600041F26410C2F200000068704740F20400C6
:101A700041F26411C2F20000C2F2000100780A686B
:101A8000104408607047000080B543F60040C4F27F
:101A90000200016841F400710160016841F4806155
:101AA0000160016841F480710160032000F0B8F822
:101AB0000F2000F005F800F059F8002080BD00006C
:101AC000B0B586B0002543F644010195C4F2020189
:101AD0000A68044642F002020A60096801A801F09F
:101AE000020101910199694600F05CF900F07AF970
:101AF0004DF683614000C4F21B31A0FB01014FF0A1
:101B0000FF3000EB914140F24C0040F20042C2F243
:101B10000000C4F2010240F2E733C0E90021C0E94D
:101B200002530561856100F081FB08B106B0B0BDCC
:101B300040F24C00C2F2000000F0A8FB0028F5D1F2
:101B40002C2000F02FF80F2C0CD82C20214600223E
:101B500000F03AF840F208010020C2F200010C60E7
:101B600006B0B0BD012006B0B0BD000082B00020BC
:101B700043F640010190C4F202014A6842F48042F7
:101B80004A604A6802F480420192019A0090086813
:101B900040F080500860086800F080500090009885
:101BA00002B07047002848BF704700F01F010122B3
:101BB00002FA01F11C2202EAD0004EF20012CEF22B
:101BC000000281507047000010B54EF60C5CCEF25A
:101BD000000CDCF80030C3F3022E8EF00704042C56
:101BE00028BF0424BEF103034FF0FF3E0EFA04F4B5
:101BF00038BF0023A14399400EFA03F39A431143DF
:101C000000F00F0200F160430901043A03F5644358
:101C10006244002848BF02F10C03197010BD000097
:101C20004EF60C51CEF200010A684FF6FF031A403F
:101C300060F30A2242F0806040F0FD700860704757
:101C4000002804BF012070472DE9F04143F6080841
:101C5000C4F202080446D8F8F8030D4600F0070065
:101C6000884207D288F8F853D8F8F80300F0070044
:101C7000A84277D12068810717D5410705D5D8F844
:101C8000001041F4E051C8F80010010705D5D8F85C
:101C9000001041F46041C8F80010D8F80010A268A4
:101CA00021F0F0011143C8F80010C00740D1D8F866
:101CB000F80300F00700A84207D988F8F853D8F8CD
:101CC000F80300F00700A8424CD12068410707D56F
:101CD000D8F80010E26821F4E0511143C8F8001070
:101CE000000708D5D8F80000216920F4604040EAD8
:101CF000C100C8F8000000F089F8D8F8001042F6DA
:101D00005422C1F30311C0F60002515C40F20C02F0
:101D100020FA01F140F20800C2F200000068C2F2AD
:101D200000021160FFF7CCFE0020BDE8F08100BF8B
:101D30006068811E022907D258F8081C89015CBF1F
:101D40000120BDE8F08111E0012807D158F8081CF6
:101D500089035CBF0120BDE8F08107E058F8081C4A
:101D6000890703D40120BDE8F08100BFD8F8001036
:101D700021F003010843C8F80000FFF771FE064692
:101D800041F28837D8F80000616800F00C00B0EB31
:101D9000810F8CD0FFF764FE801BB842F2D903207C
:101DA000BDE8F0810F22026043F60802C4F202028D
:101DB000136803F003034360136803F0F0038360C8
:101DC000136803F4E053C360D2F800C04FF4E0534B
:101DD00003EADC030361D2F8F80300F007000860AF
:101DE0007047000040F20C0043F60801C2F2000008
:101DF000C4F202010068096842F66422C1F342316C
:101E0000C0F60002515CC8407047000010B543F6B0
:101E10000404C4F20204606800F00C0008280BD02F
:101E2000042819BF42F20040C0F2F40047F6400017
:101E3000C0F27D1010BD00BF2068216823684902F0
:101E400047F64001C0F27D1100F03F02C3F3881055
:101E50005CBF42F20041C0F2F401A1FB000100238B
:101E6000FEF7AEF921680222C1F3014102EB410104
:101E7000B0FBF1F010BD0000002804BF0120704746
:101E80002DE9F04182B00446007843F60006C00711
:101E9000C4F202060CD0B06800F00C00042840F038
:101EA00081803068800303D56068002800F0688175
:101EB000207880071BD5B06810F00C0F09D0B068EF
:101EC00000F00C00082840F087807068400200F1A4
:101ED00083803068800703D5E068012840F0508196
:101EE0003068216920F0F80040EAC10030602078B5
:101EF000000713D4207840072AD4A569002D00F0EC
:101F00003A81B06800F00C00082840F0A580012D4F
:101F100040F00E81012002B0BDE8F0816069002828
:101F200000F082800020C4F247200121C0F8801E0A
:101F3000FFF796FD054600BF706F8007DAD4FFF704
:101F40008FFD401B0228F7D9032002B0BDE8F081C5
:101F5000306C5FEAC0080AD400200190306C40F079
:101F600080503064306C00F080500190019847F24E
:101F70000007C4F200073868C00547D4386840F449
:101F800080703860FFF76CFD054600BF3868C005FB
:101F90003CD4FFF765FD401B0228F7D9032002B0AF
:101FA000BDE8F081B06800F00C00082803D170682B
:101FB00040023FF576AF61683068B1F5803F07D0E9
:101FC000B1F5A02F40F09A8040F480203060306856
:101FD00040F4803030609AE0E068002840F2000071
:101FE000C4F247205CD001210160FFF739FD0546AE
:101FF000306880073FF574AFFFF732FD401B0228C1
:10200000F6D9032002B0BDE8F08100BFA168306FAF
:10201000012905D0052955D140F004003067306F03
:1020200040F00100306756E00020C4F24720002154
:10203000C0F8801EFFF714FD054600BF706F8007D3
:102040007FF558AFFFF70CFD401B0228F6D903209F
:1020500002B0BDE8F08100BF0027C4F2472700208E
:102060003866FFF7FDFC022D05460DD13068800172
:1020700040F18A80FFF7F4FC401B02284FF0030078
:10208000F4D902B0BDE8F0813068800173D5FFF764
:10209000E7FC401B02284FF00300F5D9F1E700BF31
:1020A00000210160FFF7DCFC054600BF30688007B7
:1020B0007FF51DAFFFF7D4FC401B02284FF0030053
:1020C000F4D9DEE720F001003067306F002920F0FE
:1020D000040030677AD0FFF7C3FC054641F2883729
:1020E000306F800700F18480FFF7BAFC401BB842D4
:1020F000F6D9032002B0BDE8F08100BF20F48030A3
:1021000030603068002920F4802030607AD0FFF7FA
:10211000A7FC0546306880033FF5CAAEFFF7A0FC78
:10212000401B6428F6D9032002B0BDE8F08100BF4F
:102130007068E16900F480028A4221D1216A00F0CE
:102140003F028A421CD147F6C071626A0140B1EB7E
:10215000821F15D1A16A4FF6FF73C903994300F49A
:102160004032A1F580318A420AD1E16A00F0706004
:10217000B0EB016F04D1002002B0BDE8F08100BFD8
:10218000012002B0BDE8F08104F11C052FCD084309
:1021900040EA8210D9034FF6FF729143A1F58031D6
:1021A00040EA05600843706001203866FFF758FC7C
:1021B000044600BF30688001DDD4FFF751FC001BEE
:1021C00002284FF00300F5D95BE700BFFFF748FC9A
:1021D000054641F2883700BF306F800708D5FFF70A
:1021E0003FFC401BB8424FF00300F5D949E700BF60
:1021F000B8F1000F3FF581AE306C20F080503064B4
:102200007BE600BFFFF72CFC054600BF306880036B
:102210007FF54EAEFFF724FC401B64284FF003000F
:10222000F4D92EE77047000070470000002804BF73
:102230000120704710B5044690F83D0028B90020F1
:1022400084F83C00204600F01FF8022084F83D008E
:102250002068211D00F010FA012084F8460084F85F
:102260003E0084F83F0084F8400084F8410084F880
:10227000420084F8430084F8440084F8450084F860
:102280003D00002010BD00007047000090F83D1098
:1022900001291CBF01207047022180F83D10006811
:1022A00041F2FF72C168C4F20002904241F00101A4
:1022B000C1600DDC40F2FF71C4F20001884215DC00
:1022C000B0F1804F2AD040F20041C4F2000123E077
:1022D00040F2FF31C4F20101884213DC41F60001F3
:1022E000C4F20001884219D0002113E040F6000139
:1022F000C4F20001884211D040F60041C4F200014E
:102300000AE000BF44F20001C4F20101884205D096
:1023100040F20041C4F20101884206D1816801F017
:102320000701062904BF00207047016841F0010140
:1023300001600020704700007047000070B504463F
:102340000068C5680669B10716D515F0020113D0FB
:102350006FF002010161012121778069800703D0BC
:102360002046FFF7E9FF05E0204600F08FF8204601
:1023700000F08EF800202077700719D515F00400C2
:1023800016D020686FF00401016102212177806975
:1023900010F4407F04D02046FFF7CEFF06E000BFD8
:1023A000204600F073F8204600F072F800202077F5
:1023B000300717D515F0080014D020686FF0080119
:1023C000016104212177C069800703D02046FFF70F
:1023D000B3FF05E0204600F059F8204600F058F819
:1023E00000202077F00619D515F0100016D02068CF
:1023F0006FF01001016108212177C06910F4407F5E
:1024000004D02046FFF798FF06E000BF204600F00A
:102410003DF8204600F03CF800202077F00718BF78
:1024200015F0010002D1300609D412E020686FF0E7
:1024300001010161204600F02DF8300609D515F0A4
:10244000800006D020686FF0800101612046FFF710
:10245000E9FE700609D515F0400006D020686FF03F
:1024600040010161204600F01FF8B00658BF70BD62
:1024700015F0200008D021686FF0200220460A6184
:10248000BDE87040FFF7D0BE70BD0000704700008F
:1024900070470000006840F20041C4F20101884228
:1024A00018BF7047FFF7E2BA70470000FEE7000070
:1024B00010B50024C4F20204204610210122FFF7C7
:1024C000C9FAC820FFF7E2F9204610210022FFF7E1
:1024D000C1FA204620210122FFF7BCFAC820FFF7ED
:1024E000D5F9204620210022FFF7B4FA20464021EA
:1024F0000122FFF7AFFAC820FFF7C8F920464021B4
:102500000022FFF7A7FA204680210122FFF7A2FA56
:10251000C820FFF7BBF9204680210022FFF79AFA76
:102520006420BDE81040FFF7B1B9000070B586B077
:10253000002543F630000595CDE90355CDE9015559
:102540000095C4F202000168002441F0800101609E
:102550000168C4F2020401F0800100910099009525
:102560000168002241F00101016000684FF4F87138
:1025700000F001000090009820464FF4F876FFF735
:1025800069FA0120CDE9020501A9204601960495CA
:10259000FFF790F906B070BDFEE70000FEE700000F
:1025A00070470000704700007047000070B592B09F
:1025B00006AC20463021FDF74DFE002543F64000D5
:1025C0000595CDE90355CDE901550095C4F202000A
:1025D0000168022641F080510160006800F08050DF
:1025E0000090009847F200000095C4F200000168D6
:1025F00041F480410160006800F480400090009840
:10260000012006904FF4803007904FF480000D9029
:1026100019200E904FF4A870CDE90F0604201190F8
:1026200020460C96FFF728FC10B172B6FEE700BFFB
:102630000F20CDE901064FF4A05004904FF48050D4
:10264000059001A805210395FFF7FAFA10B172B6BB
:10265000FEE700BF12B070BD4EF68850CEF200000B
:10266000016841F4700101607047000040F24C00C5
:10267000C2F20000FFF762BEB0B540F6FF3E05684B
:10268000C4F2000E40F2004C7045C4F2010C25DC8F
:10269000B0F1804F2FD040F20043C4F200039842C3
:1026A00029D040F60003C4F20003984223D041F63B
:1026B000FF73C4F20003984228DC70453ADCB0F1A5
:1026C000804F5BD040F20043C4F20003984255D0E3
:1026D00040F60003C4F200034EE000BF40F60043A2
:1026E000C4F20003984206D0604504D00023C4F22F
:1026F00001039842DBD14B6825F0700243EA0205E2
:1027000041F6FF73C4F200039842D6DD43F6FF732F
:10271000C4F2010398421FDC42F20003C4F200033A
:1027200098422BD00023C4F20103984226D0604582
:1027300024D028E040F60043C4F2000398421DD0A4
:1027400041F60003C4F20003984217D041F600435B
:10275000C4F2000310E000BF44F20003C4F201031E
:1027600098420BD044F60003C4F20103984205D00E
:1027700044F20043C4F20103984204D1CB6825F42B
:10278000407243EA02050A688C684B69C46240F4EF
:1027900080648262644504BF09690163026825F0B0
:1027A000800142F00402194302600122426101608B
:1027B000B0BD0000FEE7000040F20002C2F20002DD
:1027C00091421CBF4FF0FF30704700F047B8000047
:1027D0000F200A21FEF7AAFAFEF7F2FFFFF754F9DD
:1027E000FFF7E4FEFFF7A2FE0520FDF78BFD42F6A2
:1027F000842440F21007C0F60004C2F2000713A5BB
:1028000013A605E04EF6207021466C22FDF79EFDD2
:102810004FF46F4021466822FDF798FD3968012981
:1028200008DB284600F03AF80120FDF76BFD386818
:1028300001383860FFF73CFE38680028E2D13046A6
:1028400000F0F6F8386801383860DBE725640A00E4
:10285000626565705F6F766572000000B0B540F22A
:102860004004C2F200042168072984BF4FF0FF3002
:10287000B0BD4A1C21440A28226008711CBF082AE6
:10288000B0BD4FF60063C0F20203211D0546184695
:10289000FDF7BAFD284600212160B0BD0FB4054BFD
:1028A00010B503A9044A029800F018F810BC5DF8AE
:1028B00014FB0000B92700080000002002E008C84F
:1028C000121F08C1002AFAD170477047002001E0AA
:1028D00001C1121F002AFBD1704700002DE9FF4FF4
:1028E00089B09B460446002506E025280BD05A46B1
:1028F0000B999047641C6D1C20780028F5D10DB011
:102900002846BDE8F08F0027B8460122474900E07D
:10291000074314F8013F203B02FA03F00842F7D1C5
:1029200020782E2819D114F8010F47F004072A281F
:102930000ED06FF02F022078A0F1300109290CD8B9
:1029400008EB880102EB410100EB0108641CF2E78F
:102950000A98641C50F8048B0A9020780028CED086
:10296000642808D0692806D075281ED05A460B99CD
:1029700090476D1C58E00A994FF00A0901C90A9165
:10298000002802DA40422D2102E0390504D52B212E
:102990008DF82010012103E0F90704D02021F7E78A
:1029A0008A4608AE0DE00021FAE70A994FF00A09BD
:1029B00001C90A91F7E74946FDF757FC303106F89F
:1029C000011D0028F7D1ADEB060000F120097807C2
:1029D00001D44FF00108C84502DDA8EB090000E072
:1029E00000208046002706E008A85A46C05D0B99E3
:1029F00090476D1C7F1C5745F6DB04E030205A469B
:102A00000B9990476D1CB8F10001A8F10108F5DCA5
:102A100005E016F8010B5A460B9990476D1CB9F169
:102A20000001A9F10109F4DC641C65E70928010033
:102A300010B5044601E0FFF7BFFE14F8010B04498E
:102A40000028F8D1BDE810400A20FFF7B5BE00000D
:102A5000000000200000000000000000010203044C
:102A6000060708090000000001020304010001013B
:102A700000010000C0000020C01000204011002014
:102A8000000000002E2E2F436F72652F5372632FAC
:102A90006D61696E2E630000C02A000800000020EE
:102AA00040000000BC280008002B00084000002067
:102AB00028190000CC2800080000000000000000D9
:102AC0000000000001000000100000000024F400DD
:102AD00002000000000000000000000000000000F4
:102AE00000000000000000000000000000000000E6
:102AF00000000000000000000000000000000000D6
:040000050800018965
:00000001FF
