:020000040800F2
:10000000401B00209D010008A9420008F13E0008A5
:10001000A5420008E5080008A952000800000000F9
:100020000000000000000000000000001D43000868
:10003000A10A00080000000019430008214300083D
:10004000B7010008B7010008B7010008B7010008B0
:10005000B7010008B7010008B7010008B7010008A0
:10006000B7010008B7010008B7010008B701000890
:10007000B7010008B7010008B7010008B701000880
:10008000E9080008F9080008B7010008B7010008EE
:10009000B7010008B7010008B7010008B701000860
:1000A000B7010008F9430008B7010008B7010008CC
:1000B000B701000809440008B7010008B7010008AB
:1000C000B7010008B7010008B7010008B701000830
:1000D000B70100083152000841520008B70100087A
:1000E000B7010008B7010008B7010008B701000810
:1000F00019440008B7010008B7010008B70100085B
:10010000B7010008B7010008B7010008B7010008EF
:10011000B7010008B7010008B7010008B7010008DF
:10012000B7010008B7010008B7010008B7010008CF
:10013000B70100080000000000000000B70100083F
:10014000B7010008B7010008B7010008B7010008AF
:10015000B7010008B7010008B7010008B70100089F
:10016000B7010008B7010008B7010008B70100088F
:10017000B7010008B70100080000000000000000FF
:10018000B7010008B7010008DFF80CD000F030FB21
:100190000048004729550008401B002006488047BA
:1001A00006480047FEE7FEE7FEE7FEE7FEE7FEE75C
:1001B000FEE7FEE7FEE7FEE7E543000889010008E9
:1001C0002DE9F05F0546002092469B46884606468C
:1001D000814640241BE0284641464746224600F01F
:1001E0003FF953465A46C01A914110D3114618465A
:1001F000224600F026F92D1A67EB01084F462246E9
:100200000120002100F01DF917EB00094E41201ECE
:10021000A4F10104DFDC484631462A464346BDE8E6
:10022000F09F40EA01039B0703D009E008C9121FB1
:1002300008C0042AFAD203E011F8013B00F8013BA0
:10024000521EF9D27047D2B201E000F8012B491ECC
:10025000FBD270470022F6E710B513460A46044663
:100260001946FFF7F0FF204610BD2DE9FE4F8046EE
:1002700081EA0300C00F0C46009021F0004123F0FA
:100280000045B8EB0200A94105D240462146904600
:100290001C460B46024623F00040104347D0270D72
:1002A000C7F30A00C3F30A510290401A0190402894
:1002B0006BDAC3F3130040F4801B0098924620B120
:1002C0000023D2EB030A63EB0B0B01985946C0F1F4
:1002D0004002504600F0B5F806460D4650465946D5
:1002E000019A00F0CDF810EB08006141002487EA84
:1002F000115284EAE7731A4340D0009A62B3019A1C
:10030000012A4FEA075215DC001B61EB02014FF096
:10031000004202EA0752CDE90042001C41F580117B
:1003200032462B4600F004F903B0BDE8F08F40469A
:100330002146F9E7001B61EB0201001C41F5801327
:1003400000185B412018A2F5001747EB030140EAB3
:10035000D570B6196D4111E06D084FEA360645EAD1
:10036000C0754FEA0752001B61EB0201001C41F50A
:10037000801149084FEA30000019514132462B469E
:1003800003B0BDE8F04F00F0C4B80098012240006F
:100390000023D0EB020263EBE073009821464FEAA2
:1003A000E074B8EB000061EB0401E9E783F000437F
:1003B0005BE781F0004158E700F0004230F0004078
:1003C0000AD0C10D01F56071C0F3160042EA015177
:1003D000C20840071143704700200146704701F0F2
:1003E000004330B421F0004150EA010206D00A0D6A
:1003F000A2F56072C1F31301002A02DC30BC0020B8
:100400007047440F44EAC104C100E01830BC00EB5F
:10041000C25000F047B830B50B46014600202022FC
:10042000012409E021FA02F59D4205D303FA02F501
:10043000491B04FA02F52844151EA2F10102F1DC61
:1004400030BD202A04DB203A00FA02F10020704778
:100450009140C2F1200320FA03F319439040704702
:10046000202A04DB203A21FA02F00021704721FA09
:1004700002F3D040C2F12002914008431946704770
:10048000202A06DBCB17203A41FA02F043EAE07358
:1004900006E041FA02F3D040C2F120029140084345
:1004A000194670470029A8BF7047401C490008BF83
:1004B00020F00100704710B4B0FA80FC00FA0CF094
:1004C00050EA010404BF10BC704749B1CCF12004CC
:1004D00021FA04F411FA0CF118BF01212143084359
:1004E000A3EB0C01CB1D4FEA00614FEA102042BF85
:1004F000002010BC704700EBC35010440029A4BF7B
:1005000010BC7047401C490008BF20F0010010BC1F
:10051000704710B5141E73F1000408DA401C41F155
:10052000000192185B411A4301D120F0010010BD77
:100530002DE9F04D92469B4611B1B1FA81F202E0ED
:10054000B0FA80F220329046FFF77BFF04460F4658
:1005500040EA0A0041EA0B0153465A46084313D0C9
:10056000114653EA010019D0C8F140025046FFF786
:1005700077FF05460E46504659464246FFF761FF53
:10058000084305D0012004E020463946BDE8F08D3F
:100590000020054346EAE0762C4337430A9863057A
:1005A000E40AA0EB08000022FD0A44EA47540A309E
:1005B00002D500200146E9E7010510196941DDE98E
:1005C000084500196941BDE8F04DA2E72DE9FE4F4D
:1005D00081EA030404F0004421F0004100944FF04C
:1005E000000B23F0004350EA01045ED052EA0304FA
:1005F0005BD0C3F30A54C1F30A552C44A4F2F3347C
:100600000194A0FB0254C1F3130141F48011C3F320
:10061000130343F4801301FB024400FB034E840ADE
:10062000970A44EA815447EA8357A4FB0768029576
:100630008D0A05FB07854FEA932C04FB0C54270514
:10064000029D4FEA065847EA1637B5EB08056EEBF0
:10065000070C870E920E47EA811742EA8312A7FB26
:100660000201B6EB0B0164EB00042B0D43EA0C33E3
:100670005E1844EB1C50DA465146E7FB0201C5F315
:1006800013044FEA0B3343EA14534FEA0432019C3C
:1006900043EA0603A4F10C040294009CCDE900B4E3
:1006A000FFF746FF03B0BDE8F08F00200146F9E7F1
:1006B0002DE9F04D81EA030404F0004B21F00045E0
:1006C00014464FF0000A23F0004150EA050220D002
:1006D00054EA01021DD0C5F30A570246C5F31303BD
:1006E000C1F31300C1F30A5640F4801543F480139C
:1006F000A7EB0608101BD64608F2FD3873EB050081
:1007000002D308F1010801E092185B41B8F1000F33
:1007100003DA00200146BDE8F08D00204FF480117F
:10072000064684460EE0171B73EB050705D3121B24
:1007300063EB050306434CEA010C49084FEA30001D
:1007400092185B4150EA0107EDD152EA030012D042
:1007500082EA040083EA0501084305D0101BAB417F
:1007600006D20122002306E000224FF0004302E0FF
:100770006FF0010253101AEB06004CEB085110EB1E
:100780000A0041EB0B01BDE8F04DFFF7C2BEC1F31B
:100790000A52C1F3130140F2FF3341F480119A422F
:1007A00002DA00200146704740F233439A42A2F237
:1007B000334202DC5242FFF753BEFFF742BE000055
:1007C00030B5041E71F1000404DB4FF000444042D8
:1007D00064EB0101141E73F1000405DB1C464FF0AD
:1007E0000043524263EB0403994208BF904230BD7C
:1007F0001CB509480090094801900546009C06E098
:10080000E06840F0010394E8070098471034AC42D8
:10081000F6D3FFF7BDFC0000606A0008806A00089C
:100820000EB5C10F80EAE0700844CA07002140F20B
:1008300033438DE80E000A460B46FFF779FE03B0FE
:1008400000BD0EB540F2334102910021CDE9001107
:100850000A460B46FFF76CFE03B000BD70B5C1F34E
:100860000A5201F000450024C1F3130140F2FF33A6
:1008700041F480119A4201DA002070BD40F2334306
:100880009A42A2F2334203DC5242FFF7E9FD00E054
:1008900090402C43F1D0404270BD000080B584B040
:1008A0000390FFE7039801281ADBFFE70020C4F25A
:1008B000020000904FF480710191012201F08AF949
:1008C0003220029000F088FF00980199002201F088
:1008D00081F9029800F080FF039801380390E1E766
:1008E00004B080BDFFE7FEE780B540F25400C2F2DD
:1008F000000000F0C7FC80BD80B540F2B400C2F239
:10090000000000F0BFFC80BD82B00190019800782B
:1009100010384AF6AB21CAF6AA21A0FB0110000943
:100920000090009946F62020C0F60000405C019936
:10093000C8650098042807D3FFE7019908680422D6
:1009400062F30900886506E00199086840F2FF3209
:1009500090438865FFE70198806D02B07047000002
:1009600086B0059000208DF813000598806A0390EA
:100970000598806910BBFFE70398029003281BD8F5
:100980000299DFE801F0020D0218059890F82F0097
:10099000C00720B1FFE701208DF81300FFE70CE04E
:1009A0000598C06AB0F1C07F04D1FFE701208DF83F
:1009B0001300FFE701E000E0FFE745E005988069EC
:1009C000B0F5005F25D1FFE70398019003281ED8FA
:1009D0000199DFE801F00206021101208DF81300F1
:1009E00016E0059890F82F00C00720B1FFE701201E
:1009F0008DF81300FFE70BE00598C06AB0F1C07FE7
:100A000004D1FFE701208DF81300FFE700E0FFE7C6
:100A100019E003980090032804D3FFE70098032807
:100A200004D00EE001208DF813000BE0059890F83B
:100A30002F00C00720B1FFE701208DF81300FFE76A
:100A400000E0FFE7FFE7FFE79DF8130006B07047FF
:100A500084B00390029101920093039801680868A2
:100A600020F4802008600098039909684860039882
:100A70008068402809D1FFE70198039909688860D8
:100A8000029803990968C86008E002980399096808
:100A90008860019803990968C860FFE704B070474F
:100AA0007047000072B6FFE7FEE7000082B00190D9
:100AB00041F20030C2F20000007818B9FFE70020D0
:100AC00000900EE00199C1F3C62241F28020C2F2EB
:100AD0000000805CC1F30221C84000F001000090DA
:100AE000FFE7009802B0704780B586B041F2003051
:100AF000C2F2000080690390FFE700F0F9FA049069
:100B00000498039988422CD2FFE7EFF310800590F8
:100B10000598029072B641F20030C2F2000080697E
:100B200001900198039988420ED1FFE7049841F2A1
:100B30000031C2F200018861086901300861BFF329
:100B40005F8F0120009002E000200090FFE70298F4
:100B500010B9FFE762B6FFE7009808B9FFE701E0C8
:100B60000CE0FFE7049A41F20030C2F200001830B6
:100B700003A904F0FBFB0028BFD0FFE7049806B0F0
:100B800080BD000080B588B005900491039205985F
:100B9000FFF78CFF18B9FFE7012006901CE0FFF774
:100BA000A3FF0290BDF814000590EFF305800790B5
:100BB000079A059840F40021002A18BF08460590BE
:100BC000059840F040700299049A039B00F0CCF81D
:100BD000019001980690FFE7069808B080BD0000DC
:100BE00080B58CB0099008910792089828B1FFE76A
:100BF0000798B0F5807F03D9FFE700200A90AFE0A7
:100C00000998FFF753FF18B9FFE701200A90A7E002
:100C1000FFF76AFF0590BDF824000990EFF3058007
:100C20000B900B9A099840F40021002A18BF08463F
:100C3000099008980690079850B9FFE70998059918
:100C400000231A4600F090F8019001980A9087E07E
:100C5000079808281BD8FFE7002002900390069908
:100C6000079A02A8FFF7DDFA079800F00701099834
:100C700040EA01400990099840F040700599029AB5
:100C8000039B00F071F8019001980A9068E000F071
:100C90004DFA01464FF4E02000EA01400490069925
:100CA00008684968039102900698083006900798F2
:100CB000083807900499099808430990099840F06A
:100CC00080700599029A039B00F04EF801900198FC
:100CD00018B9FFE700200A9042E004984FF601712E
:100CE00008430990FFE7079809281CD3FFE70699F6
:100CF00008684968039102900698083006900798A2
:100D00000838079009980599029A039B00F02CF87F
:100D10000190099801300990019818B9FFE7002067
:100D20000A901DE0DFE70020029003900699079AE1
:100D300002A8FFF776FA099820F47F4009900799F6
:100D4000099840EA01200990099840F0007005993F
:100D5000029A039B00F008F8019001980A90FFE7BF
:100D60000A980CB080BD000080B58CB00A90099143
:100D70000892079307200590FFE70598002862D0A6
:100D8000FFE700F0DDF904909DF8101040F280209C
:100D9000C2F2000000EB0110069004994FF47000BD
:100DA00000EA013001900A9801990843099A4FF02E
:100DB000805101EAD2010843089A4FF0005101EA3C
:100DC00092010843079A4FF0804101EA520108431B
:100DD00040F00060039006980C30039903F09EF8F1
:100DE00003909DF80F004007002827D5FFE70398E0
:100DF00080F000400390039800F0004002900998B2
:100E000020F000400299084306990860089820F0F5
:100E100000400299084306994860079820F0004076
:100E2000029908430699886006980C30039904F0EB
:100E30000FFA03F069F801200B9009E0FFE705982D
:100E40000138059099E703F055F800200B90FFE773
:100E50000B980CB080BD000087B005900491039200
:100E60000498FE2804D8FFE70398FF2803D3FFE780
:100E70000020069036E0002002900190FFE70198E4
:100E800003282CD8FFE705980199C840C007F0B1A6
:100E9000FFE704980090FFE700980399884215D86F
:100EA000FFE7009901F00702012000FA02F302981F
:100EB00000EBD10241F28021C2F20001885C1843AC
:100EC0008854FFE7009801300090E5E7FFE70298BB
:100ED00020300290FFE7019801300190CFE7012018
:100EE0000690FFE7069807B07047000080B58AB00B
:100EF0000990089141F20031C2F2000101910020F5
:100F0000087041F28020C2F200008021FFF7A2F9B0
:100F100046F62820C0F60000182104F0A9FA014680
:100F20000198ADF81A10006A42F26B71CEF2A51169
:100F300088420FD0FFE741F20031C2F2000142F2D5
:100F40006B70CEF2A5100862BDF81A00488001202F
:100F5000C8611CE041F20030C2F200004088BDF8D8
:100F60001A1088420AD0FFE7BDF81A0041F200319A
:100F7000C2F2000148800120C86107E041F200315F
:100F8000C2F20001C8690130C861FFE7FFE741F222
:100F90000030C2F20000C069012812D1FFE741F21F
:100FA0000031C2F200010020487048608860C860CB
:100FB00040F28020C2F200004FF48051FFF74AF95E
:100FC00020E000200290FFE70298FF2819D8FFE7F1
:100FD000029940F28020C2F2000000EB011007905D
:100FE0000798C07B4007002806D5FFE70799C86827
:100FF00020F04060C860FFE7FFE7029801300290F0
:10100000E2E7FFE741F20030C2F20000C0690128C8
:1010100017D1FFE700F078F80490049820B1FFE7BB
:1010200000F06CF8059002E000200590FFE70598BD
:1010300041F20031C2F2000148610020886108617C
:1010400003E000F061F80490FFE7049838B3FFE78D
:1010500009980021FE220092FFF7FEFE0F20EF22EA
:101060001146FFF7F9FE009A04201146FFF7F4FE3F
:10107000FFF73AFD0390039941F20030C2F20000FD
:101080004369C2694FF60070C0F20030FFF76CFE92
:10109000089818B1FFE700F005F8FFE7FFE70498AC
:1010A0000AB080BD80B584B041F20030C2F20000C9
:1010B000007818B1FFE70120039015E041F20031FC
:1010C000C2F20001012001900870FFF70DFD0290AF
:1010D00002994FF60170C0F2003000231A46FFF764
:1010E00043FE01980390FFE7039804B080BD000021
:1010F00041F20400CEF200000068704740F20800A0
:10110000C2F20000006870474EF6FC51CEF20001BA
:10111000086840F08070086041F20001CEF20001E2
:10112000086840F0010008600120704780B541F276
:101130000030C2F20000013004F06EF980BD000002
:1011400080B541F20030C2F20000043004F03EF9F4
:1011500080BD000080B584B002900298806D01903F
:1011600000F050FD0090029890F8350002280DD054
:10117000FFE7029980204865FFE70299002081F887
:101180003400FFE701208DF80F0055E00298016858
:10119000086820F01600086002980168486920F08D
:1011A000800048610298006C20B9FFE70298806CCB
:1011B00038B1FFE702980168086820F0080008606D
:1011C000FFE702980168086820F001000860FFE767
:1011D000029800680068C007C8B1FFE700F012FD80
:1011E0000099401A062811D3FFE70299202048658C
:1011F0000299032081F83500FFE70299002081F869
:101200003400FFE703208DF80F0015E0E0E70298B7
:10121000C16D3F208840019988600299012081F8C2
:101220003500FFE70299002081F83400FFE7FFE76F
:1012300000208DF80F00FFE79DF80F0004B080BD7F
:1012400082B00090009890F83500022807D0FFE7A0
:1012500000998020486501208DF807000EE0009974
:10126000052081F8350000980168086820F0010029
:101270000860FFE700208DF80700FFE79DF80700F2
:1012800002B0704780B586B005900020039040F210
:101290000800C2F20000006848F2B511C1F64E31F4
:1012A000A0FB0110800A02900598806D01900198C2
:1012B0000068049004980599C96DC840000700288B
:1012C0001AD5FFE70598006800684007002812D586
:1012D000FFE705980168086820F004000860059899
:1012E000C16D08208840019988600599486D40F0DB
:1012F00001004865FFE7FFE704980599C96DC840FC
:10130000C007A0B1FFE70598006840690006002803
:101310000CD5FFE70598C16D0120884001998860D0
:101320000599486D40F002004865FFE7FFE7049823
:101330000599C96DC8404007002814D5FFE70598F6
:1013400000680068800700280CD5FFE70598C16D8C
:1013500004208840019988600599486D40F0040098
:101360004865FFE7FFE704980599C96DC840C006C6
:10137000002847D5FFE705980068006800070028A7
:101380003FD5FFE70598C16D10208840019988601E
:10139000059800680068400300281AD5FFE7059803
:1013A000006800680003002809D4FFE70598006C76
:1013B00020B1FFE70598016C8847FFE708E0059832
:1013C000806C20B1FFE70598816C8847FFE7FFE755
:1013D00016E0059800680068C005002807D4FFE7FC
:1013E00005980168086820F008000860FFE7059884
:1013F000006C20B1FFE70598016C8847FFE7FFE725
:10140000FFE7FFE704980599C96DC84080060028EA
:1014100040F18D80FFE7059800680068C00600284D
:1014200040F18480FFE70598C16D20208840019934
:101430008860059890F83500052834D1FFE70598B5
:101440000168086820F0160008600598016848697E
:1014500020F0800048610598006C20B9FFE70598EE
:10146000806C38B1FFE705980168086820F0080033
:101470000860FFE70598C16D3F20884001998860AA
:101480000599012081F83500FFE70599002081F8D2
:101490003400FFE70598006D20B1FFE70598016D66
:1014A0008847FFE77BE00598006800684003002854
:1014B0001AD5FFE70598006800680003002809D4E2
:1014C000FFE70598406C20B1FFE70598416C88471D
:1014D000FFE708E00598C06B20B1FFE70598C16BF6
:1014E0008847FFE7FFE720E0059800680068C0052F
:1014F000002811D4FFE705980168086820F0100063
:1015000008600599012081F83500FFE70599002062
:1015100081F83400FFE7FFE70598C06B20B1FFE7D3
:101520000598C16B8847FFE7FFE7FFE7FFE70598EE
:10153000406DA0B3FFE70598406DC00730B3FFE7EB
:101540000599052081F8350005980168086820F0A4
:1015500001000860FFE70398013003900299884278
:1015600001D9FFE707E0FFE7059800680068C007BA
:101570000028F0D1FFE70599012081F83500FFE749
:101580000599002081F83400FFE7FFE70598C06C5B
:1015900020B1FFE70598C16C8847FFE7FFE706B079
:1015A00080BD000080B586B004900020039000F05C
:1015B00029FB0290049820B9FFE701208DF817005D
:1015C000A3E00498406A08B1FFE7FFE7049902200E
:1015D00081F83500FFE70499002081F83400FFE727
:1015E00004980168086820F001000860FFE704988B
:1015F00000680068C00790B1FFE700F003FB0299A4
:10160000401A06280AD3FFE7049920204865049968
:10161000032081F835008DF8170076E0E7E704989D
:10162000006800680390039848F23F01CFF2100170
:1016300008400390049900914868D1F808C0CB682D
:101640000A6940EA0C00184310434A6910438A694A
:101650001043CA691043096A014303980843039081
:101660000498406A042808D1FFE70499C86A096B06
:101670000143039808430390FFE70398049909681E
:1016800008600498006840690390039820F0070000
:1016900003900498416A0398084303900498406AB1
:1016A00004281AD1FFE70498816A0398084303903D
:1016B0000498C06A80B1FFE70498FFF751F950B170
:1016C000FFE70499402048650499012081F835001E
:1016D0008DF8170019E0FFE7FFE703980499096800
:1016E00048610498FFF710F901900498C16D3F20FC
:1016F000884001998860049900204865049A012176
:1017000082F835108DF81700FFE79DF8170006B036
:1017100080BD000080B588B00690059104920393C7
:1017200000208DF80B000698806D0190FFE7069869
:1017300090F83400012804D1FFE702208DF81F0043
:1017400045E00699012081F83400FFE7FFE706989D
:1017500090F8350001282BD1FFE70699022081F887
:10176000350006990020486506980599049A039B60
:10177000FFF76EF90698C16D3F2088400199886097
:1017800006980168086840F0160008600698006C2A
:1017900038B1FFE706980168086840F00800086063
:1017A000FFE706980168086840F00100086009E05A
:1017B000FFE70699002081F83400FFE702208DF84A
:1017C0000B00FFE79DF80B008DF81F00FFE79DF869
:1017D0001F0008B080BD000080B584B0039000F009
:1017E00011FA0290039801900198013048B1FFE787
:1017F00040F21500C2F200000178019808440190FF
:10180000FFE7FFE700F0FEF90299401A01998842CC
:1018100001D2FFE7F6E704B080BD00008EB00D9066
:101820000C9100200A90099008900B90FFE70B980C
:101830000F2800F2CC81FFE70B99012088400A9025
:101840000C9800680A990840099009980A998842FA
:1018500040F0B881FFE70C98406800F003000128D1
:1018600007D0FFE70C98406800F0030002282FD152
:10187000FFE70D98806808900B984100032000FA5C
:1018800001F10898884308900C98C0680B994900AA
:1018900000FA01F108980843089008980D998860AB
:1018A0000D98406808900B99012000FA01F1089802
:1018B000884308900C984068C0F300100B9900FA18
:1018C00001F108980843089008980D994860FFE7CF
:1018D0000C98406800F00300032818D0FFE70D982B
:1018E000C06808900B984100032000FA01F10898A5
:1018F000884308900C9880680B99490000FA01F120
:1019000008980843089008980D99C860FFE70C985C
:10191000406800F00300022826D1FFE70D980B99DC
:101920006FF0030202EA51010844006A08900B9824
:1019300000F0070081000F2000FA01F108988843A9
:1019400008900C9800690B9901F00701890000FAD2
:1019500001F108980843089008980D990B9B02EA3A
:10196000530211440862FFE70D98006808900B9835
:101970004100032000FA01F10898884308900C9870
:10198000406800F003000B99490000FA01F1089843
:101990000843089008980D9908600C988079800792
:1019A000002800F00E81FFE7FFE70020079043F6D4
:1019B0004400C4F20200016841F480410160006803
:1019C00000F4804007900798FFE70B9820F0030091
:1019D00043F60801C4F20101405808900B9800F04A
:1019E000030081000F2000FA01F108988843089055
:1019F0000D980021C4F20201884203D1FFE70020C4
:101A000006905EE00D9840F20041C4F20201884267
:101A100003D1FFE70120059050E00D9840F600014A
:101A2000C4F20201884203D1FFE70220049042E0A1
:101A30000D9840F60041C4F20201884203D1FFE74D
:101A40000320039034E00D9841F20001C4F202013A
:101A5000884203D1FFE70420029026E00D9841F26E
:101A60000041C4F20201884203D1FFE70520019042
:101A700018E00D9841F60001C4F20201884203D13A
:101A8000FFE7062000900AE00D9941F60042C4F2FB
:101A900002020820914208BF07200090FFE700984B
:101AA0000190FFE701980290FFE702980390FFE79B
:101AB00003980490FFE704980590FFE705980690C7
:101AC000FFE70698C0B20B9901F00301890000FA04
:101AD00001F108980843089008980B9921F0030138
:101AE00043F60802C4F20102885043F60840C4F2EB
:101AF00001000068089009990898884308900C989C
:101B00008079C006002805D5FFE7099908980843A1
:101B10000890FFE7089843F60841C4F20101086005
:101B200043F60C40C4F20100006808900999089837
:101B3000884308900C9880798006002805D5FFE737
:101B40000999089808430890FFE7089843F60C4164
:101B5000C4F20101086043F60440C4F201000068C9
:101B6000089009990898884308900C988079800714
:101B7000002805D5FFE70999089808430890FFE772
:101B8000089843F60441C4F20101086043F600409E
:101B9000C4F20100006808900999089888430890E9
:101BA0000C988079C00728B1FFE709990898084385
:101BB0000890FFE7089843F60041C4F2010108606D
:101BC000FFE7FFE7FFE70B9801300B902FE60EB021
:101BD0007047000082B00190ADF802108DF801202E
:101BE0009DF8010028B1FFE7BDF802000199886166
:101BF00005E0BDF80200000401998861FFE702B02A
:101C00007047000041F23430C2F2000000687047B3
:101C100040F21500C2F20000027841F23431C2F203
:101C200000010868104408607047000080B543F662
:101C30000041C4F20201086840F4007008600868BE
:101C400040F480600860086840F4807008600320F9
:101C500000F0C0F80F2000F005F800F071F8002047
:101C600080BD000080B58CB00B90002005900490E2
:101C7000FFE70020019043F64400C4F2020001682F
:101C800041F002010160006800F00200019001983B
:101C9000FFE706A803A900F0D7F900F017FA400003
:101CA000059005984DF68361C4F21B31A0FB01013C
:101CB0004FF0FF3000EB9140049040F2A410C2F2CC
:101CC000000040F20041C4F20101016040F2E7313E
:101CD000C16004994160002101618160816100F06F
:101CE00075FE8DF80B009DF80B0028BBFFE740F256
:101CF000A410C2F2000000F005FF8DF80B009DF863
:101D00000B00C0B9FFE72C2000F040F80B980F281B
:101D10000CD8FFE70B992C20002200F041F80B981B
:101D200040F21801C2F20001086003E001208DF8C2
:101D30000B00FFE7FFE7FFE79DF80B000CB080BD4D
:101D400082B0FFE70020019043F64400C4F2020095
:101D5000016841F480410160006800F48040019016
:101D60000198FFE7FFE70020009043F64000C4F22F
:101D70000200016841F080510160006800F080506D
:101D800000900098FFE702B07047000080B582B075
:101D90008DF807009DF9070003F088FA02B080BDB6
:101DA00080B586B08DF81700049103920020029050
:101DB00003F094FA02909DF917000190029804999B
:101DC000039A02F073FA0146019803F08FFA06B005
:101DD00080BD000080B582B00190019803F0A8FAA0
:101DE00002B080BD80B584B002900191029820B904
:101DF000FFE701208DF80F0021E1019843F6004133
:101E0000C4F20201096801F00701884212D9FFE714
:101E1000019943F60040C4F202000170006800F02E
:101E200007000199884204D0FFE701208DF80F00D8
:101E300005E1FFE702980078800700282AD5FFE730
:101E4000029800784007002809D5FFE743F608010B
:101E5000C4F20201086840F4E0500860FFE702980D
:101E600000780007002809D5FFE743F60801C4F20F
:101E70000201086840F460400860FFE743F608018B
:101E8000C4F20201086820F0F000029A9268104340
:101E90000860FFE702980078C00700286ED0FFE7CF
:101EA00002984068012811D1FFE743F60000C4F210
:101EB0000200006800F400310020B0EB514F04D163
:101EC000FFE701208DF80F00B9E02CE00298406890
:101ED000022805D0FFE702984068032811D1FFE7E8
:101EE00043F60000C4F20200006800F00071002018
:101EF000B0EB516F04D1FFE701208DF80F009EE099
:101F000010E043F60000C4F20200006800F0020195
:101F10000020B0EB510F04D1FFE701208DF80F0036
:101F20008DE0FFE7FFE743F60801C4F2020108680D
:101F300020F00300029A526810430860FFF762FE27
:101F40000090FFE743F60800C4F20200006800F0CA
:101F50000C0002994968B0EB810F0ED0FFE7FFF744
:101F600051FE0099401A41F28931884204D3FFE7BB
:101F700003208DF80F0062E0E4E7FFE7019843F6E5
:101F80000041C4F20201096801F00701884212D23F
:101F9000FFE7019943F60040C4F2020001700068B7
:101FA00000F007000199884204D0FFE701208DF876
:101FB0000F0044E0FFE702980078400700280CD5A6
:101FC000FFE743F60801C4F20201086820F4E0507C
:101FD000029AD26810430860FFE702980078000771
:101FE00000280DD5FFE743F60801C4F20201086896
:101FF00020F46040029A126940EAC2000860FFE7DC
:1020000000F076F843F60801C4F202010968C9B28B
:102010000A0946F60821C0F60001895CC84040F272
:102020000801C2F20001086040F21800C2F200008C
:102030000068FFF717FE00208DF80F00FFE79DF8FE
:102040000F0004B080BD000082B0019000910199A2
:102050000F20086043F60800C4F20200016801F096
:102060000301019A5160016801F0F001019A916049
:10207000016801F4E051019AD160006800F4604009
:10208000C0080199086143F60040C4F202000068EC
:1020900000F007000099086002B0704740F20800A5
:1020A000C2F200000068704780B5FFF7F7FF43F603
:1020B0000801C4F202010968C1F3822246F6182120
:1020C000C0F60001895CC84080BD000080B5FFF704
:1020D000E5FF43F60801C4F20201096889B24A0B20
:1020E00046F61821C0F60001895CC84080BD00009A
:1020F00080B586B00020059004900390029043F6CE
:102100000800C4F20200006800F00C0001460191D2
:1021100040B1FFE7019804280AD0FFE7019808289A
:102120000CD04FE042F20040C0F2F40002904FE0C9
:1021300047F64000C0F27D10029049E043F60400EB
:10214000C4F20200016801F03F01059100684002FD
:10215000002813D5FFE743F60400C4F2020000682C
:10216000C0F3881047F64001C0F27D11A0FB0101C9
:10217000059A0023FEF724F8049012E043F60400C9
:10218000C4F202000068C0F3881042F20041C0F2BD
:10219000F401A0FB0101059A0023FEF711F8049059
:1021A000FFE743F60400C4F20200006800F4403187
:1021B000022000EBD130039004980399B0FBF1F0BA
:1021C000029005E042F20040C0F2F4000290FFE706
:1021D000029806B080BD000080B586B004900498D7
:1021E00020B9FFE701208DF8170050E3049800782C
:1021F000C007002800F0A580FFE743F60800C4F2FE
:102200000200006800F00C00042813D0FFE743F63A
:102210000800C4F20200006800F00C0008281ED17B
:10222000FFE743F60400C4F2020000684002002801
:1022300015D5FFE743F60000C4F20200006800F481
:1022400000310020B0EB514F08D0FFE70498406800
:1022500020B9FFE701208DF8170018E370E0FFE7D1
:1022600004984068B0F5803F09D1FFE743F60001CC
:10227000C4F20201086840F48030086020E004984D
:102280004068B0F5A02F0DD1FFE743F60001C4F27E
:102290000201086840F480200860086840F480303B
:1022A00008600CE043F60001C4F20201086820F463
:1022B00080300860086820F480200860FFE7FFE7AE
:1022C000FFE704984068E8B1FFE7FFF79BFC039045
:1022D000FFE743F60000C4F20200006800F400319A
:1022E0000020B0EB514F0CD1FFE7FFF78BFC0399B7
:1022F000401A652804D3FFE703208DF81700C6E2D3
:10230000E7E71CE0FFF77EFC0390FFE743F60000E1
:10231000C4F20200006800F400310020B0EB514F1D
:102320000CD0FFE7FFF76EFC0399401A652804D331
:10233000FFE703208DF81700A9E2E7E7FFE7FFE7D3
:10234000FFE7049800788007002840F19680FFE7B7
:1023500043F60800C4F20200006810F00C0F13D01E
:10236000FFE743F60800C4F20200006800F00C002A
:1023700008282CD1FFE743F60400C4F202000068ED
:102380004002002823D4FFE743F60000C4F2020015
:10239000006800F002010020B0EB510F09D0FFE708
:1023A0000498C068012804D0FFE701208DF81700C9
:1023B0006DE243F60001C4F20201086820F0F80063
:1023C000049A126940EAC2000860FFE754E00498EA
:1023D000C06870B3FFE70021C4F247210120086004
:1023E000FFF710FC0390FFE743F60000C4F2020081
:1023F000006800F002010020B0EB510F0CD1FFE7A4
:10240000FFF700FC0399401A032804D3FFE70320D9
:102410008DF817003BE2E7E743F60001C4F2020142
:10242000086820F0F800049A126940EAC2000860C7
:1024300021E00021C4F2472100200860FFF7E2FB01
:102440000390FFE743F60000C4F20200006800F0CA
:1024500002010020B0EB510F0CD0FFE7FFF7D2FBD9
:102460000399401A032804D3FFE703208DF81700CF
:102470000DE2E7E7FFE7FFE7FFE7049800780007D2
:1024800000284BD5FFE70498406918B3FFE740F6F2
:102490008061C4F2472101200860FFF7B3FB03907D
:1024A000FFE743F67400C4F20200006800F0020186
:1024B0000020B0EB510F0CD1FFE7FFF7A3FB03990E
:1024C000401A032804D3FFE703208DF81700DEE14C
:1024D000E7E722E040F68061C4F24721002008606F
:1024E000FFF790FB0390FFE743F67400C4F202008D
:1024F000006800F002010020B0EB510F0CD0FFE7A4
:10250000FFF780FB0399401A032804D3FFE7032059
:102510008DF81700BBE1E7E7FFE7FFE704980078D5
:102520004007002840F1CE80FFE700208DF807002B
:1025300043F64000C4F202000068C000002815D431
:10254000FFE7FFE70020009043F64000C4F20200DE
:10255000016841F080510160006800F080500090F7
:102560000098FFE701208DF80700FFE747F2000021
:10257000C4F200000068C005002822D4FFE747F23B
:102580000001C4F20001086840F480700860FFF7A1
:1025900039FB0390FFE747F20000C4F20000006837
:1025A000C00500280CD4FFE7FFF72CFB0399401A65
:1025B000032804D3FFE703208DF8170067E1EAE75B
:1025C000FFE7FFE704988068012809D1FFE743F699
:1025D0007001C4F20201086840F0010008601FE0C9
:1025E0000498806805280DD1FFE743F67001C4F216
:1025F0000201086840F004000860086840F001002B
:1026000008600CE043F67001C4F20201086820F093
:1026100001000860086820F004000860FFE7FFE799
:10262000FFE704988068F8B1FFE7FFF7EBFA039043
:10263000FFE743F67000C4F20200006800F00201F8
:102640000020B0EB510F0ED1FFE7FFF7DBFA039943
:10265000401A41F28931884204D3FFE703208DF804
:10266000170014E1E5E71EE0FFF7CCFA0390FFE75F
:1026700043F67000C4F20200006800F0020100207E
:10268000B0EB510F0ED0FFE7FFF7BCFA0399401AE9
:1026900041F28931884204D3FFE703208DF8170007
:1026A000F5E0E5E7FFE79DF80700012809D1FFE71E
:1026B00043F64001C4F20201086820F0805008602F
:1026C000FFE7FFE704988069002800F0DC80FFE75F
:1026D00043F60800C4F20200006800F00C0008286D
:1026E00000F08580FFE70498806902285CD1FFE74D
:1026F0006021C4F2472100200860FFF783FA0390AD
:10270000FFE743F60000C4F20200006800F0007129
:102710000020B0EB516F0CD0FFE7FFF773FA03997D
:10272000401A032804D3FFE703208DF81700AEE01A
:10273000E7E70499C869D1F820C04B6A8A6A40EA81
:102740000C0040EA8310D2034FF6FF739A43A2F5C0
:1027500080321043C96A40EA016043F60401C4F2C2
:10276000020108606021C4F2472101200860FFF7E0
:1027700049FA0390FFE743F60000C4F20200006844
:1027800000F000710020B0EB516F0CD1FFE7FFF7B4
:1027900039FA0399401A032804D3FFE703208DF880
:1027A000170074E0E7E721E06021C4F24721002030
:1027B0000860FFF727FA0390FFE743F60000C4F232
:1027C0000200006800F000710020B0EB516F0CD0E7
:1027D000FFE7FFF717FA0399401A032804D3FFE72E
:1027E00003208DF8170052E0E7E7FFE74AE004987E
:1027F0008069012804D1FFE701208DF8170046E029
:1028000043F60400C4F20200006802900498806954
:10281000012831D0FFE7029800F480000499C969CB
:10282000884229D1FFE7029800F03F000499096A25
:10283000884221D1FFE7029847F6C0710840049909
:10284000496AB0EB811F17D1FFE7029800F44030CE
:102850000499896AC9034FF6FF729143A1F580314B
:10286000884209D1FFE7029800F070600499C96AB4
:10287000B0EB016F04D0FFE701208DF8170006E0F0
:10288000FFE7FFE7FFE700208DF81700FFE79DF85F
:10289000170006B080BD000081B0009001B0704705
:1028A00081B0009001B0704785B003900291FFE7BE
:1028B000039890F83C00012804D1FFE702208DF82E
:1028C00013007EE00399012081F83C00FFE7FFE759
:1028D0000399022081F83D00039800684068019048
:1028E0000398006880680090019820F070000190C3
:1028F00002980168019808430190019803990968BA
:102900004860039800680021C4F2010188423CD06D
:10291000FFE703980068B0F1804F36D0FFE70398D7
:10292000006840F20041C4F2000188422DD0FFE768
:102930000398006840F60001C4F20001884224D0E8
:10294000FFE70398006840F60041C4F200018842A6
:102950001BD0FFE70398006840F20041C4F2010178
:10296000884212D0FFE70398006844F20001C4F2E5
:102970000101884209D0FFE70398006841F6000191
:10298000C4F2000188420ED1FFE7009820F08000D9
:1029900000900298416800980843009000980399BD
:1029A00009688860FFE70399012081F83D00FFE78F
:1029B0000399002081F83C00FFE700208DF8130008
:1029C000FFE79DF8130005B07047000080B582B0A6
:1029D0000090009820B9FFE701208DF807003FE044
:1029E000009890F83D0040B9FFE70099002081F879
:1029F0003C00009800F038F8FFE70099022081F8C9
:102A00003D00009951F8040B01F00EFD00990120E2
:102A100081F84600FFE70099012081F83E00009907
:102A200081F83F00009981F84000009981F8410049
:102A3000FFE7FFE70099012081F84200009981F843
:102A40004300009981F84400009981F84500FFE7B0
:102A50000099012081F83D0000208DF80700FFE774
:102A60009DF8070002B080BD80B586B0059005983E
:102A700000680021C4F2010188421BD1FFE7FFE793
:102A80000020049043F64400C4F20200016841F0C3
:102A900001010160006800F0010004900498FFE764
:102AA0001920029000221146FFF77AF90298FFF7E9
:102AB0006DF924E00598006840F20041C4F200017D
:102AC00088421BD1FFE7FFE70020039043F6400058
:102AD000C4F20200016841F002010160006800F0E8
:102AE000020003900398FFE71D2001900022114689
:102AF000FFF756F90198FFF749F9FFE7FFE706B03E
:102B000080BD000083B00190019890F83D0001283D
:102B100004D0FFE701208DF80B006AE00199022044
:102B200081F83D0001980168C86840F00100C86064
:102B3000019800680021C4F2010188423CD0FFE7FF
:102B400001980068B0F1804F36D0FFE70198006827
:102B500040F20041C4F2000188422DD0FFE7019805
:102B6000006840F60001C4F20001884224D0FFE76B
:102B70000198006840F60041C4F2000188421BD071
:102B8000FFE70198006840F20041C4F20101884269
:102B900012D0FFE70198006844F20001C4F201017D
:102BA000884209D0FFE70198006841F60001C4F2AD
:102BB0000001884212D1FFE701980068806800F0A8
:102BC000070000900098062807D0FFE701980168E9
:102BD000086840F001000860FFE706E0019801681E
:102BE000086840F001000860FFE700208DF80B0046
:102BF000FFE79DF80B0003B07047000080B586B07A
:102C00000490039100208DF80B00FFE7049890F8E2
:102C10003C00012804D1FFE702208DF81700ABE04B
:102C20000499012081F83C00FFE7FFE704990220A6
:102C300081F83D000498006880680190019820F0B8
:102C400077000190019820F47F4001900198049949
:102C500009688860039800680090002872D0FFE738
:102C6000009810286ED0FFE7009820286AD0FFE770
:102C70000098302866D0FFE70098402855D0FFE73D
:102C80000098502837D0FFE70098602840D0FFE731
:102C9000009870280BD0FFE70098B0F5805F05D052
:102CA000FFE70098B0F5005F16D052E055E00498B9
:102CB0000068039B5A689968DB6801F0A3FC0498DC
:102CC000006880680190019840F0770001900198B9
:102CD00004990968886040E004980068039B5A687A
:102CE0009968DB6801F08EFC04980168886840F4FC
:102CF0008040886031E004980068039A5168D26887
:102D000001F06CFE04980068502101F095FC24E06D
:102D100004980068039A5168D26801F087FE04980D
:102D20000068602101F088FC17E004980068039AAD
:102D30005168D26801F052FE04980068402101F009
:102D40007BFC0AE0049800680399096801F074FCB0
:102D500003E001208DF80B00FFE70499012081F8C2
:102D60003D00FFE70499002081F83C00FFE79DF853
:102D70000B008DF81700FFE79DF8170006B080BD27
:102D800081B0009001B0704780B584B00390039883
:102D90000068C068029003980068006901909DF87F
:102DA00004008007002824D5FFE79DF8080080076D
:102DB00000281DD5FFE7039801686FF00200086145
:102DC000039901200877039800688069800720B183
:102DD000FFE70398FFF7D4FF06E0039800F016F929
:102DE000039800F00BFAFFE7039900200877FFE74C
:102DF000FFE79DF804004007002825D5FFE79DF870
:102E00000800400700281ED5FFE7039801686FF00F
:102E1000040008610399022008770398006880691C
:102E200010F4407F04D0FFE70398FFF7A9FF06E006
:102E3000039800F0EBF8039800F0E0F9FFE703993E
:102E400000200877FFE7FFE79DF80400000700284F
:102E500024D5FFE79DF80800000700281DD5FFE7EF
:102E6000039801686FF0080008610399042008774F
:102E700003980068C069800720B1FFE70398FFF757
:102E80007FFF06E0039800F0C1F8039800F0B6F960
:102E9000FFE7039900200877FFE7FFE79DF80400AC
:102EA000C006002825D5FFE79DF80800C0060028C9
:102EB0001ED5FFE7039801686FF0100008610399C1
:102EC0000820087703980068C06910F4407F04D098
:102ED000FFE70398FFF754FF06E0039800F096F829
:102EE000039800F08BF9FFE7039900200877FFE7CC
:102EF000FFE79DF80400C00778B1FFE79DF80800E0
:102F0000C00748B1FFE7039801686FF0010008614E
:102F1000039800F05DFAFFE7FFE79DF80400000664
:102F2000002810D5FFE79DF808000006002809D505
:102F3000FFE7039801686FF0800008610398FFF7CE
:102F4000ABFCFFE7FFE79DF804004006002810D522
:102F5000FFE79DF808004006002809D5FFE7039821
:102F600001686FF040000861039800F05BFBFFE729
:102F7000FFE79DF804008006002810D5FFE79DF8C4
:102F800008008006002809D5FFE7039801686FF064
:102F9000200008610398FFF783FCFFE7FFE704B018
:102FA00080BD000080B588B0079000200690059095
:102FB0000490039002900798006840F20041C4F228
:102FC0000001884220D1FFE7FFE70020019043F68F
:102FD0003000C4F20200016841F0010101600068A4
:102FE00000F0010001900198FFE7C020029002204C
:102FF000039000210491059106900020C4F2020084
:1030000002A9FEF70BFCFFE708B080BD81B000907D
:1030100001B0704780B586B0049003910292002001
:103020008DF80700FFE7049890F83C00012804D1D0
:10303000FFE702208DF8170089E00499012081F84C
:103040003C00FFE7FFE7029800900C2800F2708038
:103050000099DFE801F0076D6D6D206D6D6D3A6DC3
:103060006D6D530004980068039901F0FBFA049811
:103070000168886940F008008861049801688869DF
:1030800020F0040088610398026904980168886947
:103090001043886150E004980068039901F058FBE0
:1030A00004980168886940F40060886104980168A8
:1030B000886920F480608861039802690498016837
:1030C000886940EA0220886136E004980068039924
:1030D00001F0B8FB04980168C86940F00800C861B5
:1030E00004980168C86920F00400C8610398026967
:1030F00004980168C8691043C8611DE0049800681D
:10310000039901F019FC04980168C86940F4006053
:10311000C86104980168C86920F48060C861039898
:10312000026904980168C86940EA0220C86103E0A6
:1031300001208DF80700FFE7FFE70499002081F8E0
:103140003C00FFE79DF807008DF81700FFE79DF8AA
:10315000170006B080BD000080B582B000900098D6
:1031600020B9FFE701208DF807003FE0009890F8B4
:103170003D0040B9FFE70099002081F83C0000982D
:1031800000F038F8FFE70099022081F83D0000992F
:1031900051F8040B01F048F90099012081F846002C
:1031A000FFE70099012081F83E00009981F83F0077
:1031B000009981F84000009981F84100FFE7FFE79E
:1031C0000099012081F84200009981F8430000999C
:1031D00081F84400009981F84500FFE7009901203B
:1031E00081F83D0000208DF80700FFE79DF80700FB
:1031F00002B080BD81B0009001B0704781B00090F6
:1032000001B0704780B58CB00A900991099828B92F
:10321000FFE70A9890F83E0007901CE00998042800
:1032200005D1FFE70A9890F83F00069010E0099852
:10323000082805D1FFE70A9890F84000059004E0BF
:103240000A9890F841000590FFE705980690FFE77F
:1032500006980790FFE70798012804D0FFE70120B0
:103260008DF82F00AFE0099828B9FFE70A990220EE
:1032700081F83E001EE00998042806D1FFE70A996C
:10328000022081F83F00049012E00998082806D136
:10329000FFE70A99022081F84000039005E00A99AF
:1032A000022081F841000390FFE703980490FFE7B4
:1032B0000498FFE70A98006809990122019201F039
:1032C00085F901980A9909680022C4F20102914225
:1032D00002900CD0FFE70A9800684FF60041CBF649
:1032E000FE710844B0FA80F040090290FFE70298AE
:1032F000C00738B1FFE70A980168486C40F4004005
:103300004864FFE70A9800680021C4F2010188427E
:103310003CD0FFE70A980068B0F1804F36D0FFE755
:103320000A98006840F20041C4F2000188422DD0A2
:10333000FFE70A98006840F60001C4F200018842E5
:1033400024D0FFE70A98006840F60041C4F200016B
:1033500088421BD0FFE70A98006840F20041C4F29F
:103360000101884212D0FFE70A98006844F2000188
:10337000C4F20101884209D0FFE70A98006841F6CB
:103380000001C4F20001884212D1FFE70A980068E8
:10339000806800F0070008900898062807D0FFE72B
:1033A0000A980168086840F001000860FFE706E03D
:1033B0000A980168086840F001000860FFE70020F3
:1033C0008DF82F00FFE79DF82F000CB080BD0000A6
:1033D00080B58AB009900998006840F20041C4F2B3
:1033E0000101884203D1FFE7FEF712FCFFE70998CD
:1033F00000680021C4F20101884240F01181FFE71A
:1034000040F25000C2F200000068002840F08480C2
:10341000FFE740F20C00C2F2000001680A310160CF
:10342000006842F2D842C0F2061247F6D501C2F255
:10343000E96100FB01204FEAF00048F63611C0F2C6
:10344000410188421ED8FFE746F64C21C0F6000134
:1034500007914EF62070E1220892FDF793FB46F6A5
:103460004020C0F6000002F01DF90799089A4FF4B9
:103470006F40FDF787FB40F25001C2F200010120CE
:103480000860FFE740F20C00C2F20000026848F258
:103490001F50C5F2EB1052FB00F1881100EBD17008
:1034A000C82100FB112064280ED1FFE70020C4F2E0
:1034B0000200069010210122FEF78CFB06982021C5
:1034C0000022FEF787FB26E040F20C00C2F200006B
:1034D00000684BF65002C0F21E5245F62941CCF26C
:1034E0008F2100FB01204FEAF0004AF61461C0F280
:1034F000471188420ED8FFE70020C4F20200059071
:1035000010210022FEF766FB059820210122FEF71C
:1035100061FBFFE7FFE782E040F20C00C2F200002F
:1035200001680A390160006842F2D842C0F206120E
:1035300047F6D501C2F2E96100FB01204FEAF00035
:1035400048F63611C0F2410188421ED8FFE746F620
:103550004C21C0F6000103914EF62070E92204923E
:10356000FDF710FB46F64020C0F6000002F09AF886
:103570000399049A4FF46F40FDF704FB40F25001A9
:10358000C2F2000100200860FFE740F20C00C2F226
:103590000000026848F21F50C5F2EB1052FB00F128
:1035A000881100EBD170C82100FB112064280ED1D6
:1035B000FFE70020C4F20200029010210122FEF772
:1035C00009FB029820210022FEF704FB26E040F2CE
:1035D0000C00C2F2000000684BF65002C0F21E520E
:1035E00045F62941CCF28F2100FB01204FEAF00083
:1035F0004AF61461C0F2471188420ED8FFE7002056
:10360000C4F20200019010210022FEF7E3FA0198B3
:1036100020210122FEF7DEFAFFE7FFE7FFE7FFE7E1
:103620000AB080BD81B0009001B0704782B00190B7
:10363000ADF8021002B0704781B0009001B0704741
:1036400080B592B0119011980068006810901198A0
:103650000068C0680F901198006840690E900020C3
:103660000D900C90109800F00F000D900D9888B9F7
:10367000FFE79DF84000800600280AD5FFE79DF887
:103680003C008006002804D5FFE7119801F09CFB60
:1036900002E2FFE70D98002800F0C280FFE79DF8E6
:1036A0003800C00738B9FFE7BDF83C0010F4907F40
:1036B00000F0B680FFE79DF84000C00758B1FFE773
:1036C0009DF83D00C00730B1FFE71199486C40F00C
:1036D00001004864FFE79DF84000400700280BD533
:1036E000FFE79DF83800C00730B1FFE71199486C3B
:1036F00040F002004864FFE79DF840008007002882
:103700000BD5FFE79DF83800C00730B1FFE71199EE
:10371000486C40F004004864FFE79DF84000000753
:10372000002811D5FFE79DF83C008006002805D44D
:10373000FFE79DF83800C00730B1FFE71199486CEA
:1037400040F008004864FFE71198406C002866D0FC
:10375000FFE79DF84000800600280AD5FFE79DF8A6
:103760003C008006002804D5FFE7119801F02CFBEF
:10377000FFE7119800684069C0F380100C90119821
:10378000406C0007002804D4FFE70C9800283ED0C6
:10379000FFE7119801F09EFA119800684069400611
:1037A00000282FD5FFE7FFE7FFE71198006850E8F2
:1037B000050F20F040000B90FFE70B99119802686D
:1037C00042E805100028F0D1FFE7FFE71198C06B31
:1037D00098B1FFE71198C16B44F68120C0F6000054
:1037E00008651198C06BFDF72BFD28B1FFE7119814
:1037F000C06B016D8847FFE703E01198FFF71CFFDE
:10380000FFE703E01198FFF717FFFFE706E01198C5
:10381000FFF712FF119900204864FFE7FFE73BE143
:103820001198006B012840F01781FFE79DF84000D8
:10383000C006002840F11081FFE79DF83C00C0065B
:10384000002840F10981FFE7FFE700200A90119866
:10385000006800680A901198006840680A900A9809
:10386000FFE71198006840694006002840F19A80FF
:10387000FFE71198C06B00684068ADF82600BDF8FE
:103880002600002875D0FFE7BDF826001199898D24
:1038900088426EDAFFE7BDF826001199C8851198B5
:1038A000C06BC069B0F5807F58D0FFE7FFE7FFE746
:1038B0001198006850E8030F20F480700890FFE72B
:1038C00008991198026842E803100028F0D1FFE738
:1038D000FFE7FFE7FFE71198006850E8050F20F0C9
:1038E00001000790FFE707991198026842E8051068
:1038F0000028F0D1FFE7FFE7FFE7FFE71198006836
:1039000050E8050F20F040000690FFE70699119857
:10391000026842E805100028F0D1FFE7FFE711999F
:10392000202081F84200119900200863FFE7FFE79B
:103930001198006850E8030F20F010000590FFE791
:1039400005991198026842E803100028F0D1FFE7BA
:10395000FFE71198C06BFDF7FDFBFFE7119902200F
:1039600048631198818DC28D891A89B2FFF75EFE76
:1039700017E0BDF826001199898D884210D1FFE724
:103980001198C06BC069B0F5807F08D1FFE711992D
:10399000022048631198818DFFF748FEFFE7FFE79B
:1039A000FFE779E01199888DC98D401AADF81200B2
:1039B0001198C08D00284ED0FFE7BDF812000028F6
:1039C00049D0FFE7FFE7FFE71198006850E8030FD1
:1039D00020F490700390FFE703991198026842E881
:1039E00003100028F0D1FFE7FFE7FFE7FFE711989A
:1039F000006850E8050F20F001000290FFE70299EF
:103A00001198026842E805100028F0D1FFE7FFE7AF
:103A10001199202081F84200119900200863FFE7E6
:103A2000FFE71198006850E8030F20F010000190A4
:103A3000FFE701991198026842E803100028F0D1CD
:103A4000FFE7FFE71199022048631198BDF81210B3
:103A5000FFF7ECFDFFE71FE09DF84000000600289F
:103A60000AD5FFE79DF83C000006002804D5FFE7D3
:103A7000119801F093FB0FE09DF8400040060028EC
:103A80000AD5FFE79DF83C004006002804D5FFE773
:103A9000119801F069F9FFE712B080BD80B582B0DE
:103AA0000090009820B9FFE701208DF8070040E062
:103AB0000098806908B1FFE700E0FFE7009890F800
:103AC000410040B9FFE70099002081F840000098CC
:103AD00000F034F8FFE70099242081F841000098B5
:103AE0000168C86820F40050C860009801F020FA0E
:103AF00000980168086920F4904008610098016806
:103B0000486920F02A00486100980168C86840F4BC
:103B10000050C860009900204864009A202182F873
:103B20004110009A82F84210009948638DF807000E
:103B3000FFE79DF8070002B080BD000080B59AB095
:103B400019900020189017901690159014901998BD
:103B5000006841F20001C4F20101884257D1FFE739
:103B6000FFE70020139043F64400C4F2020001680E
:103B700041F010010160006800F0100013901398EC
:103B8000FFE7FFE70020129043F63000C4F2020086
:103B9000016841F001010160006800F0010012902D
:103BA0001298FFE74FF400701490022009901590CE
:103BB00000200E90169003200A90179007200B907B
:103BC00018900020C4F202000C9014A90D91FDF78A
:103BD00025FEDDF824C00A9B0B9A0C980D994FF432
:103BE000806ECDF850E0CDF854C04FF0010CCDF808
:103BF00058C017931892FDF711FE0E9A25200F90CA
:103C00001146FEF7CDF80F98FEF7C0F8B3E019980B
:103C1000006844F20041C4F20001884240F0AA80EA
:103C2000FFE7FFE70020119043F64000C4F20200D6
:103C3000016841F400310160006800F40030119027
:103C40001198FFE7FFE70020109043F63000C4F220
:103C50000200016841F001010160006800F001000C
:103C600010901098FFE70420149002200290159005
:103C700000200790169003200390179007200490CF
:103C800018900020C4F20200059014A90691FDF7D7
:103C9000C5FDDDF808C0039B049A059806994FF00E
:103CA000080ECDF850E0CDF854C04FF0010CCDF81F
:103CB00058C017931892FDF7B1FD079940F25400D0
:103CC000C2F20000089046F28802C4F202020260CA
:103CD0004FF0006242608160C1604FF48062026117
:103CE00041618161C16101624162FDF75BFC18B114
:103CF000FFE7FCF7D7FEFFE7FFE7199840F2540112
:103D0000C2F20001C16319988863FFE740F2B40072
:103D1000C2F20000019046F2A001C4F2020101606B
:103D20004FF000614160402181600021C1604FF48B
:103D30008062026141618161C16101624162FDF79E
:103D400031FC18B1FFE7FCF7ADFEFFE7FFE719987C
:103D500040F2B401C2F20001816319988863FFE761
:103D60002620009000221146FEF71AF80098FEF770
:103D70000DF8FFE7FFE71AB080BD000080B584B002
:103D800002900191ADF80220029890F8420020289C
:103D900017D1FFE7019820B1FFE7BDF8020020B975
:103DA000FFE701208DF80F000FE002990020086363
:103DB00002980199BDF8022001F058F98DF80F0022
:103DC00003E002208DF80F00FFE79DF80F0004B01C
:103DD00080BD000081B0009001B0704781B00090BC
:103DE00001B0704780B586B004900391ADF80A2009
:103DF000049890F8410020286AD1FFE7039820B189
:103E0000FFE7BDF80A0020B9FFE701208DF8170091
:103E100062E0039804990862BDF80A000499888456
:103E2000BDF80A000499C884049900204864049AE3
:103E3000212182F8411004998A6B44F64141C0F671
:103E40000001D16304998A6B44F6BD41C0F60001BC
:103E5000116404998A6B44F69D21C0F60001D16477
:103E60000499896B086503A8019004980268806B27
:103E7000019909680432BDF80A30FDF74BFC58B1CE
:103E8000FFE70499102048640499202081F841003C
:103E900001208DF817001FE0049801686FF04000C2
:103EA0000860FFE7FFE70498006850E8050F40F05E
:103EB00080000090FFE700990498026842E805102E
:103EC0000028F0D1FFE7FFE700208DF8170003E09E
:103ED00002208DF81700FFE79DF8170006B080BD9F
:103EE00081B0009001B0704781B0009001B0704780
:103EF000FFE7FEE780B541F20030C2F200000C306F
:103F000001F064FA80BD000080B541F20030C2F2D9
:103F10000000083001F05AFA80BD000089B0079017
:103F20000691079800680590FFE79DF81700400785
:103F3000002803D5FFE70020089032E00698059995
:103F400001F00041084340F080600490FFE7079BC8
:103F5000049803900599DDF80CC053E8000F08455C
:103F600003D143E800C2002AF7D10090401AB0FA0A
:103F700080F04009BFF35F8F0146019118B9FFE758
:103F800000980590FFE7019800F001008DF80B0004
:103F90009DF80B00C0070028C7D0FFE704980890E1
:103FA000FFE7089809B0704780B584B0FFE70020AC
:103FB000039043F63000C4F20200016841F400119E
:103FC0000160006800F4001003900398FFE71020E0
:103FD0000090002201921146FDF7E2FE0098FDF7E5
:103FE000D5FE019A112002901146FDF7D9FE0298E4
:103FF000FDF7CCFE04B080BD80B58AB000200990EA
:104000000890079006900590FFE70020049043F683
:104010003000C4F20200016841F0800101600068D4
:1040200000F0800004900498FFE7FFE70020039071
:1040300043F63000C4F20200016841F00101016062
:10404000006800F0010003900398FFE70020C4F22D
:10405000020002904FF49871009100220192FDF746
:10406000B9FD009A019902980592012206920791E2
:10407000089105A9FDF7D2FB0AB080BD80B588B0D4
:1040800000210091079106910591049103910291FD
:1040900040F21410C2F2000001900022C4F20102AA
:1040A000026053224260816042F20F72C26001617D
:1040B00041618161FEF78AFC18B1FFE7FCF7F2FC71
:1040C000FFE74FF48050049040F21410C2F2000059
:1040D00004A9FEF793FD18B1FFE7FCF7E3FCFFE747
:1040E00000200290039040F21410C2F2000002A9D6
:1040F000FEF7DAFB18B1FFE7FCF7D4FCFFE740F26C
:104100001410C2F20000FFF763F908B080BD000090
:1041100080B590B0002002900F900E900D900C9002
:104120000B900A90099008900790069005900490D3
:10413000039040F21410C2F20000FEF7E3FC029973
:1041400040F25C10C2F2000040F20042C4F20002F1
:10415000026053224260816040F2E732C260016136
:1041600080218161FEF732FC18B1FFE7FCF79AFC71
:10417000FFE74FF480500C9040F25C10C2F2000058
:104180000CA9FEF73BFD18B1FFE7FCF78BFCFFE73E
:1041900040F25C10C2F20000FEF7DEFF18B1FFE74C
:1041A000FCF780FCFFE700200A900B9040F25C10C7
:1041B000C2F200000AA9FEF777FB18B1FFE7FCF78F
:1041C00071FCFFE7602003900022049205920792A1
:1041D00040F25C10C2F2000003A9FEF71BFF18B109
:1041E000FFE7FCF75FFCFFE740F25C10C2F2000063
:1041F00003A90422FEF70EFF18B1FFE7FCF752FCFB
:10420000FFE740F25C10C2F2000001900021FEF7CF
:10421000F9FF01980421FEF7F5FF0198FEF7C2FEB1
:1042200010B080BD80B582B040F2EC10C2F2000048
:10423000019041F20001C4F2010101604FF4E1314B
:10424000416000218160C16001610C224261816195
:10425000C161FFF723FC18B1FFE7FCF723FCFFE780
:1042600002B080BD80B582B040F23420C2F20000BE
:10427000019044F20041C4F2000101604FF4E131C9
:10428000416000218160C16001610C224261816155
:10429000C161FFF703FC18B1FFE7FCF703FCFFE780
:1042A00002B080BDFFE7FEE7FFE7FEE788B00790BA
:1042B00006910592079800F0070004900498C0F159
:1042C0000700052803D3FFE70420019004E00498C9
:1042D000C0F107000190FFE70198039004980430B3
:1042E000062803D8FFE70020009003E00498033875
:1042F0000090FFE70098029006980399012202FAC5
:1043000001F101390840029B984005999A40013A11
:104310001140084308B07047704700007047000024
:104320007047000080B594B008A83021FBF792FFD9
:10433000002007900690059004900390FFE700206E
:10434000029043F64000C4F20200016841F080513F
:104350000160006800F0805002900298FFE7FFE7DC
:104360000020019047F20000C4F20000016841F40F
:1043700080410160006800F4804001900198FFE7EF
:10438000012008904FF48030099002200E904FF4E5
:1043900080010F91192110914FF4A8711191129081
:1043A0000420139008A8FDF717FF18B1FFE7FCF7EA
:1043B00079FBFFE70F200390022004900020059076
:1043C0004FF4A05006904FF48050079003A80521A9
:1043D000FDF708FD18B1FFE7FCF764FBFFE714B039
:1043E00080BD00004EF68851CEF20001086840F40E
:1043F000700008607047000080B540F21410C2F2EF
:104400000000FEF7C1FC80BD80B540F25C10C2F236
:104410000000FEF7B9FC80BD80B540F2A410C2F2E6
:104420000000FEF7B1FC80BD83B0029001910298BC
:104430000068009002980021C4F20101884225D052
:10444000FFE70298B0F1804F20D0FFE7029840F2DA
:104450000041C4F20001884218D0FFE7029840F6FC
:104460000001C4F20001884210D0FFE7029840F634
:104470000041C4F20001884208D0FFE7029840F2F0
:104480000041C4F2010188420AD1FFE7009820F000
:104490007000009001984168009808430090FFE781
:1044A00002980021C4F20101884255D0FFE702982A
:1044B000B0F1804F50D0FFE7029840F20041C4F2C3
:1044C0000001884248D0FFE7029840F60001C4F29C
:1044D0000001884240D0FFE7029840F60041C4F254
:1044E0000001884238D0FFE7029840F20041C4F250
:1044F0000101884230D0FFE7029844F20001C4F283
:104500000101884228D0FFE7029844F20041C4F23A
:104510000101884220D0FFE7029844F60001C4F26E
:104520000101884218D0FFE7029841F60001C4F269
:104530000001884210D0FFE7029841F60041C4F222
:104540000001884208D0FFE7029842F20001C4F25D
:10455000000188420AD1FFE7009820F440700090E3
:104560000198C168009808430090FFE7009820F088
:104570008000019949690843009001988068029978
:10458000C862019800680299886202980021C4F20A
:104590000101884208D0FFE7029840F20041C4F2CE
:1045A0000101884205D1FFE701980069029908637B
:1045B000FFE70299086840F00400086002990120B2
:1045C000486100980299086003B0704784B0039076
:1045D00002910192029800F01F0101208840009092
:1045E000009A0399086A904308620198029901F0C1
:1045F0001F0100FA01F20399086A1043086204B02F
:104600007047000085B004900391029201930498D2
:1046100080680090009820F47F40009003980299F1
:10462000019A41EA02210143009808430090009852
:104630000499886005B0704783B002900191029898
:1046400080680090009820F0700000900198009918
:10465000084340F00700009000980299886003B07A
:104660007047000085B0049003910498006A01909F
:104670000499086A20F001000862049840680090DC
:10468000049880690290029820F0700002900298CD
:1046900020F00300029003980168029808430290FA
:1046A000019820F002000190039881680198084366
:1046B000019004980021C4F20101884208D0FFE76C
:1046C000049840F20041C4F2010188420ED1FFE794
:1046D000019820F0080001900398C16801980843F0
:1046E0000190019820F004000190FFE70498002158
:1046F000C4F20101884208D0FFE7049840F200416B
:10470000C4F20101884213D1FFE7009820F48070C1
:104710000090009820F40070009003984169009880
:104720000843009003988169009808430090FFE7D0
:104730000098049948600298049988610398406839
:104740000499486301980499086205B07047000015
:1047500085B0049003910498006A01900499086A56
:1047600020F0100008620498406800900498806966
:104770000290029820F4E0400290029820F44070E9
:10478000029003980168029840EA01200290019883
:1047900020F02000019003988168019840EA011000
:1047A000019004980021C4F20101884208D0FFE77B
:1047B000049840F20041C4F2010188420FD1FFE7A2
:1047C000019820F0800001900398C168019840EAA8
:1047D00001100190019820F040000190FFE704983B
:1047E0000021C4F20101884208D0FFE7049840F29A
:1047F0000041C4F20101884215D1FFE7009820F47E
:1048000080600090009820F4006000900398416957
:10481000009840EA8100009003988169009840EA7E
:1048200081000090FFE7009804994860029804997D
:104830008861039840680499886301980499086224
:1048400005B0704785B0049003910498006A019008
:104850000499086A20F48070086204984068009007
:104860000498C0690290029820F0700002900298AB
:1048700020F0030002900398016802980843029018
:10488000019820F40070019003988168019840EA33
:104890000120019004980021C4F20101884208D04F
:1048A000FFE7049840F20041C4F2010188420FD1B1
:1048B000FFE7019820F4006001900398C168019817
:1048C00040EA01200190019820F480600190FFE708
:1048D00004980021C4F20101884208D0FFE704983F
:1048E00040F20041C4F20101884215D1FFE700986F
:1048F00020F480500090009820F40050009003981D
:104900004169009840EA011000900398816900987D
:1049100040EA01100090FFE700980499486002986F
:104920000499C861039840680499C8630198049980
:10493000086205B07047000085B0049003910498A8
:10494000006A01900499086A20F480500862049873
:10495000406800900498C0690290029820F4E040FA
:104960000290029820F44070029003980168029827
:1049700040EA01200290019820F400500190039831
:104980008168019840EA0130019004980021C4F246
:104990000101884208D0FFE7049840F20041C4F2C8
:1049A000010188420BD1FFE7009820F4804000907D
:1049B00003984169009840EA81100090FFE7009851
:1049C0000499486002980499C86103984068049962
:1049D000086401980499086205B0704785B0049096
:1049E000039102920498006A00900499086A20F0EA
:1049F00001000862049880690190019820F0F0009D
:104A000001900299019840EA01100190009820F06D
:104A10000A000090039900980843009001980499B7
:104A2000886100980499086205B0704785B00490C9
:104A3000039102920498006A00900499086A20F099
:104A400010000862049880690190019820F4704079
:104A500001900299019840EA01300190009820F0FD
:104A6000A00000900399009840EA0110009001987E
:104A70000499886100980499086205B070470000A5
:104A800080B582B001900198806B00900099002061
:104A9000C8850098FEF7D0FD02B080BD80B584B017
:104AA0000390002002900398806B019001980068A9
:104AB0004069C0B2C0090290019890F841002128D5
:104AC0000AD1FFE7029838B1FFE701990020C884B6
:104AD000019800F05DF9FFE7019800684069C0F3B4
:104AE00080100290019890F8420022280AD1FFE736
:104AF000029838B1FFE701990020C885019800F0BD
:104B0000E9F8FFE70199486C40F01000486401980B
:104B1000FEF792FD04B080BD80B586B00590059883
:104B2000806B0490059800680068C00500285AD47E
:104B3000FFE704990020C885FFE7FFE704980068B5
:104B400050E8030F20F480700390FFE70399049866
:104B5000026842E803100028F0D1FFE7FFE7FFE713
:104B6000FFE70498006850E8050F20F0010002906C
:104B7000FFE702990498026842E805100028F0D186
:104B8000FFE7FFE7FFE7FFE70498006850E8050F3D
:104B900020F040000190FFE701990498026842E884
:104BA00005100028F0D1FFE7FFE70499202081F8E5
:104BB00042000498006B012814D1FFE7FFE7FFE7EC
:104BC0000498006850E8030F20F010000090FFE701
:104BD00000990498026842E803100028F0D1FFE72A
:104BE000FFE7FFE7FFE70499002048630498006BA4
:104BF000012805D1FFE70498818DFEF717FD03E03A
:104C00000498FFF7E7F8FFE706B080BD80B582B0F3
:104C100001900198806B00900099012048630098F2
:104C2000006B012806D1FFE70098818D4908FEF747
:104C3000FDFC03E00098FFF7D1F8FFE702B080BD6C
:104C400080B584B003900398806B0290039800684D
:104C50000068C00500282AD4FFE702990020C88414
:104C6000FFE7FFE70298006850E8050F20F080009A
:104C70000190FFE701990298026842E805100028B8
:104C8000F0D1FFE7FFE7FFE7FFE70298006850E891
:104C9000030F40F040000090FFE70099029802687F
:104CA00042E803100028F0D1FFE7FFE703E0029895
:104CB000FFF716F9FFE704B080BD000080B582B0B1
:104CC00001900198806B00900098FFF70DF902B0F9
:104CD00080BD000084B00390FFE7FFE70398006801
:104CE00050E8030F20F490700290FFE702990398B8
:104CF000026842E803100028F0D1FFE7FFE7FFE772
:104D0000FFE70398006850E8050F20F001000190CC
:104D1000FFE701990398026842E805100028F0D1E6
:104D2000FFE7FFE70398006B012814D1FFE7FFE7D7
:104D3000FFE70398006850E8030F20F01000009090
:104D4000FFE700990398026842E803100028F0D1B9
:104D5000FFE7FFE7FFE70399202081F8420003996E
:104D60000020086304B0704780B582B001900198BC
:104D70000168C86820F04000C8600199202081F8CF
:104D800041000198FFF7ACF8002002B080BD0000A0
:104D900082B00190FFE7FFE70198006850E8030F39
:104DA00020F0C0000090FFE700990198026842E8F7
:104DB00003100028F0D1FFE7FFE70199202081F8D8
:104DC000410002B07047000080B586B0049000201A
:104DD00003900290049890F84200222840F0A080AE
:104DE000FFE704988068B0F5805F13D1FFE704986F
:104DF000006978B9FFE70498806A02900498006817
:104E000040686FF35F20029908800499886A023035
:104E1000886223E00498806A039004988068B0F563
:104E2000805F08D0FFE70498806850B9FFE70498D6
:104E3000006930B9FFE7049800684068039908707A
:104E400007E004980068406800F07F00039908704C
:104E5000FFE70499886A01308862FFE70499C88DEA
:104E60000138C8850004002856D1FFE7049801687E
:104E7000C86820F02000C86004980168C86820F461
:104E80008070C86004980168486920F0010048619A
:104E90000499202081F84200049900204863049876
:104EA000006B012830D1FFE7049900200863FFE779
:104EB000FFE70498006850E8030F20F0100001900D
:104EC000FFE701990498026842E803100028F0D136
:104ED000FFE7FFE7049800680068C00600280ED5C9
:104EE000FFE7FFE70020009004980068006800904A
:104EF00004980068406800900098FFE7FFE7049876
:104F0000818DFEF793FB03E00498FEF763FFFFE754
:104F100000208DF8170007E000208DF8170003E04F
:104F200002208DF81700FFE79DF8170006B080BD3E
:104F300080B586B0059005980068006920F440505F
:104F4000059A1168D26810430861059988680B6951
:104F50004A69C969184310430843049005980068DA
:104F6000C06849F20C6188430499084305990968AF
:104F7000C86005980068406920F44070059A11687F
:104F80009269104348610598006841F20001C4F23B
:104F90000101884209D0FFE70598006841F200410D
:104FA000C4F20101884204D1FFE7FDF78FF80390B6
:104FB00003E0FDF779F80390FFE70598C069B0F5C5
:104FC000004F29D1FFE703981921A0FB0101059AA1
:104FD0001368029353685A00DB0FFBF7F1F802994C
:104FE000864648F21F53C5F2EB13AEFB032042097D
:104FF00010014FF0640C02FB1CEC322202EBCC02DD
:10500000A2FB0332F82303EA521300EB4300C2F37E
:1050100042121044886026E003981921A0FB010188
:10502000059A1368019353689A009B0FFBF7C8F821
:105030000199844648F21F52C5F2EB12ACFB0230D4
:105040004309642003FB10CC322000EB0C10A0FBC2
:105050000202F02000EA521000EB0310C2F34312E8
:1050600010448860FFE706B080BD000080B58AB0BC
:1050700008900791ADF81A20079808998862BDF842
:105080001A0008998885089900204864089A222106
:1050900082F842100899CA6B44F61931C0F6000133
:1050A000D1630899CA6B44F60D41C0F60001116442
:1050B0000899CA6B44F69D21C0F60001D164089995
:1050C000C96B086507A8059008980168C06B043192
:1050D000059A1268BDF81A30FCF71CFB58B1FFE7BF
:1050E0000899102048640899202081F84200012086
:1050F0008DF827004EE0FFE7002004900898006834
:105100000068049008980068406804900498FFE7DD
:1051100008980069A0B1FFE7FFE7FFE7089800687B
:1051200050E8030F40F480700390FFE7039908985C
:10513000026842E803100028F0D1FFE7FFE7FFE72D
:10514000FFE7FFE70898006850E8050F40F001000E
:105150000290FFE702990898026842E805100028CB
:10516000F0D1FFE7FFE7FFE7FFE70898006850E8A6
:10517000050F40F040000190FFE701990898026890
:1051800042E805100028F0D1FFE7FFE700208DF886
:105190002700FFE79DF827000AB080BD83B001908B
:1051A000019890F8410021283AD1FFE701988068E2
:1051B000B0F5805F13D1FFE70198006978B9FFE788
:1051C0000198006A0090009800886FF35F200199B1
:1051D000096848600199086A0230086208E0019A8B
:1051E000106A411C11620078019909684860FFE764
:1051F0000199C88C0138C884000468B9FFE7019898
:105200000168C86820F08000C86001980168C8681B
:1052100040F04000C860FFE700208DF80B0003E07D
:1052200002208DF80B00FFE79DF80B0003B07047DC
:1052300080B540F2EC10C2F20000FEF701FA80BD2A
:1052400080B540F23420C2F20000FEF7F9F980BDCB
:1052500089B008900791079820F080600690089820
:1052600001900699059105990291BFF35F8F00683F
:105270000390FFE70399019BDDF808C053E8000F96
:10528000084503D143E800C2002AF7D10090411A33
:10529000B1FA81F1490901290390EBD1FFE70098A8
:1052A000049009B070470000FFE7FEE781B08DF879
:1052B00003009DF9030000280ED4FFE79DF90310B9
:1052C00001F01F02012090404A094EF20011CEF277
:1052D000000141F82200FFE701B070474EF60C5084
:1052E000CEF200000068C0F30220704782B08DF853
:1052F000070000919DF9070000280AD4FFE70098F5
:1053000000019DF907104EF20042CEF200028854CF
:105310000BE0009800019DF8071001F00F014EF618
:105320001452CEF200028854FFE702B0704700002A
:1053300083B00290029800F0070000904EF60C51E6
:10534000CEF200010868019001984FF6FF0210406C
:1053500001900198009A40EA02200022C0F2FA521D
:10536000104301900198086003B0704788B007901F
:1053700006910592079B0698009005990491016893
:10538000DDF810C0BFF35F8F53E8000F084503D16D
:1053900043E800C2002AF7D10190401AB0FA80F029
:1053A0004009BFF35F8F0146029120B9FFE70198E2
:1053B00000990860FFE7029800F001008DF80F00E7
:1053C0009DF80F0000F0010008B0704787B006900C
:1053D00006980190012105910599029100680390BA
:1053E000FFE70399019B029801EB000C53E8000FC3
:1053F000084503D143E800C2002AF7D10090411AC2
:10540000B1FA81F1490901290390EAD1FFE7009837
:105410000490049807B0704786B0059005980190F5
:1054200001218DF813109DF813100291007803905C
:10543000FFE70399019B029801EB000CC9B2D3E886
:105440004F0F084503D1C3E842CF002AF7D100909F
:10545000C9B2411AB1FA81F1490901290390E8D191
:10546000FFE700988DF812009DF8120006B0704713
:1054700084B0039002914FF6FF70ADF80600FFE78D
:10548000029890B3FFE70398411C03910178BDF89F
:10549000060080EA0120ADF8060008200090FFE732
:1054A0000098F0B1FFE7BDF80600000400280DD514
:1054B000FFE7BDF806004000ADF80600BDF80600A5
:1054C00041F221014840ADF8060005E0BDF80600B4
:1054D0004000ADF80600FFE7FFE7009801380090B4
:1054E000DEE7029801380290CAE7BDF8060004B072
:1054F0007047000080B584B002900191019840F29D
:105500000001C2F20001884205D1FFE7029800F0D5
:105510008BF8039003E04FF0FF300390FFE7039810
:1055200004B080BD0000000080B586B0002002906D
:1055300005900F2001210491FBF7D8FCFBF7B2FD89
:10554000FCF774FBFEF7EEFEFEF756FDFEF72CFDB2
:10555000FEF794FDFEF7DCFDFEF764FEFEF782FE2B
:105560000520FBF79BF9029A0020C4F20200039089
:105570001021FCF72FFB0398049A2021FCF72AFB4B
:10558000049A40F23420C2F2000040F21401C2F248
:105590000001FEF7F3FBFFE7C820FCF71DF941F21D
:1055A0002430C2F200000190006840F24001C2F2D3
:1055B0000001086040F21000C2F20000006848607C
:1055C00040F23420C2F200000822FEF70BFC41F248
:1055D0003830C2F2000000900068FAF7EDFE41ECAE
:1055E000100B9FED0F1B53EC112B51EC100BFAF726
:1055F0003CFE41EC100B51EC100BFAF7F0FE0146AB
:10560000009801600068FAF7D7FE41EC100B00F03B
:1056100073F851EC100BFAF7E2FE01990860BBE752
:105620009A9999999999B93F80B584B0029041F2BD
:105630003030C2F200000068082804D3FFE74FF0C2
:10564000FF3003902BE0029941F23030C2F20000AB
:1056500003685A1C026041F22832C2F20002D1549F
:105660000068082804D0FFE702980A2814D1FFE751
:1056700041F23030C2F200000190026841F228315C
:10568000C2F200014FF60060C0F20200FBF7A8FA78
:10569000019900200860FFE702980390FFE7039854
:1056A00004B080BD0FB4054B10B503A9044A02989D
:1056B00000F072FD10BC5DF814FB0000F55400080A
:1056C0000000002003B401984100009850EAC12076
:1056D00018BF04204A0D18BF40F0010040F2FF72CD
:1056E000B2EB515F08BF40F00200012808BF05205F
:1056F00002B070470000000010B52F499FED2C1B31
:105700002DED020B84B0059820F000408842DCBFEC
:1057100000209DED040B32DD2849884209D1049810
:1057200040B94FF0010000F06FFC00F03DFC06B006
:1057300010BD05DB9DED040B00F02AFC06B010BD8A
:1057400068469DED040B00F03BF810F0030011D00B
:10575000012818D09DED021B9DED000B02281AD0E8
:1057600000F04AFA51EC100B81F0004106B041EC18
:10577000100B10BD9DED021B9DED000B012000F0F4
:105780006FFB06B010BD9DED021B9DED000B00F000
:1057900033FA06B010BD012000F062FB51EC100B93
:1057A00081F0004106B041EC100B10BD000000007C
:1057B0000000000000000000FB21E93F0000F07F36
:1057C0002DE9F14F04462DED020B2DED088B8AB02B
:1057D0009FEDE70B80ED020B139EE74826F0004596
:1057E00085420ADC9DED120B002084ED000B0AB00F
:1057F000BDEC088B03B0BDE8F08FE0489FEDE0AB57
:105800009FEDE1BBA84247DDE14F9FEDE39B9FED9C
:10581000E48B9DED120B53EC1A2B51EC100B002E68
:105820001CDDFAF7C3FD41EC100BBD4208D053EC70
:105830001B2B51EC100BFAF7B9FDC4E900010BE08A
:1058400053EC192B51EC100BFAF7B0FD53EC182B5D
:10585000FAF7ACFDC4E900010120C8E7FAF705FD3D
:1058600041EC100BBD4208D053EC1B2B51EC100B3C
:10587000FAF7FBFCC4E900010BE053EC192B51ECE7
:10588000100BFAF7F2FC53EC182BFAF7EEFCC4E914
:1058900000014FF0FF30AAE7C348A84279DB9DED35
:1058A000120B51EC100B01F00EF841EC180B9FEDB0
:1058B000C00B53EC102BFAF789FE9FEDBF1B53EC86
:1058C000112BFAF7D2FCFAF7C9FF0746FAF7A8FF3F
:1058D00041EC190B53EC1A2BFAF778FE53EC182B0A
:1058E000FAF767FD41EC180B53EC1B2B51EC190B2D
:1058F000FAF76CFEDFF8C8A241EC100B4FEA15581E
:105900000125FA4453EC102B51EC180BFAF74EFD1D
:10591000032DC4E900013DD0C1F30A5005EB451148
:10592000A8EB00001139814234DA0AEB051BB0EE16
:1059300048AA9BED000BF0EE68AA53EC102B51EC3B
:10594000190BFAF743FE41EC1B0B51EC1A0B53EC0D
:105950001B2BFAF72BFD41EC180B51EC1A0B53ECF7
:10596000182BFAF723FD53EC1B2BFAF71FFD9BEDC9
:10597000020B41EC1A0B53EC102B51EC190BFAF7FC
:1059800025FE53EC1A2BFAF711FD41EC100B6D1CA0
:10599000B8E70EE0002EA8BF3846BFF628AF94ED5A
:1059A000000B51EC100B81F00041C4E9000178427A
:1059B0001DE7C6F3130040F4801EC6F30A50A0F2A0
:1059C000F530471100F01F05C5F12000DDF848B0A3
:1059D00008900020069007900520EC467949002D9C
:1059E00007EB0002794408BF51F8221009D051F8A2
:1059F000223001EB8201AB404A68089922FA01F19A
:105A00001943A1FB0E26A1FB0B131A449A4234BF83
:105A10000123002303EB06080CEB8003D3E901A666
:105A20000E448E4234BF0121002192448A4411B1B8
:105A3000924502D903E0924501D2012100E0002104
:105A4000C3E901A641444CF82010011EA0F1010059
:105A5000C4DC029800F10050850F0298DDE903676D
:105A60008000DDF81480FAF7DBFE41EC1A0B3046BB
:105A7000FAF7E7FE9FED541B53EC112BFAF7A6FD46
:105A800041EC1B0B3846FAF7DCFE9FED511B53EC43
:105A9000112BFAF79BFD41EC180B4046FAF7D1FEAB
:105AA0009FED4D1B53EC112BFAF790FD41EC190BB8
:105AB00051EC180B53EC192BFAF7D7FB53EC1B2BBB
:105AC000FAF7D3FB53EC1A2BFAF7CFFBCDE9080119
:105AD000002008909DED080B53EC1A2B51EC100B95
